{
  "transactions": [
    {
      "hash": "0x01020e60bf6683896db10536f2afca325dc2ffe4be24d20b832f0cbaba8b1b30",
      "transactionType": "CALL",
      "contractName": null,
      "contractAddress": "0x04c0599ae5a44757c0af6f9ec3b93da8976c150a",
      "function": "approve(address,uint256)",
      "arguments": [
        "0x04C0599Ae5A44757c0af6F9eC3b93da8976c150A",
        "5600000000000"
      ],
      "transaction": {
        "from": "0x8f7714ddfecbeff5f3400a012eba53dab3bf0000",
        "to": "0x04c0599ae5a44757c0af6f9ec3b93da8976c150a",
        "gas": "0xb415",
        "value": "0x0",
        "input": "0x095ea7b300000000000000000000000004c0599ae5a44757c0af6f9ec3b93da8976c150a00000000000000000000000000000000000000000000000000000517da02c000",
        "nonce": "0x1e",
        "chainId": "0x2105"
      },
      "additionalContracts": [],
      "isFixedGasLimit": false
    },
    {
      "hash": "0x60e1659e497f3943f6b78312e23c2fb8e6effc8db84b6dee2a74416c66a15e31",
      "transactionType": "CALL",
      "contractName": null,
      "contractAddress": "0x04c0599ae5a44757c0af6f9ec3b93da8976c150a",
      "function": "send((uint32,bytes32,uint256,uint256,bytes,bytes,bytes),(uint256,uint256),address)",
      "arguments": [
        "(30214, 0x0000000000000000000000008f7714ddfecbeff5f3400a012eba53dab3bf0000, 5600000000000, 5000000000000, 0x, 0x, 0x)",
        "(289139560431382, 0)",
        "0x8F7714ddFeCBEfF5F3400a012eBA53dab3Bf0000"
      ],
      "transaction": {
        "from": "0x8f7714ddfecbeff5f3400a012eba53dab3bf0000",
        "to": "0x04c0599ae5a44757c0af6f9ec3b93da8976c150a",
        "gas": "0x65034",
        "value": "0x106f88cca3f16",
        "input": "0xc7c7f5b30000000000000000000000000000000000000000000000000000000000000080000000000000000000000000000000000000000000000000000106f88cca3f1600000000000000000000000000000000000000000000000000000000000000000000000000000000000000008f7714ddfecbeff5f3400a012eba53dab3bf000000000000000000000000000000000000000000000000000000000000000076060000000000000000000000008f7714ddfecbeff5f3400a012eba53dab3bf000000000000000000000000000000000000000000000000000000000517da02c0000000000000000000000000000000000000000000000000000000048c2739500000000000000000000000000000000000000000000000000000000000000000e000000000000000000000000000000000000000000000000000000000000001000000000000000000000000000000000000000000000000000000000000000120000000000000000000000000000000000000000000000000000000000000000000000000000000000000000000000000000000000000000000000000000000000000000000000000000000000000000000000000000000000000000000000000",
        "nonce": "0x1f",
        "chainId": "0x2105"
      },
      "additionalContracts": [],
      "isFixedGasLimit": false
    }
  ],
  "receipts": [
    {
      "status": "0x1",
      "cumulativeGasUsed": "0xe97494",
      "logs": [
        {
          "address": "0x04c0599ae5a44757c0af6f9ec3b93da8976c150a",
          "topics": [
            "0x8c5be1e5ebec7d5bd14f71427d1e84f3dd0314c0f7b2291e5b200ac8c7c3b925",
            "0x0000000000000000000000008f7714ddfecbeff5f3400a012eba53dab3bf0000",
            "0x00000000000000000000000004c0599ae5a44757c0af6f9ec3b93da8976c150a"
          ],
          "data": "0x00000000000000000000000000000000000000000000000000000517da02c000",
          "blockHash": "0x40ccbfc407ac18079fedf144930cd4c4730a695ad4242d4ac44096ddf60ee562",
          "blockNumber": "0x13d88ad",
          "transactionHash": "0x01020e60bf6683896db10536f2afca325dc2ffe4be24d20b832f0cbaba8b1b30",
          "transactionIndex": "0x55",
          "logIndex": "0xe2",
          "removed": false
        }
      ],
      "logsBloom": "0x00000000000000000000000000000000000000000000000000000000000000104000000000000000000200000000000000000800200000000000000000200000000000000000000000000000000000000000000000000000000000000000000000000000000008000000000000000000000000000000000000000000000000000000000000000000000000000000000100010000000000000000000000000000020000000000000000000000000000000000000000000000000000000000000000000000000000000000000000000000000000000000000000000000000000000010000000000000000000000000000000100000000000000000000000000000",
      "type": "0x2",
      "transactionHash": "0x01020e60bf6683896db10536f2afca325dc2ffe4be24d20b832f0cbaba8b1b30",
      "transactionIndex": "0x55",
      "blockHash": "0x40ccbfc407ac18079fedf144930cd4c4730a695ad4242d4ac44096ddf60ee562",
      "blockNumber": "0x13d88ad",
      "gasUsed": "0x7b23",
      "effectiveGasPrice": "0x6b932c",
      "from": "0x8f7714ddfecbeff5f3400a012eba53dab3bf0000",
      "to": "0x04c0599ae5a44757c0af6f9ec3b93da8976c150a",
      "contractAddress": null,
      "l1BaseFeeScalar": "0x8dd",
      "l1BlobBaseFee": "0x1",
      "l1BlobBaseFeeScalar": "0x101c12",
      "l1Fee": "0x2071964c19",
      "l1GasPrice": "0x8efc9d61e",
      "l1GasUsed": "0x640"
    },
    {
      "status": "0x1",
      "cumulativeGasUsed": "0x15bbe87",
      "logs": [
        {
          "address": "0x04c0599ae5a44757c0af6f9ec3b93da8976c150a",
          "topics": [
            "0xddf252ad1be2c89b69c2b068fc378daa952ba7f163c4a11628f55a4df523b3ef",
            "0x0000000000000000000000008f7714ddfecbeff5f3400a012eba53dab3bf0000",
            "0x0000000000000000000000000000000000000000000000000000000000000000"
          ],
          "data": "0x0000000000000000000000000000000000000000000000000000048c27395000",
          "blockHash": "0x40ccbfc407ac18079fedf144930cd4c4730a695ad4242d4ac44096ddf60ee562",
          "blockNumber": "0x13d88ad",
          "transactionHash": "0x60e1659e497f3943f6b78312e23c2fb8e6effc8db84b6dee2a74416c66a15e31",
          "transactionIndex": "0x58",
          "logIndex": "0xe4",
          "removed": false
        },
        {
          "address": "0xb5320b0b3a13cc860893e2bd79fcd7e13484dda2",
          "topics": [
            "0x61ed099e74a97a1d7f8bb0952a88ca8b7b8ebd00c126ea04671f92a81213318a"
          ],
          "data": "0x0000000000000000000000002cca08ae69e0c44b18a57ab2a87644234daebae40000000000000000000000000000000000000000000000000000f367827cd276",
          "blockHash": "0x40ccbfc407ac18079fedf144930cd4c4730a695ad4242d4ac44096ddf60ee562",
          "blockNumber": "0x13d88ad",
          "transactionHash": "0x60e1659e497f3943f6b78312e23c2fb8e6effc8db84b6dee2a74416c66a15e31",
          "transactionIndex": "0x58",
          "logIndex": "0xe5",
          "removed": false
        },
        {
          "address": "0xb5320b0b3a13cc860893e2bd79fcd7e13484dda2",
          "topics": [
            "0x07ea52d82345d6e838192107d8fd7123d9c2ec8e916cd0aad13fd2b60db24644"
          ],
          "data": "0x000000000000000000000000000000000000000000000000000000000000006000000000000000000000000000000000000000000000000000000000000000c000000000000000000000000000000000000000000000000000000000000000e000000000000000000000000000000000000000000000000000000000000000020000000000000000000000009e059a54699a285714207b43b055483e78faac25000000000000000000000000cd37ca043f8479064e10635020c65ffc005d36f600000000000000000000000000000000000000000000000000000000000000000000000000000000000000000000000000000000000000000000000000000002000000000000000000000000000000000000000000000000000009d7a6d8ca50000000000000000000000000000000000000000000000000000009b96374a250",
          "blockHash": "0x40ccbfc407ac18079fedf144930cd4c4730a695ad4242d4ac44096ddf60ee562",
          "blockNumber": "0x13d88ad",
          "transactionHash": "0x60e1659e497f3943f6b78312e23c2fb8e6effc8db84b6dee2a74416c66a15e31",
          "transactionIndex": "0x58",
          "logIndex": "0xe6",
          "removed": false
        },
        {
          "address": "0x1a44076050125825900e736c501f859c50fe728c",
          "topics": [
            "0x1ab700d4ced0c005b164c0f789fd09fcbb0156d4c2041b8a3bfbcd961cd1567f"
          ],
          "data": "0x00000000000000000000000000000000000000000000000000000000000000600000000000000000000000000000000000000000000000000000000000000120000000000000000000000000b5320b0b3a13cc860893e2bd79fcd7e13484dda20000000000000000000000000000000000000000000000000000000000000099010000000000000c95000075e800000000000000000000000004c0599ae5a44757c0af6f9ec3b93da8976c150a0000760600000000000000000000000001f0a31698c4d065659b9bdc21b3610292a1c506837e18b1bbdae55aa070e66f477c78e61b8d178e9b93b7c379420ec227cf3ff10000000000000000000000008f7714ddfecbeff5f3400a012eba53dab3bf00000000000000000005000000000000000000000000000000000000000000000000000000000000000000000000000016000301001101000000000000000000000000000f424000000000000000000000",
          "blockHash": "0x40ccbfc407ac18079fedf144930cd4c4730a695ad4242d4ac44096ddf60ee562",
          "blockNumber": "0x13d88ad",
          "transactionHash": "0x60e1659e497f3943f6b78312e23c2fb8e6effc8db84b6dee2a74416c66a15e31",
          "transactionIndex": "0x58",
          "logIndex": "0xe7",
          "removed": false
        },
        {
          "address": "0x04c0599ae5a44757c0af6f9ec3b93da8976c150a",
          "topics": [
            "0x85496b760a4b7f8d66384b9df21b381f5d1b1e79f229a47aaf4c232edc2fe59a",
            "0x837e18b1bbdae55aa070e66f477c78e61b8d178e9b93b7c379420ec227cf3ff1",
            "0x0000000000000000000000008f7714ddfecbeff5f3400a012eba53dab3bf0000"
          ],
          "data": "0x00000000000000000000000000000000000000000000000000000000000076060000000000000000000000000000000000000000000000000000048c273950000000000000000000000000000000000000000000000000000000048c27395000",
          "blockHash": "0x40ccbfc407ac18079fedf144930cd4c4730a695ad4242d4ac44096ddf60ee562",
          "blockNumber": "0x13d88ad",
          "transactionHash": "0x60e1659e497f3943f6b78312e23c2fb8e6effc8db84b6dee2a74416c66a15e31",
          "transactionIndex": "0x58",
          "logIndex": "0xe8",
          "removed": false
        }
      ],
      "logsBloom": "0x00000000000000000000000000000000000000004000000000000000001000104000000000000000000000000000000000000800000000000000000000000000000002000000000000000408000000000000000000000000000000000000000100000000020008008000000000000800000000000010000000000010000000000000000000000000000000080000000100010000000000000004000000000000000000008000000000100000000000000000000008400000000440000000000001000002000000000000000080000000000000000000000000000000000020000000040000000000000000000000002000000000018000000000000000000000",
      "type": "0x2",
      "transactionHash": "0x60e1659e497f3943f6b78312e23c2fb8e6effc8db84b6dee2a74416c66a15e31",
      "transactionIndex": "0x58",
      "blockHash": "0x40ccbfc407ac18079fedf144930cd4c4730a695ad4242d4ac44096ddf60ee562",
      "blockNumber": "0x13d88ad",
      "gasUsed": "0x45119",
      "effectiveGasPrice": "0x6b932c",
      "from": "0x8f7714ddfecbeff5f3400a012eba53dab3bf0000",
      "to": "0x04c0599ae5a44757c0af6f9ec3b93da8976c150a",
      "contractAddress": null,
      "l1BaseFeeScalar": "0x8dd",
      "l1BlobBaseFee": "0x1",
      "l1BlobBaseFeeScalar": "0x101c12",
      "l1Fee": "0x305512ef3b",
      "l1GasPrice": "0x8efc9d61e",
      "l1GasUsed": "0x94f"
    }
  ],
  "libraries": [],
  "pending": [],
  "returns": {},
  "timestamp": 1728409154,
  "chain": 8453,
  "commit": "bc04ada"
}