{
  "transactions": [
    {
      "hash": "0x93b9f996da3a2d3638885f6e05582473c4520ff4ce1c6857b39371c38dea61fa",
      "transactionType": "CALL",
      "contractName": null,
      "contractAddress": "0x04c0599ae5a44757c0af6f9ec3b93da8976c150a",
      "function": "approve(address,uint256)",
      "arguments": [
        "0x04C0599Ae5A44757c0af6F9eC3b93da8976c150A",
        "5600000000000"
      ],
      "transaction": {
        "from": "0x8f7714ddfecbeff5f3400a012eba53dab3bf0000",
        "to": "0x04c0599ae5a44757c0af6f9ec3b93da8976c150a",
        "gas": "0xc414",
        "value": "0x0",
        "input": "0x095ea7b300000000000000000000000004c0599ae5a44757c0af6f9ec3b93da8976c150a00000000000000000000000000000000000000000000000000000517da02c000",
        "nonce": "0x18",
        "chainId": "0x2105"
      },
      "additionalContracts": [],
      "isFixedGasLimit": false
    },
    {
      "hash": "0x7b723d161f6b13898390317e1ea3bdd32521ba929c49e655e1d1c50b86529be1",
      "transactionType": "CALL",
      "contractName": null,
      "contractAddress": "0x04c0599ae5a44757c0af6f9ec3b93da8976c150a",
      "function": "send((uint32,bytes32,uint256,uint256,bytes,bytes,bytes),(uint256,uint256),address)",
      "arguments": [
        "(30214, 0x0000000000000000000000008f7714ddfecbeff5f3400a012eba53dab3bf0000, 5600000000000, 5000000000000, 0x, 0x, 0x)",
        "(289139560431382, 0)",
        "0x8F7714ddFeCBEfF5F3400a012eBA53dab3Bf0000"
      ],
      "transaction": {
        "from": "0x8f7714ddfecbeff5f3400a012eba53dab3bf0000",
        "to": "0x04c0599ae5a44757c0af6f9ec3b93da8976c150a",
        "gas": "0x5f4d9",
        "value": "0x106f88cca3f16",
        "input": "0xc7c7f5b30000000000000000000000000000000000000000000000000000000000000080000000000000000000000000000000000000000000000000000106f88cca3f1600000000000000000000000000000000000000000000000000000000000000000000000000000000000000008f7714ddfecbeff5f3400a012eba53dab3bf000000000000000000000000000000000000000000000000000000000000000076060000000000000000000000008f7714ddfecbeff5f3400a012eba53dab3bf000000000000000000000000000000000000000000000000000000000517da02c0000000000000000000000000000000000000000000000000000000048c2739500000000000000000000000000000000000000000000000000000000000000000e000000000000000000000000000000000000000000000000000000000000001000000000000000000000000000000000000000000000000000000000000000120000000000000000000000000000000000000000000000000000000000000000000000000000000000000000000000000000000000000000000000000000000000000000000000000000000000000000000000000000000000000000000000000",
        "nonce": "0x19",
        "chainId": "0x2105"
      },
      "additionalContracts": [],
      "isFixedGasLimit": false
    }
  ],
  "receipts": [
    {
      "status": "0x1",
      "cumulativeGasUsed": "0xfd8618",
      "logs": [
        {
          "address": "0x04c0599ae5a44757c0af6f9ec3b93da8976c150a",
          "topics": [
            "0x8c5be1e5ebec7d5bd14f71427d1e84f3dd0314c0f7b2291e5b200ac8c7c3b925",
            "0x0000000000000000000000008f7714ddfecbeff5f3400a012eba53dab3bf0000",
            "0x00000000000000000000000004c0599ae5a44757c0af6f9ec3b93da8976c150a"
          ],
          "data": "0x00000000000000000000000000000000000000000000000000000517da02c000",
          "blockHash": "0x202d077e01129ac9beabe9cc7227f4b1da99d88241e613b79acc5aa3e221f584",
          "blockNumber": "0x13d19fd",
          "transactionHash": "0x93b9f996da3a2d3638885f6e05582473c4520ff4ce1c6857b39371c38dea61fa",
          "transactionIndex": "0x7d",
          "logIndex": "0x175",
          "removed": false
        }
      ],
      "logsBloom": "0x00000000000000000000000000000000000000000000000000000000000000104000000000000000000200000000000000000800200000000000000000200000000000000000000000000000000000000000000000000000000000000000000000000000000008000000000000000000000000000000000000000000000000000000000000000000000000000000000100010000000000000000000000000000020000000000000000000000000000000000000000000000000000000000000000000000000000000000000000000000000000000000000000000000000000000010000000000000000000000000000000100000000000000000000000000000",
      "type": "0x2",
      "transactionHash": "0x93b9f996da3a2d3638885f6e05582473c4520ff4ce1c6857b39371c38dea61fa",
      "transactionIndex": "0x7d",
      "blockHash": "0x202d077e01129ac9beabe9cc7227f4b1da99d88241e613b79acc5aa3e221f584",
      "blockNumber": "0x13d19fd",
      "gasUsed": "0x8613",
      "effectiveGasPrice": "0x4f6d97",
      "from": "0x8f7714ddfecbeff5f3400a012eba53dab3bf0000",
      "to": "0x04c0599ae5a44757c0af6f9ec3b93da8976c150a",
      "contractAddress": null,
      "l1BaseFeeScalar": "0x8dd",
      "l1BlobBaseFee": "0x1",
      "l1BlobBaseFeeScalar": "0x101c12",
      "l1Fee": "0x67e1367b0",
      "l1GasPrice": "0x1c9d25909",
      "l1GasUsed": "0x640"
    },
    {
      "status": "0x1",
      "cumulativeGasUsed": "0x101d60f",
      "logs": [
        {
          "address": "0x04c0599ae5a44757c0af6f9ec3b93da8976c150a",
          "topics": [
            "0xddf252ad1be2c89b69c2b068fc378daa952ba7f163c4a11628f55a4df523b3ef",
            "0x0000000000000000000000008f7714ddfecbeff5f3400a012eba53dab3bf0000",
            "0x0000000000000000000000000000000000000000000000000000000000000000"
          ],
          "data": "0x0000000000000000000000000000000000000000000000000000048c27395000",
          "blockHash": "0x202d077e01129ac9beabe9cc7227f4b1da99d88241e613b79acc5aa3e221f584",
          "blockNumber": "0x13d19fd",
          "transactionHash": "0x7b723d161f6b13898390317e1ea3bdd32521ba929c49e655e1d1c50b86529be1",
          "transactionIndex": "0x7e",
          "logIndex": "0x176",
          "removed": false
        },
        {
          "address": "0xb5320b0b3a13cc860893e2bd79fcd7e13484dda2",
          "topics": [
            "0x61ed099e74a97a1d7f8bb0952a88ca8b7b8ebd00c126ea04671f92a81213318a"
          ],
          "data": "0x0000000000000000000000002cca08ae69e0c44b18a57ab2a87644234daebae40000000000000000000000000000000000000000000000000000f367827cd276",
          "blockHash": "0x202d077e01129ac9beabe9cc7227f4b1da99d88241e613b79acc5aa3e221f584",
          "blockNumber": "0x13d19fd",
          "transactionHash": "0x7b723d161f6b13898390317e1ea3bdd32521ba929c49e655e1d1c50b86529be1",
          "transactionIndex": "0x7e",
          "logIndex": "0x177",
          "removed": false
        },
        {
          "address": "0xb5320b0b3a13cc860893e2bd79fcd7e13484dda2",
          "topics": [
            "0x07ea52d82345d6e838192107d8fd7123d9c2ec8e916cd0aad13fd2b60db24644"
          ],
          "data": "0x000000000000000000000000000000000000000000000000000000000000006000000000000000000000000000000000000000000000000000000000000000c000000000000000000000000000000000000000000000000000000000000000e000000000000000000000000000000000000000000000000000000000000000020000000000000000000000009e059a54699a285714207b43b055483e78faac25000000000000000000000000cd37ca043f8479064e10635020c65ffc005d36f600000000000000000000000000000000000000000000000000000000000000000000000000000000000000000000000000000000000000000000000000000002000000000000000000000000000000000000000000000000000009d7a6d8ca50000000000000000000000000000000000000000000000000000009b96374a250",
          "blockHash": "0x202d077e01129ac9beabe9cc7227f4b1da99d88241e613b79acc5aa3e221f584",
          "blockNumber": "0x13d19fd",
          "transactionHash": "0x7b723d161f6b13898390317e1ea3bdd32521ba929c49e655e1d1c50b86529be1",
          "transactionIndex": "0x7e",
          "logIndex": "0x178",
          "removed": false
        },
        {
          "address": "0x1a44076050125825900e736c501f859c50fe728c",
          "topics": [
            "0x1ab700d4ced0c005b164c0f789fd09fcbb0156d4c2041b8a3bfbcd961cd1567f"
          ],
          "data": "0x00000000000000000000000000000000000000000000000000000000000000600000000000000000000000000000000000000000000000000000000000000120000000000000000000000000b5320b0b3a13cc860893e2bd79fcd7e13484dda20000000000000000000000000000000000000000000000000000000000000099010000000000000c8f000075e800000000000000000000000004c0599ae5a44757c0af6f9ec3b93da8976c150a0000760600000000000000000000000001f0a31698c4d065659b9bdc21b3610292a1c5062308dcc5d22518410167e06fe3a6e59d424fcb5206bf25942fdafc95e3bb1a920000000000000000000000008f7714ddfecbeff5f3400a012eba53dab3bf00000000000000000005000000000000000000000000000000000000000000000000000000000000000000000000000016000301001101000000000000000000000000000f424000000000000000000000",
          "blockHash": "0x202d077e01129ac9beabe9cc7227f4b1da99d88241e613b79acc5aa3e221f584",
          "blockNumber": "0x13d19fd",
          "transactionHash": "0x7b723d161f6b13898390317e1ea3bdd32521ba929c49e655e1d1c50b86529be1",
          "transactionIndex": "0x7e",
          "logIndex": "0x179",
          "removed": false
        },
        {
          "address": "0x04c0599ae5a44757c0af6f9ec3b93da8976c150a",
          "topics": [
            "0x85496b760a4b7f8d66384b9df21b381f5d1b1e79f229a47aaf4c232edc2fe59a",
            "0x2308dcc5d22518410167e06fe3a6e59d424fcb5206bf25942fdafc95e3bb1a92",
            "0x0000000000000000000000008f7714ddfecbeff5f3400a012eba53dab3bf0000"
          ],
          "data": "0x00000000000000000000000000000000000000000000000000000000000076060000000000000000000000000000000000000000000000000000048c273950000000000000000000000000000000000000000000000000000000048c27395000",
          "blockHash": "0x202d077e01129ac9beabe9cc7227f4b1da99d88241e613b79acc5aa3e221f584",
          "blockNumber": "0x13d19fd",
          "transactionHash": "0x7b723d161f6b13898390317e1ea3bdd32521ba929c49e655e1d1c50b86529be1",
          "transactionIndex": "0x7e",
          "logIndex": "0x17a",
          "removed": false
        }
      ],
      "logsBloom": "0x00000000000000000000000000000000000000000000000000000000001000104000000000000000000000000000000000000800000000020000000000000000000002000000000000000408000000000000000000000000000000000000000100000000020008008000000000000800010000000010000000000010000000000000000000000000000000080000000100010000000000000004000000000000000000008000000000100000000000000000000000400000000440000000000000000002000000000000000080000000000000000000000000000000000020000000040000000000000000000000002000000000018000000000000000000000",
      "type": "0x2",
      "transactionHash": "0x7b723d161f6b13898390317e1ea3bdd32521ba929c49e655e1d1c50b86529be1",
      "transactionIndex": "0x7e",
      "blockHash": "0x202d077e01129ac9beabe9cc7227f4b1da99d88241e613b79acc5aa3e221f584",
      "blockNumber": "0x13d19fd",
      "gasUsed": "0x44ff7",
      "effectiveGasPrice": "0x4f6d97",
      "from": "0x8f7714ddfecbeff5f3400a012eba53dab3bf0000",
      "to": "0x04c0599ae5a44757c0af6f9ec3b93da8976c150a",
      "contractAddress": null,
      "l1BaseFeeScalar": "0x8dd",
      "l1BlobBaseFee": "0x1",
      "l1BlobBaseFeeScalar": "0x101c12",
      "l1Fee": "0x9ac0ae2a5",
      "l1GasPrice": "0x1c9d25909",
      "l1GasUsed": "0x94f"
    }
  ],
  "libraries": [],
  "pending": [],
  "returns": {},
  "timestamp": 1728352482,
  "chain": 8453,
  "commit": "bc04ada"
}