{
  "transactions": [
    {
      "hash": "0x3242c003d13beaa1c55b8c7e9560c186f63f8e04f0ede84c9cc01f3a85289ea7",
      "transactionType": "CALL",
      "contractName": null,
      "contractAddress": "0x04c0599ae5a44757c0af6f9ec3b93da8976c150a",
      "function": "approve(address,uint256)",
      "arguments": [
        "0x04C0599Ae5A44757c0af6F9eC3b93da8976c150A",
        "5600000000000"
      ],
      "transaction": {
        "from": "0x8f7714ddfecbeff5f3400a012eba53dab3bf0000",
        "to": "0x04c0599ae5a44757c0af6f9ec3b93da8976c150a",
        "gas": "0xb415",
        "value": "0x0",
        "input": "0x095ea7b300000000000000000000000004c0599ae5a44757c0af6f9ec3b93da8976c150a00000000000000000000000000000000000000000000000000000517da02c000",
        "nonce": "0x1a",
        "chainId": "0x2105"
      },
      "additionalContracts": [],
      "isFixedGasLimit": false
    },
    {
      "hash": "0x8f2771368073c15b0b45edf831ecf4117aff78002324cce916b90058c0898d73",
      "transactionType": "CALL",
      "contractName": null,
      "contractAddress": "0x04c0599ae5a44757c0af6f9ec3b93da8976c150a",
      "function": "send((uint32,bytes32,uint256,uint256,bytes,bytes,bytes),(uint256,uint256),address)",
      "arguments": [
        "(30101, 0x0000000000000000000000008f7714ddfecbeff5f3400a012eba53dab3bf0000, 5600000000000, 5000000000000, 0x, 0x, 0x)",
        "(57760399838702106, 0)",
        "0x8F7714ddFeCBEfF5F3400a012eBA53dab3Bf0000"
      ],
      "transaction": {
        "from": "0x8f7714ddfecbeff5f3400a012eba53dab3bf0000",
        "to": "0x04c0599ae5a44757c0af6f9ec3b93da8976c150a",
        "gas": "0x65092",
        "value": "0xcd34c712786a1a",
        "input": "0xc7c7f5b3000000000000000000000000000000000000000000000000000000000000008000000000000000000000000000000000000000000000000000cd34c712786a1a00000000000000000000000000000000000000000000000000000000000000000000000000000000000000008f7714ddfecbeff5f3400a012eba53dab3bf000000000000000000000000000000000000000000000000000000000000000075950000000000000000000000008f7714ddfecbeff5f3400a012eba53dab3bf000000000000000000000000000000000000000000000000000000000517da02c0000000000000000000000000000000000000000000000000000000048c2739500000000000000000000000000000000000000000000000000000000000000000e000000000000000000000000000000000000000000000000000000000000001000000000000000000000000000000000000000000000000000000000000000120000000000000000000000000000000000000000000000000000000000000000000000000000000000000000000000000000000000000000000000000000000000000000000000000000000000000000000000000000000000000000000000000",
        "nonce": "0x1b",
        "chainId": "0x2105"
      },
      "additionalContracts": [],
      "isFixedGasLimit": false
    }
  ],
  "receipts": [
    {
      "status": "0x1",
      "cumulativeGasUsed": "0x11044e7",
      "logs": [
        {
          "address": "0x04c0599ae5a44757c0af6f9ec3b93da8976c150a",
          "topics": [
            "0x8c5be1e5ebec7d5bd14f71427d1e84f3dd0314c0f7b2291e5b200ac8c7c3b925",
            "0x0000000000000000000000008f7714ddfecbeff5f3400a012eba53dab3bf0000",
            "0x00000000000000000000000004c0599ae5a44757c0af6f9ec3b93da8976c150a"
          ],
          "data": "0x00000000000000000000000000000000000000000000000000000517da02c000",
          "blockHash": "0x0ea101a14603023fe82b71cc247c14b48c8d773bc6fdc282a0db35b00444199a",
          "blockNumber": "0x13d8599",
          "transactionHash": "0x3242c003d13beaa1c55b8c7e9560c186f63f8e04f0ede84c9cc01f3a85289ea7",
          "transactionIndex": "0x83",
          "logIndex": "0x15a",
          "removed": false
        }
      ],
      "logsBloom": "0x00000000000000000000000000000000000000000000000000000000000000104000000000000000000200000000000000000800200000000000000000200000000000000000000000000000000000000000000000000000000000000000000000000000000008000000000000000000000000000000000000000000000000000000000000000000000000000000000100010000000000000000000000000000020000000000000000000000000000000000000000000000000000000000000000000000000000000000000000000000000000000000000000000000000000000010000000000000000000000000000000100000000000000000000000000000",
      "type": "0x2",
      "transactionHash": "0x3242c003d13beaa1c55b8c7e9560c186f63f8e04f0ede84c9cc01f3a85289ea7",
      "transactionIndex": "0x83",
      "blockHash": "0x0ea101a14603023fe82b71cc247c14b48c8d773bc6fdc282a0db35b00444199a",
      "blockNumber": "0x13d8599",
      "gasUsed": "0x7b23",
      "effectiveGasPrice": "0xa8d271",
      "from": "0x8f7714ddfecbeff5f3400a012eba53dab3bf0000",
      "to": "0x04c0599ae5a44757c0af6f9ec3b93da8976c150a",
      "contractAddress": null,
      "l1BaseFeeScalar": "0x8dd",
      "l1BlobBaseFee": "0x1",
      "l1BlobBaseFeeScalar": "0x101c12",
      "l1Fee": "0x1ce0ec8006",
      "l1GasPrice": "0x7f464cbf0",
      "l1GasUsed": "0x640"
    },
    {
      "status": "0x1",
      "cumulativeGasUsed": "0x114d746",
      "logs": [
        {
          "address": "0x04c0599ae5a44757c0af6f9ec3b93da8976c150a",
          "topics": [
            "0xddf252ad1be2c89b69c2b068fc378daa952ba7f163c4a11628f55a4df523b3ef",
            "0x0000000000000000000000008f7714ddfecbeff5f3400a012eba53dab3bf0000",
            "0x0000000000000000000000000000000000000000000000000000000000000000"
          ],
          "data": "0x0000000000000000000000000000000000000000000000000000048c27395000",
          "blockHash": "0x0ea101a14603023fe82b71cc247c14b48c8d773bc6fdc282a0db35b00444199a",
          "blockNumber": "0x13d8599",
          "transactionHash": "0x8f2771368073c15b0b45edf831ecf4117aff78002324cce916b90058c0898d73",
          "transactionIndex": "0x84",
          "logIndex": "0x15b",
          "removed": false
        },
        {
          "address": "0xb5320b0b3a13cc860893e2bd79fcd7e13484dda2",
          "topics": [
            "0x61ed099e74a97a1d7f8bb0952a88ca8b7b8ebd00c126ea04671f92a81213318a"
          ],
          "data": "0x0000000000000000000000002cca08ae69e0c44b18a57ab2a87644234daebae400000000000000000000000000000000000000000000000000b29748ea6006ee",
          "blockHash": "0x0ea101a14603023fe82b71cc247c14b48c8d773bc6fdc282a0db35b00444199a",
          "blockNumber": "0x13d8599",
          "transactionHash": "0x8f2771368073c15b0b45edf831ecf4117aff78002324cce916b90058c0898d73",
          "transactionIndex": "0x84",
          "logIndex": "0x15c",
          "removed": false
        },
        {
          "address": "0xb5320b0b3a13cc860893e2bd79fcd7e13484dda2",
          "topics": [
            "0x07ea52d82345d6e838192107d8fd7123d9c2ec8e916cd0aad13fd2b60db24644"
          ],
          "data": "0x000000000000000000000000000000000000000000000000000000000000006000000000000000000000000000000000000000000000000000000000000000c000000000000000000000000000000000000000000000000000000000000000e000000000000000000000000000000000000000000000000000000000000000020000000000000000000000009e059a54699a285714207b43b055483e78faac25000000000000000000000000cd37ca043f8479064e10635020c65ffc005d36f600000000000000000000000000000000000000000000000000000000000000000000000000000000000000000000000000000000000000000000000000000002000000000000000000000000000000000000000000000000000d5987cb0d2b56000000000000000000000000000000000000000000000000000d43f65d0b37d6",
          "blockHash": "0x0ea101a14603023fe82b71cc247c14b48c8d773bc6fdc282a0db35b00444199a",
          "blockNumber": "0x13d8599",
          "transactionHash": "0x8f2771368073c15b0b45edf831ecf4117aff78002324cce916b90058c0898d73",
          "transactionIndex": "0x84",
          "logIndex": "0x15d",
          "removed": false
        },
        {
          "address": "0x1a44076050125825900e736c501f859c50fe728c",
          "topics": [
            "0x1ab700d4ced0c005b164c0f789fd09fcbb0156d4c2041b8a3bfbcd961cd1567f"
          ],
          "data": "0x00000000000000000000000000000000000000000000000000000000000000600000000000000000000000000000000000000000000000000000000000000120000000000000000000000000b5320b0b3a13cc860893e2bd79fcd7e13484dda20000000000000000000000000000000000000000000000000000000000000099010000000000000001000075e800000000000000000000000004c0599ae5a44757c0af6f9ec3b93da8976c150a00007595000000000000000000000000cd2eb13d6831d4602d80e5db9230a57596cdca63edf921908c7f79bdcf35ce5c509c851a72e967c7135ed81d0d72abcde1b20c6b0000000000000000000000008f7714ddfecbeff5f3400a012eba53dab3bf00000000000000000005000000000000000000000000000000000000000000000000000000000000000000000000000016000301001101000000000000000000000000000f424000000000000000000000",
          "blockHash": "0x0ea101a14603023fe82b71cc247c14b48c8d773bc6fdc282a0db35b00444199a",
          "blockNumber": "0x13d8599",
          "transactionHash": "0x8f2771368073c15b0b45edf831ecf4117aff78002324cce916b90058c0898d73",
          "transactionIndex": "0x84",
          "logIndex": "0x15e",
          "removed": false
        },
        {
          "address": "0x04c0599ae5a44757c0af6f9ec3b93da8976c150a",
          "topics": [
            "0x85496b760a4b7f8d66384b9df21b381f5d1b1e79f229a47aaf4c232edc2fe59a",
            "0xedf921908c7f79bdcf35ce5c509c851a72e967c7135ed81d0d72abcde1b20c6b",
            "0x0000000000000000000000008f7714ddfecbeff5f3400a012eba53dab3bf0000"
          ],
          "data": "0x00000000000000000000000000000000000000000000000000000000000075950000000000000000000000000000000000000000000000000000048c273950000000000000000000000000000000000000000000000000000000048c27395000",
          "blockHash": "0x0ea101a14603023fe82b71cc247c14b48c8d773bc6fdc282a0db35b00444199a",
          "blockNumber": "0x13d8599",
          "transactionHash": "0x8f2771368073c15b0b45edf831ecf4117aff78002324cce916b90058c0898d73",
          "transactionIndex": "0x84",
          "logIndex": "0x15f",
          "removed": false
        }
      ],
      "logsBloom": "0x00000000000000000000000000000000000000000000000000000000001000104000000000000000000000000000000000000800000000000000000000000000000002000000000000040408000000000000000000000000000000000000000100000000020008008000000000000800000000100010000000000010000000000000000000000000000000080000000100010000000000000004000000000000000000008000000000100000000000000000000000400000000440000000000000000002000000000000000080000000000000000000000000000000000020000000140000000000000000000000002000000000018000000000000000000000",
      "type": "0x2",
      "transactionHash": "0x8f2771368073c15b0b45edf831ecf4117aff78002324cce916b90058c0898d73",
      "transactionIndex": "0x84",
      "blockHash": "0x0ea101a14603023fe82b71cc247c14b48c8d773bc6fdc282a0db35b00444199a",
      "blockNumber": "0x13d8599",
      "gasUsed": "0x4925f",
      "effectiveGasPrice": "0xa8d271",
      "from": "0x8f7714ddfecbeff5f3400a012eba53dab3bf0000",
      "to": "0x04c0599ae5a44757c0af6f9ec3b93da8976c150a",
      "contractAddress": null,
      "l1BaseFeeScalar": "0x8dd",
      "l1BlobBaseFee": "0x1",
      "l1BlobBaseFeeScalar": "0x101c12",
      "l1Fee": "0x2b434b79f9",
      "l1GasPrice": "0x7f464cbf0",
      "l1GasUsed": "0x95c"
    }
  ],
  "libraries": [],
  "pending": [],
  "returns": {},
  "timestamp": 1728407579,
  "chain": 8453,
  "commit": "bc04ada"
}