{
  "transactions": [
    {
      "hash": "0x1828a40046103163d126d269a913eac1b08e78ee009d96eb413b7745b6995c56",
      "transactionType": "CALL",
      "contractName": null,
      "contractAddress": "0x04c0599ae5a44757c0af6f9ec3b93da8976c150a",
      "function": "approve(address,uint256)",
      "arguments": [
        "0x04C0599Ae5A44757c0af6F9eC3b93da8976c150A",
        "5600000000000"
      ],
      "transaction": {
        "from": "0x8f7714ddfecbeff5f3400a012eba53dab3bf0000",
        "to": "0x04c0599ae5a44757c0af6f9ec3b93da8976c150a",
        "gas": "0xb415",
        "value": "0x0",
        "input": "0x095ea7b300000000000000000000000004c0599ae5a44757c0af6f9ec3b93da8976c150a00000000000000000000000000000000000000000000000000000517da02c000",
        "nonce": "0x1c",
        "chainId": "0x2105"
      },
      "additionalContracts": [],
      "isFixedGasLimit": false
    },
    {
      "hash": "0xefb10338b7cc4054010457a719483483faa837e838b48f9345d0bb30b27b39a2",
      "transactionType": "CALL",
      "contractName": null,
      "contractAddress": "0x04c0599ae5a44757c0af6f9ec3b93da8976c150a",
      "function": "send((uint32,bytes32,uint256,uint256,bytes,bytes,bytes),(uint256,uint256),address)",
      "arguments": [
        "(30111, 0x0000000000000000000000008f7714ddfecbeff5f3400a012eba53dab3bf0000, 5600000000000, 5000000000000, 0x, 0x, 0x)",
        "(33835671872395, 0)",
        "0x8F7714ddFeCBEfF5F3400a012eBA53dab3Bf0000"
      ],
      "transaction": {
        "from": "0x8f7714ddfecbeff5f3400a012eba53dab3bf0000",
        "to": "0x04c0599ae5a44757c0af6f9ec3b93da8976c150a",
        "gas": "0x626d4",
        "value": "0x1ec5fb33e38b",
        "input": "0xc7c7f5b3000000000000000000000000000000000000000000000000000000000000008000000000000000000000000000000000000000000000000000001ec5fb33e38b00000000000000000000000000000000000000000000000000000000000000000000000000000000000000008f7714ddfecbeff5f3400a012eba53dab3bf0000000000000000000000000000000000000000000000000000000000000000759f0000000000000000000000008f7714ddfecbeff5f3400a012eba53dab3bf000000000000000000000000000000000000000000000000000000000517da02c0000000000000000000000000000000000000000000000000000000048c2739500000000000000000000000000000000000000000000000000000000000000000e000000000000000000000000000000000000000000000000000000000000001000000000000000000000000000000000000000000000000000000000000000120000000000000000000000000000000000000000000000000000000000000000000000000000000000000000000000000000000000000000000000000000000000000000000000000000000000000000000000000000000000000000000000000",
        "nonce": "0x1d",
        "chainId": "0x2105"
      },
      "additionalContracts": [],
      "isFixedGasLimit": false
    }
  ],
  "receipts": [
    {
      "status": "0x1",
      "cumulativeGasUsed": "0x14c0bea",
      "logs": [
        {
          "address": "0x04c0599ae5a44757c0af6f9ec3b93da8976c150a",
          "topics": [
            "0x8c5be1e5ebec7d5bd14f71427d1e84f3dd0314c0f7b2291e5b200ac8c7c3b925",
            "0x0000000000000000000000008f7714ddfecbeff5f3400a012eba53dab3bf0000",
            "0x00000000000000000000000004c0599ae5a44757c0af6f9ec3b93da8976c150a"
          ],
          "data": "0x00000000000000000000000000000000000000000000000000000517da02c000",
          "blockHash": "0x1e54226b3461ff0cf0d8dba91130b9a3d812b5544d59aacd696a2436f85274e5",
          "blockNumber": "0x13d85eb",
          "transactionHash": "0x1828a40046103163d126d269a913eac1b08e78ee009d96eb413b7745b6995c56",
          "transactionIndex": "0x7d",
          "logIndex": "0x198",
          "removed": false
        }
      ],
      "logsBloom": "0x00000000000000000000000000000000000000000000000000000000000000104000000000000000000200000000000000000800200000000000000000200000000000000000000000000000000000000000000000000000000000000000000000000000000008000000000000000000000000000000000000000000000000000000000000000000000000000000000100010000000000000000000000000000020000000000000000000000000000000000000000000000000000000000000000000000000000000000000000000000000000000000000000000000000000000010000000000000000000000000000000100000000000000000000000000000",
      "type": "0x2",
      "transactionHash": "0x1828a40046103163d126d269a913eac1b08e78ee009d96eb413b7745b6995c56",
      "transactionIndex": "0x7d",
      "blockHash": "0x1e54226b3461ff0cf0d8dba91130b9a3d812b5544d59aacd696a2436f85274e5",
      "blockNumber": "0x13d85eb",
      "gasUsed": "0x7b23",
      "effectiveGasPrice": "0xa33345",
      "from": "0x8f7714ddfecbeff5f3400a012eba53dab3bf0000",
      "to": "0x04c0599ae5a44757c0af6f9ec3b93da8976c150a",
      "contractAddress": null,
      "l1BaseFeeScalar": "0x8dd",
      "l1BlobBaseFee": "0x1",
      "l1BlobBaseFeeScalar": "0x101c12",
      "l1Fee": "0x1df9e81286",
      "l1GasPrice": "0x841ca7933",
      "l1GasUsed": "0x640"
    },
    {
      "status": "0x1",
      "cumulativeGasUsed": "0x1508010",
      "logs": [
        {
          "address": "0x04c0599ae5a44757c0af6f9ec3b93da8976c150a",
          "topics": [
            "0xddf252ad1be2c89b69c2b068fc378daa952ba7f163c4a11628f55a4df523b3ef",
            "0x0000000000000000000000008f7714ddfecbeff5f3400a012eba53dab3bf0000",
            "0x0000000000000000000000000000000000000000000000000000000000000000"
          ],
          "data": "0x0000000000000000000000000000000000000000000000000000048c27395000",
          "blockHash": "0x1e54226b3461ff0cf0d8dba91130b9a3d812b5544d59aacd696a2436f85274e5",
          "blockNumber": "0x13d85eb",
          "transactionHash": "0xefb10338b7cc4054010457a719483483faa837e838b48f9345d0bb30b27b39a2",
          "transactionIndex": "0x7e",
          "logIndex": "0x199",
          "removed": false
        },
        {
          "address": "0xb5320b0b3a13cc860893e2bd79fcd7e13484dda2",
          "topics": [
            "0x61ed099e74a97a1d7f8bb0952a88ca8b7b8ebd00c126ea04671f92a81213318a"
          ],
          "data": "0x0000000000000000000000002cca08ae69e0c44b18a57ab2a87644234daebae400000000000000000000000000000000000000000000000000001dc92b3556bf",
          "blockHash": "0x1e54226b3461ff0cf0d8dba91130b9a3d812b5544d59aacd696a2436f85274e5",
          "blockNumber": "0x13d85eb",
          "transactionHash": "0xefb10338b7cc4054010457a719483483faa837e838b48f9345d0bb30b27b39a2",
          "transactionIndex": "0x7e",
          "logIndex": "0x19a",
          "removed": false
        },
        {
          "address": "0xb5320b0b3a13cc860893e2bd79fcd7e13484dda2",
          "topics": [
            "0x07ea52d82345d6e838192107d8fd7123d9c2ec8e916cd0aad13fd2b60db24644"
          ],
          "data": "0x000000000000000000000000000000000000000000000000000000000000006000000000000000000000000000000000000000000000000000000000000000c000000000000000000000000000000000000000000000000000000000000000e000000000000000000000000000000000000000000000000000000000000000020000000000000000000000009e059a54699a285714207b43b055483e78faac25000000000000000000000000cd37ca043f8479064e10635020c65ffc005d36f600000000000000000000000000000000000000000000000000000000000000000000000000000000000000000000000000000000000000000000000000000002000000000000000000000000000000000000000000000000000000801ef679990000000000000000000000000000000000000000000000000000007cb1081333",
          "blockHash": "0x1e54226b3461ff0cf0d8dba91130b9a3d812b5544d59aacd696a2436f85274e5",
          "blockNumber": "0x13d85eb",
          "transactionHash": "0xefb10338b7cc4054010457a719483483faa837e838b48f9345d0bb30b27b39a2",
          "transactionIndex": "0x7e",
          "logIndex": "0x19b",
          "removed": false
        },
        {
          "address": "0x1a44076050125825900e736c501f859c50fe728c",
          "topics": [
            "0x1ab700d4ced0c005b164c0f789fd09fcbb0156d4c2041b8a3bfbcd961cd1567f"
          ],
          "data": "0x00000000000000000000000000000000000000000000000000000000000000600000000000000000000000000000000000000000000000000000000000000120000000000000000000000000b5320b0b3a13cc860893e2bd79fcd7e13484dda200000000000000000000000000000000000000000000000000000000000000990100000000000000e4000075e800000000000000000000000004c0599ae5a44757c0af6f9ec3b93da8976c150a0000759f0000000000000000000000005a7facb970d094b6c7ff1df0ea68d99e6e73cbffb15f02133f5777542099b6ebc5f2f123a65d955b203373a5286e2a293d79b7d60000000000000000000000008f7714ddfecbeff5f3400a012eba53dab3bf00000000000000000005000000000000000000000000000000000000000000000000000000000000000000000000000016000301001101000000000000000000000000000f424000000000000000000000",
          "blockHash": "0x1e54226b3461ff0cf0d8dba91130b9a3d812b5544d59aacd696a2436f85274e5",
          "blockNumber": "0x13d85eb",
          "transactionHash": "0xefb10338b7cc4054010457a719483483faa837e838b48f9345d0bb30b27b39a2",
          "transactionIndex": "0x7e",
          "logIndex": "0x19c",
          "removed": false
        },
        {
          "address": "0x04c0599ae5a44757c0af6f9ec3b93da8976c150a",
          "topics": [
            "0x85496b760a4b7f8d66384b9df21b381f5d1b1e79f229a47aaf4c232edc2fe59a",
            "0xb15f02133f5777542099b6ebc5f2f123a65d955b203373a5286e2a293d79b7d6",
            "0x0000000000000000000000008f7714ddfecbeff5f3400a012eba53dab3bf0000"
          ],
          "data": "0x000000000000000000000000000000000000000000000000000000000000759f0000000000000000000000000000000000000000000000000000048c273950000000000000000000000000000000000000000000000000000000048c27395000",
          "blockHash": "0x1e54226b3461ff0cf0d8dba91130b9a3d812b5544d59aacd696a2436f85274e5",
          "blockNumber": "0x13d85eb",
          "transactionHash": "0xefb10338b7cc4054010457a719483483faa837e838b48f9345d0bb30b27b39a2",
          "transactionIndex": "0x7e",
          "logIndex": "0x19d",
          "removed": false
        }
      ],
      "logsBloom": "0x00000000000000000000000000000000000000000000000000000000001000104000000000000000000000000000000000000800000000000000000000000000000002000000000000000408000000000000000000000000000000000000000100000000020008008000000000000800000000000010000000000010000000400000000000000000000000080000000100010000000000000004000000000000000000008000000000100000000000000000000000400000000440000000000000000002000040000000000080000000001000000000000000000000000020000000040000000000000000000000002000000000018000000000000000000000",
      "type": "0x2",
      "transactionHash": "0xefb10338b7cc4054010457a719483483faa837e838b48f9345d0bb30b27b39a2",
      "transactionIndex": "0x7e",
      "blockHash": "0x1e54226b3461ff0cf0d8dba91130b9a3d812b5544d59aacd696a2436f85274e5",
      "blockNumber": "0x13d85eb",
      "gasUsed": "0x47426",
      "effectiveGasPrice": "0xa33345",
      "from": "0x8f7714ddfecbeff5f3400a012eba53dab3bf0000",
      "to": "0x04c0599ae5a44757c0af6f9ec3b93da8976c150a",
      "contractAddress": null,
      "l1BaseFeeScalar": "0x8dd",
      "l1BlobBaseFee": "0x1",
      "l1BlobBaseFeeScalar": "0x101c12",
      "l1Fee": "0x2ca80a85db",
      "l1GasPrice": "0x841ca7933",
      "l1GasUsed": "0x94f"
    }
  ],
  "libraries": [],
  "pending": [],
  "returns": {},
  "timestamp": 1728407743,
  "chain": 8453,
  "commit": "bc04ada"
}