{
  "transactions": [
    {
      "hash": "0x91b36b489fa3398dec2685d139e68c86cf2acbf8aa14a4636959c4a65421a0e5",
      "transactionType": "CALL",
      "contractName": null,
      "contractAddress": "0x04c0599ae5a44757c0af6f9ec3b93da8976c150a",
      "function": "approve(address,uint256)",
      "arguments": [
        "0x04C0599Ae5A44757c0af6F9eC3b93da8976c150A",
        "20631870000000000"
      ],
      "transaction": {
        "from": "0x8f7714ddfecbeff5f3400a012eba53dab3bf0000",
        "to": "0x04c0599ae5a44757c0af6f9ec3b93da8976c150a",
        "gas": "0xb940",
        "value": "0x0",
        "input": "0x095ea7b300000000000000000000000004c0599ae5a44757c0af6f9ec3b93da8976c150a00000000000000000000000000000000000000000000000000494c939266ec00",
        "nonce": "0xb",
        "chainId": "0x2105"
      },
      "additionalContracts": [],
      "isFixedGasLimit": false
    },
    {
      "hash": "0xec305fa4eb7e77f0ee0064f69e13600d5e5ff8c0aa906f1e4928f4407dfdfd56",
      "transactionType": "CALL",
      "contractName": null,
      "contractAddress": "0x04c0599ae5a44757c0af6f9ec3b93da8976c150a",
      "function": "send((uint32,bytes32,uint256,uint256,bytes,bytes,bytes),(uint256,uint256),address)",
      "arguments": [
        "(30303, 0x0000000000000000000000008f7714ddfecbeff5f3400a012eba53dab3bf0000, 20631870000000000, 20000000000000000, 0x, 0x, 0x)",
        "(10020493788077, 0)",
        "0x8F7714ddFeCBEfF5F3400a012eBA53dab3Bf0000"
      ],
      "transaction": {
        "from": "0x8f7714ddfecbeff5f3400a012eba53dab3bf0000",
        "to": "0x04c0599ae5a44757c0af6f9ec3b93da8976c150a",
        "gas": "0x65034",
        "value": "0x91d13f903ad",
        "input": "0xc7c7f5b300000000000000000000000000000000000000000000000000000000000000800000000000000000000000000000000000000000000000000000091d13f903ad00000000000000000000000000000000000000000000000000000000000000000000000000000000000000008f7714ddfecbeff5f3400a012eba53dab3bf0000000000000000000000000000000000000000000000000000000000000000765f0000000000000000000000008f7714ddfecbeff5f3400a012eba53dab3bf000000000000000000000000000000000000000000000000000000494c939266ec0000000000000000000000000000000000000000000000000000470de4df82000000000000000000000000000000000000000000000000000000000000000000e000000000000000000000000000000000000000000000000000000000000001000000000000000000000000000000000000000000000000000000000000000120000000000000000000000000000000000000000000000000000000000000000000000000000000000000000000000000000000000000000000000000000000000000000000000000000000000000000000000000000000000000000000000000",
        "nonce": "0xc",
        "chainId": "0x2105"
      },
      "additionalContracts": [],
      "isFixedGasLimit": false
    }
  ],
  "receipts": [
    {
      "status": "0x1",
      "cumulativeGasUsed": "0x14e1c95",
      "logs": [
        {
          "address": "0x04c0599ae5a44757c0af6f9ec3b93da8976c150a",
          "topics": [
            "0x8c5be1e5ebec7d5bd14f71427d1e84f3dd0314c0f7b2291e5b200ac8c7c3b925",
            "0x0000000000000000000000008f7714ddfecbeff5f3400a012eba53dab3bf0000",
            "0x00000000000000000000000004c0599ae5a44757c0af6f9ec3b93da8976c150a"
          ],
          "data": "0x00000000000000000000000000000000000000000000000000494c939266ec00",
          "blockHash": "0x24d61bd8c40e3b478d090caff8263fce7eec4c1e30b578e200897a5b8239cced",
          "blockNumber": "0x12a6a7d",
          "transactionHash": "0x91b36b489fa3398dec2685d139e68c86cf2acbf8aa14a4636959c4a65421a0e5",
          "transactionIndex": "0x3c",
          "logIndex": "0x1a6",
          "removed": false
        }
      ],
      "logsBloom": "0x00000000000000000000000000000000000000000000000000000000000000104000000000000000000200000000000000000800200000000000000000200000000000000000000000000000000000000000000000000000000000000000000000000000000008000000000000000000000000000000000000000000000000000000000000000000000000000000000100010000000000000000000000000000020000000000000000000000000000000000000000000000000000000000000000000000000000000000000000000000000000000000000000000000000000000010000000000000000000000000000000100000000000000000000000000000",
      "type": "0x2",
      "transactionHash": "0x91b36b489fa3398dec2685d139e68c86cf2acbf8aa14a4636959c4a65421a0e5",
      "transactionIndex": "0x3c",
      "blockHash": "0x24d61bd8c40e3b478d090caff8263fce7eec4c1e30b578e200897a5b8239cced",
      "blockNumber": "0x12a6a7d",
      "gasUsed": "0x861f",
      "effectiveGasPrice": "0x7cad13",
      "from": "0x8f7714ddfecbeff5f3400a012eba53dab3bf0000",
      "to": "0x04c0599ae5a44757c0af6f9ec3b93da8976c150a",
      "contractAddress": null,
      "l1BaseFeeScalar": "0x8dd",
      "l1BlobBaseFee": "0x1",
      "l1BlobBaseFeeScalar": "0x101c12",
      "l1Fee": "0x9b0d9abef",
      "l1GasPrice": "0x2ab5ac242",
      "l1GasUsed": "0x640"
    },
    {
      "status": "0x1",
      "cumulativeGasUsed": "0x15b03a6",
      "logs": [
        {
          "address": "0x04c0599ae5a44757c0af6f9ec3b93da8976c150a",
          "topics": [
            "0xddf252ad1be2c89b69c2b068fc378daa952ba7f163c4a11628f55a4df523b3ef",
            "0x0000000000000000000000008f7714ddfecbeff5f3400a012eba53dab3bf0000",
            "0x0000000000000000000000000000000000000000000000000000000000000000"
          ],
          "data": "0x00000000000000000000000000000000000000000000000000494bc9025c7000",
          "blockHash": "0x24d61bd8c40e3b478d090caff8263fce7eec4c1e30b578e200897a5b8239cced",
          "blockNumber": "0x12a6a7d",
          "transactionHash": "0xec305fa4eb7e77f0ee0064f69e13600d5e5ff8c0aa906f1e4928f4407dfdfd56",
          "transactionIndex": "0x3e",
          "logIndex": "0x1a7",
          "removed": false
        },
        {
          "address": "0xb5320b0b3a13cc860893e2bd79fcd7e13484dda2",
          "topics": [
            "0x61ed099e74a97a1d7f8bb0952a88ca8b7b8ebd00c126ea04671f92a81213318a"
          ],
          "data": "0x0000000000000000000000002cca08ae69e0c44b18a57ab2a87644234daebae4000000000000000000000000000000000000000000000000000008ee60c41454",
          "blockHash": "0x24d61bd8c40e3b478d090caff8263fce7eec4c1e30b578e200897a5b8239cced",
          "blockNumber": "0x12a6a7d",
          "transactionHash": "0xec305fa4eb7e77f0ee0064f69e13600d5e5ff8c0aa906f1e4928f4407dfdfd56",
          "transactionIndex": "0x3e",
          "logIndex": "0x1a8",
          "removed": false
        },
        {
          "address": "0xb5320b0b3a13cc860893e2bd79fcd7e13484dda2",
          "topics": [
            "0x07ea52d82345d6e838192107d8fd7123d9c2ec8e916cd0aad13fd2b60db24644"
          ],
          "data": "0x000000000000000000000000000000000000000000000000000000000000006000000000000000000000000000000000000000000000000000000000000000c000000000000000000000000000000000000000000000000000000000000000e000000000000000000000000000000000000000000000000000000000000000020000000000000000000000009e059a54699a285714207b43b055483e78faac25000000000000000000000000cd37ca043f8479064e10635020c65ffc005d36f600000000000000000000000000000000000000000000000000000000000000000000000000000000000000000000000000000000000000000000000000000002000000000000000000000000000000000000000000000000000000177db7eaed00000000000000000000000000000000000000000000000000000017357d046c",
          "blockHash": "0x24d61bd8c40e3b478d090caff8263fce7eec4c1e30b578e200897a5b8239cced",
          "blockNumber": "0x12a6a7d",
          "transactionHash": "0xec305fa4eb7e77f0ee0064f69e13600d5e5ff8c0aa906f1e4928f4407dfdfd56",
          "transactionIndex": "0x3e",
          "logIndex": "0x1a9",
          "removed": false
        },
        {
          "address": "0x1a44076050125825900e736c501f859c50fe728c",
          "topics": [
            "0x1ab700d4ced0c005b164c0f789fd09fcbb0156d4c2041b8a3bfbcd961cd1567f"
          ],
          "data": "0x00000000000000000000000000000000000000000000000000000000000000600000000000000000000000000000000000000000000000000000000000000120000000000000000000000000b5320b0b3a13cc860893e2bd79fcd7e13484dda20000000000000000000000000000000000000000000000000000000000000099010000000000000002000075e800000000000000000000000004c0599ae5a44757c0af6f9ec3b93da8976c150a0000765f00000000000000000000000088a19f30e1254b37b66899893ab1f73ad82bd2c39b1b687c6a33ab91de1560aaab5a2b788031dc30c54376ffd2f1129b881b91a20000000000000000000000008f7714ddfecbeff5f3400a012eba53dab3bf00000000000000005097000000000000000000000000000000000000000000000000000000000000000000000000000016000301001101000000000000000000000000000f424000000000000000000000",
          "blockHash": "0x24d61bd8c40e3b478d090caff8263fce7eec4c1e30b578e200897a5b8239cced",
          "blockNumber": "0x12a6a7d",
          "transactionHash": "0xec305fa4eb7e77f0ee0064f69e13600d5e5ff8c0aa906f1e4928f4407dfdfd56",
          "transactionIndex": "0x3e",
          "logIndex": "0x1aa",
          "removed": false
        },
        {
          "address": "0x04c0599ae5a44757c0af6f9ec3b93da8976c150a",
          "topics": [
            "0x85496b760a4b7f8d66384b9df21b381f5d1b1e79f229a47aaf4c232edc2fe59a",
            "0x9b1b687c6a33ab91de1560aaab5a2b788031dc30c54376ffd2f1129b881b91a2",
            "0x0000000000000000000000008f7714ddfecbeff5f3400a012eba53dab3bf0000"
          ],
          "data": "0x000000000000000000000000000000000000000000000000000000000000765f00000000000000000000000000000000000000000000000000494bc9025c700000000000000000000000000000000000000000000000000000494bc9025c7000",
          "blockHash": "0x24d61bd8c40e3b478d090caff8263fce7eec4c1e30b578e200897a5b8239cced",
          "blockNumber": "0x12a6a7d",
          "transactionHash": "0xec305fa4eb7e77f0ee0064f69e13600d5e5ff8c0aa906f1e4928f4407dfdfd56",
          "transactionIndex": "0x3e",
          "logIndex": "0x1ab",
          "removed": false
        }
      ],
      "logsBloom": "0x00000000000000000000000000000000000000000000000010000000001000104000000000000000000000000000000000000800000000000000000000000000000202080000000000000408000000000000000000000000000000000000000100000000020008008000000000000800000000000010000000000010000000000000000000000000000000080000000100010000000000000004000000000000000000008000000000100000000000000000000000400000000440000000000000000002000000000000000080000000000000000000000000000000000020000000040000000000000000000000002000000000018000000000000000000000",
      "type": "0x2",
      "transactionHash": "0xec305fa4eb7e77f0ee0064f69e13600d5e5ff8c0aa906f1e4928f4407dfdfd56",
      "transactionIndex": "0x3e",
      "blockHash": "0x24d61bd8c40e3b478d090caff8263fce7eec4c1e30b578e200897a5b8239cced",
      "blockNumber": "0x12a6a7d",
      "gasUsed": "0x45119",
      "effectiveGasPrice": "0x7cad13",
      "from": "0x8f7714ddfecbeff5f3400a012eba53dab3bf0000",
      "to": "0x04c0599ae5a44757c0af6f9ec3b93da8976c150a",
      "contractAddress": null,
      "l1BaseFeeScalar": "0x8dd",
      "l1BlobBaseFee": "0x1",
      "l1BlobBaseFeeScalar": "0x101c12",
      "l1Fee": "0xe6fcb6b54",
      "l1GasPrice": "0x2ab5ac242",
      "l1GasUsed": "0x94f"
    }
  ],
  "libraries": [],
  "pending": [],
  "returns": {},
  "timestamp": 1725903330,
  "chain": 8453,
  "commit": "2a5c681"
}