{
  "transactions": [
    {
      "hash": null,
      "transactionType": "CALL",
      "contractName": null,
      "contractAddress": "0xcd5fe23c85820f7b72d0926fc9b05b43e359b7ee",
      "function": "approve(address,uint256)",
      "arguments": [
        "0x657e8C867D8B37dCC18fA4Caead9C45EB088C642",
        "4109"
      ],
      "transaction": {
        "from": "0x8f7714ddfecbeff5f3400a012eba53dab3bf0000",
        "to": "0xcd5fe23c85820f7b72d0926fc9b05b43e359b7ee",
        "gas": "0x113f0",
        "value": "0x0",
        "input": "0x095ea7b3000000000000000000000000657e8c867d8b37dcc18fa4caead9c45eb088c642000000000000000000000000000000000000000000000000000000000000100d",
        "nonce": "0x2a",
        "chainId": "0x1"
      },
      "additionalContracts": [],
      "isFixedGasLimit": false
    }
  ],
  "receipts": [],
  "libraries": [],
  "pending": [],
  "returns": {},
  "timestamp": 1727277793,
  "chain": 1,
  "commit": "ed557c4"
}