{
  "transactions": [
    {
      "hash": null,
      "transactionType": "CALL",
      "contractName": null,
      "contractAddress": "0x917cee801a67f933f2e6b33fc0cd1ed2d5909d88",
      "function": "approve(address,uint256)",
      "arguments": [
        "0xbDb93AeAd85Fe52C6976Da17ac3F3b3859EA3aA1",
        "900000000000000"
      ],
      "transaction": {
        "from": "0x8f7714ddfecbeff5f3400a012eba53dab3bf0000",
        "to": "0x917cee801a67f933f2e6b33fc0cd1ed2d5909d88",
        "gas": "0x107d0",
        "value": "0x0",
        "input": "0x095ea7b3000000000000000000000000bdb93aead85fe52c6976da17ac3f3b3859ea3aa10000000000000000000000000000000000000000000000000003328b944c4000",
        "nonce": "0x41",
        "chainId": "0x1"
      },
      "additionalContracts": [],
      "isFixedGasLimit": false
    },
    {
      "hash": null,
      "transactionType": "CALL",
      "contractName": null,
      "contractAddress": "0xbdb93aead85fe52c6976da17ac3f3b3859ea3aa1",
      "function": "send((uint32,bytes32,uint256,uint256,bytes,bytes,bytes),(uint256,uint256),address)",
      "arguments": [
        "(30214, 0x0000000000000000000000008f7714ddfecbeff5f3400a012eba53dab3bf0000, 900000000000000, 850000000000000, 0x, 0x, 0x)",
        "(279131079314917, 0)",
        "0x8F7714ddFeCBEfF5F3400a012eBA53dab3Bf0000"
      ],
      "transaction": {
        "from": "0x8f7714ddfecbeff5f3400a012eba53dab3bf0000",
        "to": "0xbdb93aead85fe52c6976da17ac3f3b3859ea3aa1",
        "gas": "0x6c752",
        "value": "0xfdde44d40de5",
        "input": "0xc7c7f5b300000000000000000000000000000000000000000000000000000000000000800000000000000000000000000000000000000000000000000000fdde44d40de500000000000000000000000000000000000000000000000000000000000000000000000000000000000000008f7714ddfecbeff5f3400a012eba53dab3bf000000000000000000000000000000000000000000000000000000000000000076060000000000000000000000008f7714ddfecbeff5f3400a012eba53dab3bf00000000000000000000000000000000000000000000000000000003328b944c4000000000000000000000000000000000000000000000000000000305120c0f200000000000000000000000000000000000000000000000000000000000000000e000000000000000000000000000000000000000000000000000000000000001000000000000000000000000000000000000000000000000000000000000000120000000000000000000000000000000000000000000000000000000000000000000000000000000000000000000000000000000000000000000000000000000000000000000000000000000000000000000000000000000000000000000000000",
        "nonce": "0x42",
        "chainId": "0x1"
      },
      "additionalContracts": [],
      "isFixedGasLimit": false
    }
  ],
  "receipts": [],
  "libraries": [],
  "pending": [],
  "returns": {},
  "timestamp": 1727399975,
  "chain": 1,
  "commit": "9807dfb"
}