{
  "transactions": [
    {
      "hash": null,
      "transactionType": "CALL",
      "contractName": null,
      "contractAddress": "0x657e8c867d8b37dcc18fa4caead9c45eb088c642",
      "function": "approve(address,uint256)",
      "arguments": [
        "0x1Ce547E4bB7B3C5dB09C4534256C09282C4C8154",
        "4109"
      ],
      "transaction": {
        "from": "0x8f7714ddfecbeff5f3400a012eba53dab3bf0000",
        "to": "0x657e8c867d8b37dcc18fa4caead9c45eb088c642",
        "gas": "0x1078a",
        "value": "0x0",
        "input": "0x095ea7b30000000000000000000000001ce547e4bb7b3c5db09c4534256c09282c4c8154000000000000000000000000000000000000000000000000000000000000100d",
        "nonce": "0x2a",
        "chainId": "0x1"
      },
      "additionalContracts": [],
      "isFixedGasLimit": false
    },
    {
      "hash": null,
      "transactionType": "CALL",
      "contractName": null,
      "contractAddress": "0x1ce547e4bb7b3c5db09c4534256c09282c4c8154",
      "function": "send((uint32,bytes32,uint256,uint256,bytes,bytes,bytes),(uint256,uint256),address)",
      "arguments": [
        "(30214, 0x0000000000000000000000008f7714ddfecbeff5f3400a012eba53dab3bf0000, 4109, 4000, 0x, 0x, 0x)",
        "(267175475153066, 0)",
        "0x8F7714ddFeCBEfF5F3400a012eBA53dab3Bf0000"
      ],
      "transaction": {
        "from": "0x8f7714ddfecbeff5f3400a012eba53dab3bf0000",
        "to": "0x1ce547e4bb7b3c5db09c4534256c09282c4c8154",
        "gas": "0x6e0b3",
        "value": "0xf2fea34a08aa",
        "input": "0xc7c7f5b300000000000000000000000000000000000000000000000000000000000000800000000000000000000000000000000000000000000000000000f2fea34a08aa00000000000000000000000000000000000000000000000000000000000000000000000000000000000000008f7714ddfecbeff5f3400a012eba53dab3bf000000000000000000000000000000000000000000000000000000000000000076060000000000000000000000008f7714ddfecbeff5f3400a012eba53dab3bf0000000000000000000000000000000000000000000000000000000000000000100d0000000000000000000000000000000000000000000000000000000000000fa000000000000000000000000000000000000000000000000000000000000000e000000000000000000000000000000000000000000000000000000000000001000000000000000000000000000000000000000000000000000000000000000120000000000000000000000000000000000000000000000000000000000000000000000000000000000000000000000000000000000000000000000000000000000000000000000000000000000000000000000000000000000000000000000000",
        "nonce": "0x2b",
        "chainId": "0x1"
      },
      "additionalContracts": [],
      "isFixedGasLimit": false
    }
  ],
  "receipts": [],
  "libraries": [],
  "pending": [],
  "returns": {},
  "timestamp": 1727278186,
  "chain": 1,
  "commit": "ed557c4"
}