{
  "transactions": [
    {
      "hash": null,
      "transactionType": "CALL",
      "contractName": null,
      "contractAddress": "0x657e8c867d8b37dcc18fa4caead9c45eb088c642",
      "function": "approve(address,uint256)",
      "arguments": [
        "0x8fc7248d57f50900b0865A6316270417445A745b",
        "6900"
      ],
      "transaction": {
        "from": "0x8f7714ddfecbeff5f3400a012eba53dab3bf0000",
        "to": "0x657e8c867d8b37dcc18fa4caead9c45eb088c642",
        "gas": "0xf8d5",
        "value": "0x0",
        "input": "0x095ea7b30000000000000000000000008fc7248d57f50900b0865a6316270417445a745b0000000000000000000000000000000000000000000000000000000000001af4",
        "nonce": "0x33",
        "chainId": "0x1"
      },
      "additionalContracts": [],
      "isFixedGasLimit": false
    },
    {
      "hash": null,
      "transactionType": "CALL",
      "contractName": null,
      "contractAddress": "0x8fc7248d57f50900b0865a6316270417445a745b",
      "function": "send((uint32,bytes32,uint256,uint256,bytes,bytes,bytes),(uint256,uint256),address)",
      "arguments": [
        "(30214, 0x0000000000000000000000008f7714ddfecbeff5f3400a012eba53dab3bf0000, 6900, 6000, 0x, 0x, 0x)",
        "(279131079314917, 0)",
        "0x8F7714ddFeCBEfF5F3400a012eBA53dab3Bf0000"
      ],
      "transaction": {
        "from": "0x8f7714ddfecbeff5f3400a012eba53dab3bf0000",
        "to": "0x8fc7248d57f50900b0865a6316270417445a745b",
        "gas": "0x6c6cd",
        "value": "0xfdde44d40de5",
        "input": "0xc7c7f5b300000000000000000000000000000000000000000000000000000000000000800000000000000000000000000000000000000000000000000000fdde44d40de500000000000000000000000000000000000000000000000000000000000000000000000000000000000000008f7714ddfecbeff5f3400a012eba53dab3bf000000000000000000000000000000000000000000000000000000000000000076060000000000000000000000008f7714ddfecbeff5f3400a012eba53dab3bf00000000000000000000000000000000000000000000000000000000000000001af4000000000000000000000000000000000000000000000000000000000000177000000000000000000000000000000000000000000000000000000000000000e000000000000000000000000000000000000000000000000000000000000001000000000000000000000000000000000000000000000000000000000000000120000000000000000000000000000000000000000000000000000000000000000000000000000000000000000000000000000000000000000000000000000000000000000000000000000000000000000000000000000000000000000000000000",
        "nonce": "0x34",
        "chainId": "0x1"
      },
      "additionalContracts": [],
      "isFixedGasLimit": false
    }
  ],
  "receipts": [],
  "libraries": [],
  "pending": [],
  "returns": {},
  "timestamp": 1727313678,
  "chain": 1,
  "commit": "ed557c4"
}