{
  "transactions": [
    {
      "hash": null,
      "transactionType": "CALL",
      "contractName": null,
      "contractAddress": "0xcd5fe23c85820f7b72d0926fc9b05b43e359b7ee",
      "function": "approve(address,uint256)",
      "arguments": [
        "0xFE7fe01F8B9A76803aF3750144C2715D9bcf7D0D",
        "5600000000000"
      ],
      "transaction": {
        "from": "0x8f7714ddfecbeff5f3400a012eba53dab3bf0000",
        "to": "0xcd5fe23c85820f7b72d0926fc9b05b43e359b7ee",
        "gas": "0x12460",
        "value": "0x0",
        "input": "0x095ea7b3000000000000000000000000fe7fe01f8b9a76803af3750144c2715d9bcf7d0d00000000000000000000000000000000000000000000000000000517da02c000",
        "nonce": "0x5",
        "chainId": "0x1"
      },
      "additionalContracts": [],
      "isFixedGasLimit": false
    },
    {
      "hash": null,
      "transactionType": "CALL",
      "contractName": null,
      "contractAddress": "0xfe7fe01f8b9a76803af3750144c2715d9bcf7d0d",
      "function": "send((uint32,bytes32,uint256,uint256,bytes,bytes,bytes),(uint256,uint256),address)",
      "arguments": [
        "(30303, 0x0000000000000000000000008f7714ddfecbeff5f3400a012eba53dab3bf0000, 5600000000000, 5000000000000, 0x, 0x, 0x)",
        "(10020493788077, 0)",
        "0x8F7714ddFeCBEfF5F3400a012eBA53dab3Bf0000"
      ],
      "transaction": {
        "from": "0x8f7714ddfecbeff5f3400a012eba53dab3bf0000",
        "to": "0xfe7fe01f8b9a76803af3750144c2715d9bcf7d0d",
        "gas": "0x69e5b",
        "value": "0x91d13f903ad",
        "input": "0xc7c7f5b300000000000000000000000000000000000000000000000000000000000000800000000000000000000000000000000000000000000000000000091d13f903ad00000000000000000000000000000000000000000000000000000000000000000000000000000000000000008f7714ddfecbeff5f3400a012eba53dab3bf0000000000000000000000000000000000000000000000000000000000000000765f0000000000000000000000008f7714ddfecbeff5f3400a012eba53dab3bf000000000000000000000000000000000000000000000000000000000517da02c0000000000000000000000000000000000000000000000000000000048c2739500000000000000000000000000000000000000000000000000000000000000000e000000000000000000000000000000000000000000000000000000000000001000000000000000000000000000000000000000000000000000000000000000120000000000000000000000000000000000000000000000000000000000000000000000000000000000000000000000000000000000000000000000000000000000000000000000000000000000000000000000000000000000000000000000000",
        "nonce": "0x6",
        "chainId": "0x1"
      },
      "additionalContracts": [],
      "isFixedGasLimit": false
    }
  ],
  "receipts": [],
  "libraries": [],
  "pending": [],
  "returns": {},
  "timestamp": 1725898910,
  "chain": 1,
  "commit": "2a5c681"
}