{
  "transactions": [
    {
      "hash": null,
      "transactionType": "CALL",
      "contractName": null,
      "contractAddress": "0x657e8c867d8b37dcc18fa4caead9c45eb088c642",
      "function": "approve(address,uint256)",
      "arguments": [
        "0xEa95431608E72058E4e06742DDacd789c76543c8",
        "5300"
      ],
      "transaction": {
        "from": "0x8f7714ddfecbeff5f3400a012eba53dab3bf0000",
        "to": "0x657e8c867d8b37dcc18fa4caead9c45eb088c642",
        "gas": "0x1078a",
        "value": "0x0",
        "input": "0x095ea7b3000000000000000000000000ea95431608e72058e4e06742ddacd789c76543c800000000000000000000000000000000000000000000000000000000000014b4",
        "nonce": "0x3f",
        "chainId": "0x1"
      },
      "additionalContracts": [],
      "isFixedGasLimit": false
    },
    {
      "hash": null,
      "transactionType": "CALL",
      "contractName": null,
      "contractAddress": "0xea95431608e72058e4e06742ddacd789c76543c8",
      "function": "send((uint32,bytes32,uint256,uint256,bytes,bytes,bytes),(uint256,uint256),address)",
      "arguments": [
        "(30214, 0x0000000000000000000000008f7714ddfecbeff5f3400a012eba53dab3bf0000, 5300, 5000, 0x, 0x, 0x)",
        "(279131079314917, 0)",
        "0x8F7714ddFeCBEfF5F3400a012eBA53dab3Bf0000"
      ],
      "transaction": {
        "from": "0x8f7714ddfecbeff5f3400a012eba53dab3bf0000",
        "to": "0xea95431608e72058e4e06742ddacd789c76543c8",
        "gas": "0x6c6cd",
        "value": "0xfdde44d40de5",
        "input": "0xc7c7f5b300000000000000000000000000000000000000000000000000000000000000800000000000000000000000000000000000000000000000000000fdde44d40de500000000000000000000000000000000000000000000000000000000000000000000000000000000000000008f7714ddfecbeff5f3400a012eba53dab3bf000000000000000000000000000000000000000000000000000000000000000076060000000000000000000000008f7714ddfecbeff5f3400a012eba53dab3bf000000000000000000000000000000000000000000000000000000000000000014b4000000000000000000000000000000000000000000000000000000000000138800000000000000000000000000000000000000000000000000000000000000e000000000000000000000000000000000000000000000000000000000000001000000000000000000000000000000000000000000000000000000000000000120000000000000000000000000000000000000000000000000000000000000000000000000000000000000000000000000000000000000000000000000000000000000000000000000000000000000000000000000000000000000000000000000",
        "nonce": "0x40",
        "chainId": "0x1"
      },
      "additionalContracts": [],
      "isFixedGasLimit": false
    }
  ],
  "receipts": [],
  "libraries": [],
  "pending": [],
  "returns": {},
  "timestamp": 1727394283,
  "chain": 1,
  "commit": "ed557c4"
}