{
  "transactions": [
    {
      "hash": null,
      "transactionType": "CALL",
      "contractName": null,
      "contractAddress": "0x04c0599ae5a44757c0af6f9ec3b93da8976c150a",
      "function": "approve(address,uint256)",
      "arguments": [
        "0x04C0599Ae5A44757c0af6F9eC3b93da8976c150A",
        "5600000000000"
      ],
      "transaction": {
        "from": "0x8f7714ddfecbeff5f3400a012eba53dab3bf0000",
        "to": "0x04c0599ae5a44757c0af6f9ec3b93da8976c150a",
        "gas": "0x11572",
        "value": "0x0",
        "input": "0x095ea7b300000000000000000000000004c0599ae5a44757c0af6f9ec3b93da8976c150a00000000000000000000000000000000000000000000000000000517da02c000",
        "nonce": "0x9",
        "chainId": "0x2105"
      },
      "additionalContracts": [],
      "isFixedGasLimit": false
    },
    {
      "hash": null,
      "transactionType": "CALL",
      "contractName": null,
      "contractAddress": "0x04c0599ae5a44757c0af6f9ec3b93da8976c150a",
      "function": "send((uint32,bytes32,uint256,uint256,bytes,bytes,bytes),(uint256,uint256),address)",
      "arguments": [
        "(30303, 0x0000000000000000000000008f7714ddfecbeff5f3400a012eba53dab3bf0000, 5600000000000, 5000000000000, 0x, 0x, 0x)",
        "(10020493788077, 0)",
        "0x8F7714ddFeCBEfF5F3400a012eBA53dab3Bf0000"
      ],
      "transaction": {
        "from": "0x8f7714ddfecbeff5f3400a012eba53dab3bf0000",
        "to": "0x04c0599ae5a44757c0af6f9ec3b93da8976c150a",
        "gas": "0x6aee0",
        "value": "0x91d13f903ad",
        "input": "0xc7c7f5b300000000000000000000000000000000000000000000000000000000000000800000000000000000000000000000000000000000000000000000091d13f903ad00000000000000000000000000000000000000000000000000000000000000000000000000000000000000008f7714ddfecbeff5f3400a012eba53dab3bf0000000000000000000000000000000000000000000000000000000000000000765f0000000000000000000000008f7714ddfecbeff5f3400a012eba53dab3bf000000000000000000000000000000000000000000000000000000000517da02c0000000000000000000000000000000000000000000000000000000048c2739500000000000000000000000000000000000000000000000000000000000000000e000000000000000000000000000000000000000000000000000000000000001000000000000000000000000000000000000000000000000000000000000000120000000000000000000000000000000000000000000000000000000000000000000000000000000000000000000000000000000000000000000000000000000000000000000000000000000000000000000000000000000000000000000000000",
        "nonce": "0xa",
        "chainId": "0x2105"
      },
      "additionalContracts": [],
      "isFixedGasLimit": false
    }
  ],
  "receipts": [],
  "libraries": [],
  "pending": [],
  "returns": {},
  "timestamp": 1725902183,
  "chain": 8453,
  "commit": "2a5c681"
}