{
  "transactions": [
    {
      "hash": "0x956734e7e365e56dc2a387901507a539c55bd1a3c7d15b38cecb07c5957a1a5f",
      "transactionType": "CALL",
      "contractName": null,
      "contractAddress": "0x88a19f30e1254b37b66899893ab1f73ad82bd2c3",
      "function": "approve(address,uint256)",
      "arguments": [
        "0x88A19F30E1254B37b66899893ab1F73aD82BD2C3",
        "5600000000000"
      ],
      "transaction": {
        "from": "0x8f7714ddfecbeff5f3400a012eba53dab3bf0000",
        "to": "0x88a19f30e1254b37b66899893ab1f73ad82bd2c3",
        "gas": "0xa9d7",
        "value": "0x0",
        "input": "0x095ea7b300000000000000000000000088a19f30e1254b37b66899893ab1f73ad82bd2c300000000000000000000000000000000000000000000000000000517da02c000",
        "nonce": "0x2",
        "chainId": "0xbf04"
      },
      "additionalContracts": [],
      "isFixedGasLimit": false
    },
    {
      "hash": "0x7f8468a9d5ca547539b53438abbdd23db93b74fa3a57eed5ef17ea5772aa4cf2",
      "transactionType": "CALL",
      "contractName": null,
      "contractAddress": "0x88a19f30e1254b37b66899893ab1f73ad82bd2c3",
      "function": "send((uint32,bytes32,uint256,uint256,bytes,bytes,bytes),(uint256,uint256),address)",
      "arguments": [
        "(30184, 0x0000000000000000000000008f7714ddfecbeff5f3400a012eba53dab3bf0000, 5600000000000, 5000000000000, 0x, 0x, 0x)",
        "(33692493404971, 0)",
        "0x8F7714ddFeCBEfF5F3400a012eBA53dab3Bf0000"
      ],
      "transaction": {
        "from": "0x8f7714ddfecbeff5f3400a012eba53dab3bf0000",
        "to": "0x88a19f30e1254b37b66899893ab1f73ad82bd2c3",
        "gas": "0x5b1c3",
        "value": "0x1ea4a519db2b",
        "input": "0xc7c7f5b3000000000000000000000000000000000000000000000000000000000000008000000000000000000000000000000000000000000000000000001ea4a519db2b00000000000000000000000000000000000000000000000000000000000000000000000000000000000000008f7714ddfecbeff5f3400a012eba53dab3bf000000000000000000000000000000000000000000000000000000000000000075e80000000000000000000000008f7714ddfecbeff5f3400a012eba53dab3bf000000000000000000000000000000000000000000000000000000000517da02c0000000000000000000000000000000000000000000000000000000048c2739500000000000000000000000000000000000000000000000000000000000000000e000000000000000000000000000000000000000000000000000000000000001000000000000000000000000000000000000000000000000000000000000000120000000000000000000000000000000000000000000000000000000000000000000000000000000000000000000000000000000000000000000000000000000000000000000000000000000000000000000000000000000000000000000000000",
        "nonce": "0x3",
        "chainId": "0xbf04"
      },
      "additionalContracts": [],
      "isFixedGasLimit": false
    }
  ],
  "receipts": [
    {
      "status": "0x1",
      "cumulativeGasUsed": "0x12f15",
      "logs": [
        {
          "address": "0x88a19f30e1254b37b66899893ab1f73ad82bd2c3",
          "topics": [
            "0x8c5be1e5ebec7d5bd14f71427d1e84f3dd0314c0f7b2291e5b200ac8c7c3b925",
            "0x0000000000000000000000008f7714ddfecbeff5f3400a012eba53dab3bf0000",
            "0x00000000000000000000000088a19f30e1254b37b66899893ab1f73ad82bd2c3"
          ],
          "data": "0x00000000000000000000000000000000000000000000000000000517da02c000",
          "blockHash": "0xf5b3620f414fe562a369f7855237c3eacf9e5052f96bfdcfa6369abe26a96cdf",
          "blockNumber": "0x2d85a5",
          "transactionHash": "0x956734e7e365e56dc2a387901507a539c55bd1a3c7d15b38cecb07c5957a1a5f",
          "transactionIndex": "0x1",
          "logIndex": "0x0",
          "removed": false
        }
      ],
      "logsBloom": "0x00000000000000000000000000000000000000000000000000000000000000000000000800000000000000000000000000000800000000000000000000200000000000000000000000000000000000000000000000000000000000000000000000000000000008000000000000000000000000000000000000000000000000000000000000000000000000080000000000010000000000000000000000000000020000000000000000000000020000000000000000000000000000000000010000000000000000000000000000000000000000000000000000000000000000020010000000000000000000000000000000000000000000000040000000000000",
      "type": "0x2",
      "transactionHash": "0x956734e7e365e56dc2a387901507a539c55bd1a3c7d15b38cecb07c5957a1a5f",
      "transactionIndex": "0x1",
      "blockHash": "0xf5b3620f414fe562a369f7855237c3eacf9e5052f96bfdcfa6369abe26a96cdf",
      "blockNumber": "0x2d85a5",
      "gasUsed": "0x7af7",
      "effectiveGasPrice": "0xfe",
      "from": "0x8f7714ddfecbeff5f3400a012eba53dab3bf0000",
      "to": "0x88a19f30e1254b37b66899893ab1f73ad82bd2c3",
      "contractAddress": null,
      "l1Fee": "0x952bba244",
      "l1GasPrice": "0x2f53e33c5",
      "l1GasUsed": "0x900"
    },
    {
      "status": "0x1",
      "cumulativeGasUsed": "0x54e7a",
      "logs": [
        {
          "address": "0x88a19f30e1254b37b66899893ab1f73ad82bd2c3",
          "topics": [
            "0xddf252ad1be2c89b69c2b068fc378daa952ba7f163c4a11628f55a4df523b3ef",
            "0x0000000000000000000000008f7714ddfecbeff5f3400a012eba53dab3bf0000",
            "0x0000000000000000000000000000000000000000000000000000000000000000"
          ],
          "data": "0x0000000000000000000000000000000000000000000000000000048c27395000",
          "blockHash": "0xf5b3620f414fe562a369f7855237c3eacf9e5052f96bfdcfa6369abe26a96cdf",
          "blockNumber": "0x2d85a5",
          "transactionHash": "0x7f8468a9d5ca547539b53438abbdd23db93b74fa3a57eed5ef17ea5772aa4cf2",
          "transactionIndex": "0x2",
          "logIndex": "0x1",
          "removed": false
        },
        {
          "address": "0xc39161c743d0307eb9bcc9fef03eeb9dc4802de7",
          "topics": [
            "0x61ed099e74a97a1d7f8bb0952a88ca8b7b8ebd00c126ea04671f92a81213318a"
          ],
          "data": "0x000000000000000000000000cce466a522984415bc91338c232d98869193d46e00000000000000000000000000000000000000000000000000001ce5f7b3a9d9",
          "blockHash": "0xf5b3620f414fe562a369f7855237c3eacf9e5052f96bfdcfa6369abe26a96cdf",
          "blockNumber": "0x2d85a5",
          "transactionHash": "0x7f8468a9d5ca547539b53438abbdd23db93b74fa3a57eed5ef17ea5772aa4cf2",
          "transactionIndex": "0x2",
          "logIndex": "0x2",
          "removed": false
        },
        {
          "address": "0xc39161c743d0307eb9bcc9fef03eeb9dc4802de7",
          "topics": [
            "0x07ea52d82345d6e838192107d8fd7123d9c2ec8e916cd0aad13fd2b60db24644"
          ],
          "data": "0x000000000000000000000000000000000000000000000000000000000000006000000000000000000000000000000000000000000000000000000000000000c000000000000000000000000000000000000000000000000000000000000000e000000000000000000000000000000000000000000000000000000000000000020000000000000000000000006788f52439aca6bff597d3eec2dc9a44b8fee842000000000000000000000000dd7b5e1db4aafd5c8ec3b764efb8ed265aa5445b00000000000000000000000000000000000000000000000000000000000000000000000000000000000000000000000000000000000000000000000000000002000000000000000000000000000000000000000000000000000000e0b0222976000000000000000000000000000000000000000000000000000000ddfd4407dc",
          "blockHash": "0xf5b3620f414fe562a369f7855237c3eacf9e5052f96bfdcfa6369abe26a96cdf",
          "blockNumber": "0x2d85a5",
          "transactionHash": "0x7f8468a9d5ca547539b53438abbdd23db93b74fa3a57eed5ef17ea5772aa4cf2",
          "transactionIndex": "0x2",
          "logIndex": "0x3",
          "removed": false
        },
        {
          "address": "0x6f475642a6e85809b1c36fa62763669b1b48dd5b",
          "topics": [
            "0x1ab700d4ced0c005b164c0f789fd09fcbb0156d4c2041b8a3bfbcd961cd1567f"
          ],
          "data": "0x00000000000000000000000000000000000000000000000000000000000000600000000000000000000000000000000000000000000000000000000000000120000000000000000000000000c39161c743d0307eb9bcc9fef03eeb9dc4802de700000000000000000000000000000000000000000000000000000000000000990100000000000000020000765f00000000000000000000000088a19f30e1254b37b66899893ab1f73ad82bd2c3000075e800000000000000000000000004c0599ae5a44757c0af6f9ec3b93da8976c150a8c81851f3a98d8e970c384bd181146585a8f049a1d473365b6d7f2eb67c7d2490000000000000000000000008f7714ddfecbeff5f3400a012eba53dab3bf00000000000000000005000000000000000000000000000000000000000000000000000000000000000000000000000016000301001101000000000000000000000000000f424000000000000000000000",
          "blockHash": "0xf5b3620f414fe562a369f7855237c3eacf9e5052f96bfdcfa6369abe26a96cdf",
          "blockNumber": "0x2d85a5",
          "transactionHash": "0x7f8468a9d5ca547539b53438abbdd23db93b74fa3a57eed5ef17ea5772aa4cf2",
          "transactionIndex": "0x2",
          "logIndex": "0x4",
          "removed": false
        },
        {
          "address": "0x88a19f30e1254b37b66899893ab1f73ad82bd2c3",
          "topics": [
            "0x85496b760a4b7f8d66384b9df21b381f5d1b1e79f229a47aaf4c232edc2fe59a",
            "0x8c81851f3a98d8e970c384bd181146585a8f049a1d473365b6d7f2eb67c7d249",
            "0x0000000000000000000000008f7714ddfecbeff5f3400a012eba53dab3bf0000"
          ],
          "data": "0x00000000000000000000000000000000000000000000000000000000000075e80000000000000000000000000000000000000000000000000000048c273950000000000000000000000000000000000000000000000000000000048c27395000",
          "blockHash": "0xf5b3620f414fe562a369f7855237c3eacf9e5052f96bfdcfa6369abe26a96cdf",
          "blockNumber": "0x2d85a5",
          "transactionHash": "0x7f8468a9d5ca547539b53438abbdd23db93b74fa3a57eed5ef17ea5772aa4cf2",
          "transactionIndex": "0x2",
          "logIndex": "0x5",
          "removed": false
        }
      ],
      "logsBloom": "0x00100000000000000000000020000000000000000000000000000000000000000000000800000000000000000000000000000800000000000000000000000000000002000000000000000008000000000140000000000000000000000000000000000000020008008020000000000800000000000000000000000010000000000000000000800000000000080000100000010000000000000000000000000000000000008000000000100000020000000000000000400000000440000000000000000002000002000000000080000000000000000000000000000000000020004000040000000000000000000000002000000000008000000040000000000000",
      "type": "0x2",
      "transactionHash": "0x7f8468a9d5ca547539b53438abbdd23db93b74fa3a57eed5ef17ea5772aa4cf2",
      "transactionIndex": "0x2",
      "blockHash": "0xf5b3620f414fe562a369f7855237c3eacf9e5052f96bfdcfa6369abe26a96cdf",
      "blockNumber": "0x2d85a5",
      "gasUsed": "0x41f65",
      "effectiveGasPrice": "0xfe",
      "from": "0x8f7714ddfecbeff5f3400a012eba53dab3bf0000",
      "to": "0x88a19f30e1254b37b66899893ab1f73ad82bd2c3",
      "contractAddress": null,
      "l1Fee": "0x11d223fcd5",
      "l1GasPrice": "0x2f53e33c5",
      "l1GasUsed": "0x1134"
    }
  ],
  "libraries": [],
  "pending": [],
  "returns": {},
  "timestamp": 1725902885,
  "chain": 48900,
  "commit": "2a5c681"
}