{
  "transactions": [
    {
      "hash": "0x9d6f38e890d989c956fd5895777db7185269ae82d063e72961199ac6a9461ac0",
      "transactionType": "CALL",
      "contractName": null,
      "contractAddress": "0x88a19f30e1254b37b66899893ab1f73ad82bd2c3",
      "function": "approve(address,uint256)",
      "arguments": [
        "0x88A19F30E1254B37b66899893ab1F73aD82BD2C3",
        "5600000000000"
      ],
      "transaction": {
        "from": "0x8f7714ddfecbeff5f3400a012eba53dab3bf0000",
        "to": "0x88a19f30e1254b37b66899893ab1f73ad82bd2c3",
        "gas": "0xa9d7",
        "value": "0x0",
        "input": "0x095ea7b300000000000000000000000088a19f30e1254b37b66899893ab1f73ad82bd2c300000000000000000000000000000000000000000000000000000517da02c000",
        "nonce": "0x4",
        "chainId": "0xbf04"
      },
      "additionalContracts": [],
      "isFixedGasLimit": false
    },
    {
      "hash": "0x286fb8bc45e7c0ae799cd9d19fa31da421e46d323e4db7fdb1b8febc54e80f1c",
      "transactionType": "CALL",
      "contractName": null,
      "contractAddress": "0x88a19f30e1254b37b66899893ab1f73ad82bd2c3",
      "function": "send((uint32,bytes32,uint256,uint256,bytes,bytes,bytes),(uint256,uint256),address)",
      "arguments": [
        "(30101, 0x0000000000000000000000008f7714ddfecbeff5f3400a012eba53dab3bf0000, 5600000000000, 5000000000000, 0x, 0x, 0x)",
        "(11939513658724360, 0)",
        "0x8F7714ddFeCBEfF5F3400a012eBA53dab3Bf0000"
      ],
      "transaction": {
        "from": "0x8f7714ddfecbeff5f3400a012eba53dab3bf0000",
        "to": "0x88a19f30e1254b37b66899893ab1f73ad82bd2c3",
        "gas": "0x6acb7",
        "value": "0x2a6aeca66b5008",
        "input": "0xc7c7f5b30000000000000000000000000000000000000000000000000000000000000080000000000000000000000000000000000000000000000000002a6aeca66b500800000000000000000000000000000000000000000000000000000000000000000000000000000000000000008f7714ddfecbeff5f3400a012eba53dab3bf000000000000000000000000000000000000000000000000000000000000000075950000000000000000000000008f7714ddfecbeff5f3400a012eba53dab3bf000000000000000000000000000000000000000000000000000000000517da02c0000000000000000000000000000000000000000000000000000000048c2739500000000000000000000000000000000000000000000000000000000000000000e000000000000000000000000000000000000000000000000000000000000001000000000000000000000000000000000000000000000000000000000000000120000000000000000000000000000000000000000000000000000000000000000000000000000000000000000000000000000000000000000000000000000000000000000000000000000000000000000000000000000000000000000000000000",
        "nonce": "0x5",
        "chainId": "0xbf04"
      },
      "additionalContracts": [],
      "isFixedGasLimit": false
    }
  ],
  "receipts": [
    {
      "status": "0x1",
      "cumulativeGasUsed": "0x12f09",
      "logs": [
        {
          "address": "0x88a19f30e1254b37b66899893ab1f73ad82bd2c3",
          "topics": [
            "0x8c5be1e5ebec7d5bd14f71427d1e84f3dd0314c0f7b2291e5b200ac8c7c3b925",
            "0x0000000000000000000000008f7714ddfecbeff5f3400a012eba53dab3bf0000",
            "0x00000000000000000000000088a19f30e1254b37b66899893ab1f73ad82bd2c3"
          ],
          "data": "0x00000000000000000000000000000000000000000000000000000517da02c000",
          "blockHash": "0x555214c493c9e40e940f3d63b65c25c5ec9760989599f5395806b7c10ff9027c",
          "blockNumber": "0x2d87ed",
          "transactionHash": "0x9d6f38e890d989c956fd5895777db7185269ae82d063e72961199ac6a9461ac0",
          "transactionIndex": "0x1",
          "logIndex": "0x0",
          "removed": false
        }
      ],
      "logsBloom": "0x00000000000000000000000000000000000000000000000000000000000000000000000800000000000000000000000000000800000000000000000000200000000000000000000000000000000000000000000000000000000000000000000000000000000008000000000000000000000000000000000000000000000000000000000000000000000000080000000000010000000000000000000000000000020000000000000000000000020000000000000000000000000000000000010000000000000000000000000000000000000000000000000000000000000000020010000000000000000000000000000000000000000000000040000000000000",
      "type": "0x2",
      "transactionHash": "0x9d6f38e890d989c956fd5895777db7185269ae82d063e72961199ac6a9461ac0",
      "transactionIndex": "0x1",
      "blockHash": "0x555214c493c9e40e940f3d63b65c25c5ec9760989599f5395806b7c10ff9027c",
      "blockNumber": "0x2d87ed",
      "gasUsed": "0x7af7",
      "effectiveGasPrice": "0xfe",
      "from": "0x8f7714ddfecbeff5f3400a012eba53dab3bf0000",
      "to": "0x88a19f30e1254b37b66899893ab1f73ad82bd2c3",
      "contractAddress": null,
      "l1Fee": "0x600a062b5",
      "l1GasPrice": "0x1e5008d0e",
      "l1GasUsed": "0x90c"
    },
    {
      "status": "0x1",
      "cumulativeGasUsed": "0x5a9f7",
      "logs": [
        {
          "address": "0x88a19f30e1254b37b66899893ab1f73ad82bd2c3",
          "topics": [
            "0xddf252ad1be2c89b69c2b068fc378daa952ba7f163c4a11628f55a4df523b3ef",
            "0x0000000000000000000000008f7714ddfecbeff5f3400a012eba53dab3bf0000",
            "0x0000000000000000000000000000000000000000000000000000000000000000"
          ],
          "data": "0x0000000000000000000000000000000000000000000000000000048c27395000",
          "blockHash": "0x0c7eda9e28ac057b6651461fe5f3f7f7ad664870f9bd16604c358a1d05cfdfe8",
          "blockNumber": "0x2d87ee",
          "transactionHash": "0x286fb8bc45e7c0ae799cd9d19fa31da421e46d323e4db7fdb1b8febc54e80f1c",
          "transactionIndex": "0x1",
          "logIndex": "0x0",
          "removed": false
        },
        {
          "address": "0xc39161c743d0307eb9bcc9fef03eeb9dc4802de7",
          "topics": [
            "0x61ed099e74a97a1d7f8bb0952a88ca8b7b8ebd00c126ea04671f92a81213318a"
          ],
          "data": "0x000000000000000000000000cce466a522984415bc91338c232d98869193d46e0000000000000000000000000000000000000000000000000024ea860efe9774",
          "blockHash": "0x0c7eda9e28ac057b6651461fe5f3f7f7ad664870f9bd16604c358a1d05cfdfe8",
          "blockNumber": "0x2d87ee",
          "transactionHash": "0x286fb8bc45e7c0ae799cd9d19fa31da421e46d323e4db7fdb1b8febc54e80f1c",
          "transactionIndex": "0x1",
          "logIndex": "0x1",
          "removed": false
        },
        {
          "address": "0xc39161c743d0307eb9bcc9fef03eeb9dc4802de7",
          "topics": [
            "0x07ea52d82345d6e838192107d8fd7123d9c2ec8e916cd0aad13fd2b60db24644"
          ],
          "data": "0x000000000000000000000000000000000000000000000000000000000000006000000000000000000000000000000000000000000000000000000000000000c000000000000000000000000000000000000000000000000000000000000000e000000000000000000000000000000000000000000000000000000000000000020000000000000000000000006788f52439aca6bff597d3eec2dc9a44b8fee842000000000000000000000000dd7b5e1db4aafd5c8ec3b764efb8ed265aa5445b000000000000000000000000000000000000000000000000000000000000000000000000000000000000000000000000000000000000000000000000000000020000000000000000000000000000000000000000000000000002c26df4dce5fd0000000000000000000000000000000000000000000000000002bdf8a28fd297",
          "blockHash": "0x0c7eda9e28ac057b6651461fe5f3f7f7ad664870f9bd16604c358a1d05cfdfe8",
          "blockNumber": "0x2d87ee",
          "transactionHash": "0x286fb8bc45e7c0ae799cd9d19fa31da421e46d323e4db7fdb1b8febc54e80f1c",
          "transactionIndex": "0x1",
          "logIndex": "0x2",
          "removed": false
        },
        {
          "address": "0x6f475642a6e85809b1c36fa62763669b1b48dd5b",
          "topics": [
            "0x1ab700d4ced0c005b164c0f789fd09fcbb0156d4c2041b8a3bfbcd961cd1567f"
          ],
          "data": "0x00000000000000000000000000000000000000000000000000000000000000600000000000000000000000000000000000000000000000000000000000000120000000000000000000000000c39161c743d0307eb9bcc9fef03eeb9dc4802de700000000000000000000000000000000000000000000000000000000000000990100000000000000010000765f00000000000000000000000088a19f30e1254b37b66899893ab1f73ad82bd2c300007595000000000000000000000000fe7fe01f8b9a76803af3750144c2715d9bcf7d0d0a9213f1570e23c136c8c9dd4ff03f210e613516326053c61daa8e7d045a16230000000000000000000000008f7714ddfecbeff5f3400a012eba53dab3bf00000000000000000005000000000000000000000000000000000000000000000000000000000000000000000000000016000301001101000000000000000000000000000f424000000000000000000000",
          "blockHash": "0x0c7eda9e28ac057b6651461fe5f3f7f7ad664870f9bd16604c358a1d05cfdfe8",
          "blockNumber": "0x2d87ee",
          "transactionHash": "0x286fb8bc45e7c0ae799cd9d19fa31da421e46d323e4db7fdb1b8febc54e80f1c",
          "transactionIndex": "0x1",
          "logIndex": "0x3",
          "removed": false
        },
        {
          "address": "0x88a19f30e1254b37b66899893ab1f73ad82bd2c3",
          "topics": [
            "0x85496b760a4b7f8d66384b9df21b381f5d1b1e79f229a47aaf4c232edc2fe59a",
            "0x0a9213f1570e23c136c8c9dd4ff03f210e613516326053c61daa8e7d045a1623",
            "0x0000000000000000000000008f7714ddfecbeff5f3400a012eba53dab3bf0000"
          ],
          "data": "0x00000000000000000000000000000000000000000000000000000000000075950000000000000000000000000000000000000000000000000000048c273950000000000000000000000000000000000000000000000000000000048c27395000",
          "blockHash": "0x0c7eda9e28ac057b6651461fe5f3f7f7ad664870f9bd16604c358a1d05cfdfe8",
          "blockNumber": "0x2d87ee",
          "transactionHash": "0x286fb8bc45e7c0ae799cd9d19fa31da421e46d323e4db7fdb1b8febc54e80f1c",
          "transactionIndex": "0x1",
          "logIndex": "0x4",
          "removed": false
        }
      ],
      "logsBloom": "0x00100000000000000000000200000000000000000000000080000000000000000000000800000000000000000000000000000800000000000000000000000000000002000000000000000008000000000140000000000000000000000000000000001000020008008020000000000800000000000000000000000010000000000000000000800000000000080000000000010000000000000000000000000000000000008000000000100000020000000000000000400000000440000000000000000002000000000000000080000000000000000000000000000000000020004000040000000000000000000000002000000000008000000040000000000000",
      "type": "0x2",
      "transactionHash": "0x286fb8bc45e7c0ae799cd9d19fa31da421e46d323e4db7fdb1b8febc54e80f1c",
      "transactionIndex": "0x1",
      "blockHash": "0x0c7eda9e28ac057b6651461fe5f3f7f7ad664870f9bd16604c358a1d05cfdfe8",
      "blockNumber": "0x2d87ee",
      "gasUsed": "0x4d515",
      "effectiveGasPrice": "0xfe",
      "from": "0x8f7714ddfecbeff5f3400a012eba53dab3bf0000",
      "to": "0x88a19f30e1254b37b66899893ab1f73ad82bd2c3",
      "contractAddress": null,
      "l1Fee": "0xb5f9a4a88",
      "l1GasPrice": "0x1e03a0617",
      "l1GasUsed": "0x1150"
    }
  ],
  "libraries": [],
  "pending": [],
  "returns": {},
  "timestamp": 1725904055,
  "chain": 48900,
  "commit": "2a5c681"
}