{
  "transactions": [
    {
      "hash": null,
      "transactionType": "CALL",
      "contractName": null,
      "contractAddress": "0x422c24157ab1fedc919b30dd3418a9042f883049",
      "function": "approve(address,uint256)",
      "arguments": [
        "0x422c24157Ab1FEdC919B30DD3418A9042F883049",
        "5600000000000"
      ],
      "transaction": {
        "from": "0x8f7714ddfecbeff5f3400a012eba53dab3bf0000",
        "to": "0x422c24157ab1fedc919b30dd3418a9042f883049",
        "gas": "0x11527",
        "value": "0x0",
        "input": "0x095ea7b3000000000000000000000000422c24157ab1fedc919b30dd3418a9042f88304900000000000000000000000000000000000000000000000000000517da02c000",
        "nonce": "0x0",
        "chainId": "0x82750"
      },
      "additionalContracts": [],
      "isFixedGasLimit": false
    },
    {
      "hash": null,
      "transactionType": "CALL",
      "contractName": null,
      "contractAddress": "0x422c24157ab1fedc919b30dd3418a9042f883049",
      "function": "send((uint32,bytes32,uint256,uint256,bytes,bytes,bytes),(uint256,uint256),address)",
      "arguments": [
        "(30101, 0x0000000000000000000000008f7714ddfecbeff5f3400a012eba53dab3bf0000, 5600000000000, 5000000000000, 0x, 0x, 0x)",
        "(17415159917352396, 0)",
        "0x8F7714ddFeCBEfF5F3400a012eBA53dab3Bf0000"
      ],
      "transaction": {
        "from": "0x8f7714ddfecbeff5f3400a012eba53dab3bf0000",
        "to": "0x422c24157ab1fedc919b30dd3418a9042f883049",
        "gas": "0x67a21",
        "value": "0x3ddefee49495cc",
        "input": "0xc7c7f5b30000000000000000000000000000000000000000000000000000000000000080000000000000000000000000000000000000000000000000003ddefee49495cc00000000000000000000000000000000000000000000000000000000000000000000000000000000000000008f7714ddfecbeff5f3400a012eba53dab3bf000000000000000000000000000000000000000000000000000000000000000075950000000000000000000000008f7714ddfecbeff5f3400a012eba53dab3bf000000000000000000000000000000000000000000000000000000000517da02c0000000000000000000000000000000000000000000000000000000048c2739500000000000000000000000000000000000000000000000000000000000000000e000000000000000000000000000000000000000000000000000000000000001000000000000000000000000000000000000000000000000000000000000000120000000000000000000000000000000000000000000000000000000000000000000000000000000000000000000000000000000000000000000000000000000000000000000000000000000000000000000000000000000000000000000000000",
        "nonce": "0x1",
        "chainId": "0x82750"
      },
      "additionalContracts": [],
      "isFixedGasLimit": false
    }
  ],
  "receipts": [],
  "libraries": [],
  "pending": [],
  "returns": {},
  "timestamp": 1727307234,
  "chain": 534352,
  "commit": "ed557c4"
}