{
  "transactions": [
    {
      "hash": null,
      "transactionType": "CALL",
      "contractName": null,
      "contractAddress": "0xc135e57681bc7506c568288b5f116e2abd683847",
      "function": "approve(address,uint256)",
      "arguments": [
        "0xC135E57681BC7506c568288b5f116e2abd683847",
        "900000000000000"
      ],
      "transaction": {
        "from": "0x8f7714ddfecbeff5f3400a012eba53dab3bf0000",
        "to": "0xc135e57681bc7506c568288b5f116e2abd683847",
        "gas": "0x11538",
        "value": "0x0",
        "input": "0x095ea7b3000000000000000000000000c135e57681bc7506c568288b5f116e2abd6838470000000000000000000000000000000000000000000000000003328b944c4000",
        "nonce": "0x8",
        "chainId": "0x82750"
      },
      "additionalContracts": [],
      "isFixedGasLimit": false
    },
    {
      "hash": null,
      "transactionType": "CALL",
      "contractName": null,
      "contractAddress": "0xc135e57681bc7506c568288b5f116e2abd683847",
      "function": "send((uint32,bytes32,uint256,uint256,bytes,bytes,bytes),(uint256,uint256),address)",
      "arguments": [
        "(30101, 0x0000000000000000000000008f7714ddfecbeff5f3400a012eba53dab3bf0000, 900000000000000, 850000000000000, 0x, 0x, 0x)",
        "(13368339209766667, 0)",
        "0x8F7714ddFeCBEfF5F3400a012eBA53dab3Bf0000"
      ],
      "transaction": {
        "from": "0x8f7714ddfecbeff5f3400a012eba53dab3bf0000",
        "to": "0xc135e57681bc7506c568288b5f116e2abd683847",
        "gas": "0x67a41",
        "value": "0x2f7e6f05d5c70b",
        "input": "0xc7c7f5b30000000000000000000000000000000000000000000000000000000000000080000000000000000000000000000000000000000000000000002f7e6f05d5c70b00000000000000000000000000000000000000000000000000000000000000000000000000000000000000008f7714ddfecbeff5f3400a012eba53dab3bf000000000000000000000000000000000000000000000000000000000000000075950000000000000000000000008f7714ddfecbeff5f3400a012eba53dab3bf00000000000000000000000000000000000000000000000000000003328b944c4000000000000000000000000000000000000000000000000000000305120c0f200000000000000000000000000000000000000000000000000000000000000000e000000000000000000000000000000000000000000000000000000000000001000000000000000000000000000000000000000000000000000000000000000120000000000000000000000000000000000000000000000000000000000000000000000000000000000000000000000000000000000000000000000000000000000000000000000000000000000000000000000000000000000000000000000000",
        "nonce": "0x9",
        "chainId": "0x82750"
      },
      "additionalContracts": [],
      "isFixedGasLimit": false
    }
  ],
  "receipts": [],
  "libraries": [],
  "pending": [],
  "returns": {},
  "timestamp": 1727401510,
  "chain": 534352,
  "commit": "9807dfb"
}