{
  "transactions": [
    {
      "hash": "0x32538e4f98b777360acde1e6a619f3fbb46056debb73ffc347cc513129b1c3a1",
      "transactionType": "CALL",
      "contractName": null,
      "contractAddress": "0xcd5fe23c85820f7b72d0926fc9b05b43e359b7ee",
      "function": "approve(address,uint256)",
      "arguments": [
        "0x1Ce547E4bB7B3C5dB09C4534256C09282C4C8154",
        "4109"
      ],
      "transaction": {
        "from": "0x8f7714ddfecbeff5f3400a012eba53dab3bf0000",
        "to": "0xcd5fe23c85820f7b72d0926fc9b05b43e359b7ee",
        "gas": "0x113f0",
        "value": "0x0",
        "input": "0x095ea7b30000000000000000000000001ce547e4bb7b3c5db09c4534256c09282c4c8154000000000000000000000000000000000000000000000000000000000000100d",
        "nonce": "0x29",
        "chainId": "0x1"
      },
      "additionalContracts": [],
      "isFixedGasLimit": false
    }
  ],
  "receipts": [
    {
      "status": "0x1",
      "cumulativeGasUsed": "0x5373c9",
      "logs": [
        {
          "address": "0xcd5fe23c85820f7b72d0926fc9b05b43e359b7ee",
          "topics": [
            "0x8c5be1e5ebec7d5bd14f71427d1e84f3dd0314c0f7b2291e5b200ac8c7c3b925",
            "0x0000000000000000000000008f7714ddfecbeff5f3400a012eba53dab3bf0000",
            "0x0000000000000000000000001ce547e4bb7b3c5db09c4534256c09282c4c8154"
          ],
          "data": "0x000000000000000000000000000000000000000000000000000000000000100d",
          "blockHash": "0xda2b840034fb0eaaaf4d6311451e968bba257dcc0b400e6a483f0bbe750ead7f",
          "blockNumber": "0x13dd138",
          "transactionHash": "0x32538e4f98b777360acde1e6a619f3fbb46056debb73ffc347cc513129b1c3a1",
          "transactionIndex": "0x44",
          "logIndex": "0x90",
          "removed": false
        }
      ],
      "logsBloom": "0x00800000000000000000100000020000000000000000000000000000000000000000000000000000000000008000000000000800000000000000000000200000000000000000000000000000000000000000000000000000000000000000000000000000000008000000000000000000000000000000000000000000000000000008000000000000000000000000000000010000000000000000000000000000020000000000000000000000000000000000000000000000000000000000000000000000000000000000000000000000000000000000000000000000000000000010000000000000000000000000010000000000000000000000000000000000",
      "type": "0x2",
      "transactionHash": "0x32538e4f98b777360acde1e6a619f3fbb46056debb73ffc347cc513129b1c3a1",
      "transactionIndex": "0x44",
      "blockHash": "0xda2b840034fb0eaaaf4d6311451e968bba257dcc0b400e6a483f0bbe750ead7f",
      "blockNumber": "0x13dd138",
      "gasUsed": "0xc7c7",
      "effectiveGasPrice": "0x684f345ba",
      "from": "0x8f7714ddfecbeff5f3400a012eba53dab3bf0000",
      "to": "0xcd5fe23c85820f7b72d0926fc9b05b43e359b7ee",
      "contractAddress": null
    }
  ],
  "libraries": [],
  "pending": [],
  "returns": {},
  "timestamp": 1727277604,
  "chain": 1,
  "commit": "ed557c4"
}