{
  "transactions": [
    {
      "hash": "0x675ed34e7ef048c4d9c76fd521c850d2ef73e8c3f467084b8d8c2711831b9285",
      "transactionType": "CALL",
      "contractName": null,
      "contractAddress": "0x657e8c867d8b37dcc18fa4caead9c45eb088c642",
      "function": "approve(address,uint256)",
      "arguments": [
        "0x1Ce547E4bB7B3C5dB09C4534256C09282C4C8154",
        "4109"
      ],
      "transaction": {
        "from": "0x8f7714ddfecbeff5f3400a012eba53dab3bf0000",
        "to": "0x657e8c867d8b37dcc18fa4caead9c45eb088c642",
        "gas": "0x1078a",
        "value": "0x0",
        "input": "0x095ea7b30000000000000000000000001ce547e4bb7b3c5db09c4534256c09282c4c8154000000000000000000000000000000000000000000000000000000000000100d",
        "nonce": "0x2a",
        "chainId": "0x1"
      },
      "additionalContracts": [],
      "isFixedGasLimit": false
    },
    {
      "hash": "0x9b40b4c9fdda075c2c0edd76943ee9310dd68d4a7b5f5a15925fe48cfcfad2a3",
      "transactionType": "CALL",
      "contractName": null,
      "contractAddress": "0x1ce547e4bb7b3c5db09c4534256c09282c4c8154",
      "function": "send((uint32,bytes32,uint256,uint256,bytes,bytes,bytes),(uint256,uint256),address)",
      "arguments": [
        "(30214, 0x0000000000000000000000008f7714ddfecbeff5f3400a012eba53dab3bf0000, 4109, 4000, 0x, 0x, 0x)",
        "(267175475153066, 0)",
        "0x8F7714ddFeCBEfF5F3400a012eBA53dab3Bf0000"
      ],
      "transaction": {
        "from": "0x8f7714ddfecbeff5f3400a012eba53dab3bf0000",
        "to": "0x1ce547e4bb7b3c5db09c4534256c09282c4c8154",
        "gas": "0x6e0b3",
        "value": "0xf2fea34a08aa",
        "input": "0xc7c7f5b300000000000000000000000000000000000000000000000000000000000000800000000000000000000000000000000000000000000000000000f2fea34a08aa00000000000000000000000000000000000000000000000000000000000000000000000000000000000000008f7714ddfecbeff5f3400a012eba53dab3bf000000000000000000000000000000000000000000000000000000000000000076060000000000000000000000008f7714ddfecbeff5f3400a012eba53dab3bf0000000000000000000000000000000000000000000000000000000000000000100d0000000000000000000000000000000000000000000000000000000000000fa000000000000000000000000000000000000000000000000000000000000000e000000000000000000000000000000000000000000000000000000000000001000000000000000000000000000000000000000000000000000000000000000120000000000000000000000000000000000000000000000000000000000000000000000000000000000000000000000000000000000000000000000000000000000000000000000000000000000000000000000000000000000000000000000000",
        "nonce": "0x2b",
        "chainId": "0x1"
      },
      "additionalContracts": [],
      "isFixedGasLimit": false
    }
  ],
  "receipts": [
    {
      "status": "0x1",
      "cumulativeGasUsed": "0xbfe7a3",
      "logs": [
        {
          "address": "0x657e8c867d8b37dcc18fa4caead9c45eb088c642",
          "topics": [
            "0x8c5be1e5ebec7d5bd14f71427d1e84f3dd0314c0f7b2291e5b200ac8c7c3b925",
            "0x0000000000000000000000008f7714ddfecbeff5f3400a012eba53dab3bf0000",
            "0x0000000000000000000000001ce547e4bb7b3c5db09c4534256c09282c4c8154"
          ],
          "data": "0x000000000000000000000000000000000000000000000000000000000000100d",
          "blockHash": "0x83dee2ebeb6c789c10591b414b7d6c3f37919aa5a5160a0414e0e3e7798a2fe7",
          "blockNumber": "0x13dd172",
          "transactionHash": "0x675ed34e7ef048c4d9c76fd521c850d2ef73e8c3f467084b8d8c2711831b9285",
          "transactionIndex": "0x6a",
          "logIndex": "0xfc",
          "removed": false
        }
      ],
      "logsBloom": "0x00800000000000000000100004020000000000000000000000000000000000000000000000000000000000000000000000000810000000000000000000200000000000000000000000000000000000000000000000000000000000000000000000000000000008000000000000000000000000000000000000000000000000000000000000010000000000000000000000010000000000000000000000000000020000000000000000000000000000000000000000000000000000000000000000000000000000000000000000000000000000000000000000000000000000000010000000000000000000000000000000000000000000000000000000000000",
      "type": "0x2",
      "transactionHash": "0x675ed34e7ef048c4d9c76fd521c850d2ef73e8c3f467084b8d8c2711831b9285",
      "transactionIndex": "0x6a",
      "blockHash": "0x83dee2ebeb6c789c10591b414b7d6c3f37919aa5a5160a0414e0e3e7798a2fe7",
      "blockNumber": "0x13dd172",
      "gasUsed": "0xb433",
      "effectiveGasPrice": "0x5f791e070",
      "from": "0x8f7714ddfecbeff5f3400a012eba53dab3bf0000",
      "to": "0x657e8c867d8b37dcc18fa4caead9c45eb088c642",
      "contractAddress": null
    },
    {
      "status": "0x1",
      "cumulativeGasUsed": "0xc4e25b",
      "logs": [
        {
          "address": "0x657e8c867d8b37dcc18fa4caead9c45eb088c642",
          "topics": [
            "0xddf252ad1be2c89b69c2b068fc378daa952ba7f163c4a11628f55a4df523b3ef",
            "0x0000000000000000000000008f7714ddfecbeff5f3400a012eba53dab3bf0000",
            "0x0000000000000000000000001ce547e4bb7b3c5db09c4534256c09282c4c8154"
          ],
          "data": "0x0000000000000000000000000000000000000000000000000000000000001004",
          "blockHash": "0x83dee2ebeb6c789c10591b414b7d6c3f37919aa5a5160a0414e0e3e7798a2fe7",
          "blockNumber": "0x13dd172",
          "transactionHash": "0x9b40b4c9fdda075c2c0edd76943ee9310dd68d4a7b5f5a15925fe48cfcfad2a3",
          "transactionIndex": "0x6b",
          "logIndex": "0xfd",
          "removed": false
        },
        {
          "address": "0xbb2ea70c9e858123480642cf96acbcce1372dce1",
          "topics": [
            "0x61ed099e74a97a1d7f8bb0952a88ca8b7b8ebd00c126ea04671f92a81213318a"
          ],
          "data": "0x000000000000000000000000173272739bd7aa6e4e214714048a9fe6994530590000000000000000000000000000000000000000000000000000e124ce419525",
          "blockHash": "0x83dee2ebeb6c789c10591b414b7d6c3f37919aa5a5160a0414e0e3e7798a2fe7",
          "blockNumber": "0x13dd172",
          "transactionHash": "0x9b40b4c9fdda075c2c0edd76943ee9310dd68d4a7b5f5a15925fe48cfcfad2a3",
          "transactionIndex": "0x6b",
          "logIndex": "0xfe",
          "removed": false
        },
        {
          "address": "0xbb2ea70c9e858123480642cf96acbcce1372dce1",
          "topics": [
            "0x07ea52d82345d6e838192107d8fd7123d9c2ec8e916cd0aad13fd2b60db24644"
          ],
          "data": "0x000000000000000000000000000000000000000000000000000000000000006000000000000000000000000000000000000000000000000000000000000000c000000000000000000000000000000000000000000000000000000000000000e00000000000000000000000000000000000000000000000000000000000000002000000000000000000000000589dedbd617e0cbcb916a9223f4d1300c294236b000000000000000000000000a59ba433ac34d2927232918ef5b2eaafcf130ba500000000000000000000000000000000000000000000000000000000000000000000000000000000000000000000000000000000000000000000000000000002000000000000000000000000000000000000000000000000000008fab88df75c000000000000000000000000000000000000000000000000000008df1c7a7c29",
          "blockHash": "0x83dee2ebeb6c789c10591b414b7d6c3f37919aa5a5160a0414e0e3e7798a2fe7",
          "blockNumber": "0x13dd172",
          "transactionHash": "0x9b40b4c9fdda075c2c0edd76943ee9310dd68d4a7b5f5a15925fe48cfcfad2a3",
          "transactionIndex": "0x6b",
          "logIndex": "0xff",
          "removed": false
        },
        {
          "address": "0x1a44076050125825900e736c501f859c50fe728c",
          "topics": [
            "0x1ab700d4ced0c005b164c0f789fd09fcbb0156d4c2041b8a3bfbcd961cd1567f"
          ],
          "data": "0x00000000000000000000000000000000000000000000000000000000000000600000000000000000000000000000000000000000000000000000000000000120000000000000000000000000bb2ea70c9e858123480642cf96acbcce1372dce10000000000000000000000000000000000000000000000000000000000000099010000000000000001000075950000000000000000000000001ce547e4bb7b3c5db09c4534256c09282c4c815400007606000000000000000000000000cdf497d2d06a211f450bf99e2b564962dc2fec5e2d618ecc281df59ebeaed2c7526cf07b183130477a1fd78300643e81bbd018900000000000000000000000008f7714ddfecbeff5f3400a012eba53dab3bf00000000000000000029000000000000000000000000000000000000000000000000000000000000000000000000000016000301001101000000000000000000000000000f424000000000000000000000",
          "blockHash": "0x83dee2ebeb6c789c10591b414b7d6c3f37919aa5a5160a0414e0e3e7798a2fe7",
          "blockNumber": "0x13dd172",
          "transactionHash": "0x9b40b4c9fdda075c2c0edd76943ee9310dd68d4a7b5f5a15925fe48cfcfad2a3",
          "transactionIndex": "0x6b",
          "logIndex": "0x100",
          "removed": false
        },
        {
          "address": "0x1ce547e4bb7b3c5db09c4534256c09282c4c8154",
          "topics": [
            "0x85496b760a4b7f8d66384b9df21b381f5d1b1e79f229a47aaf4c232edc2fe59a",
            "0x2d618ecc281df59ebeaed2c7526cf07b183130477a1fd78300643e81bbd01890",
            "0x0000000000000000000000008f7714ddfecbeff5f3400a012eba53dab3bf0000"
          ],
          "data": "0x000000000000000000000000000000000000000000000000000000000000760600000000000000000000000000000000000000000000000000000000000010040000000000000000000000000000000000000000000000000000000000001004",
          "blockHash": "0x83dee2ebeb6c789c10591b414b7d6c3f37919aa5a5160a0414e0e3e7798a2fe7",
          "blockNumber": "0x13dd172",
          "transactionHash": "0x9b40b4c9fdda075c2c0edd76943ee9310dd68d4a7b5f5a15925fe48cfcfad2a3",
          "transactionIndex": "0x6b",
          "logIndex": "0x101",
          "removed": false
        }
      ],
      "logsBloom": "0x00810000000000000000100004020000000000000000000000000000001000000400000000000000000000000000000000000810000100000000000000000000000002000000000000000008000000000000200000000000000000000000000000000000000008008000000000000000000000000010000000000010008000000000000000010000001000080000000000010000000000010000000001000000000000008000000000100000000000000000000000400000000440000000000000000002000000000000000080000000000000000000000000000000000000000000040000000002000000000000002000000000018000000000000000000000",
      "type": "0x2",
      "transactionHash": "0x9b40b4c9fdda075c2c0edd76943ee9310dd68d4a7b5f5a15925fe48cfcfad2a3",
      "transactionIndex": "0x6b",
      "blockHash": "0x83dee2ebeb6c789c10591b414b7d6c3f37919aa5a5160a0414e0e3e7798a2fe7",
      "blockNumber": "0x13dd172",
      "gasUsed": "0x4fab8",
      "effectiveGasPrice": "0x5f791e070",
      "from": "0x8f7714ddfecbeff5f3400a012eba53dab3bf0000",
      "to": "0x1ce547e4bb7b3c5db09c4534256c09282c4c8154",
      "contractAddress": null
    }
  ],
  "libraries": [],
  "pending": [],
  "returns": {},
  "timestamp": 1727278312,
  "chain": 1,
  "commit": "ed557c4"
}