{
  "transactions": [
    {
      "hash": "0x6342a3f65980f5a3f470a10b2b8fe7061f63f39dcea6a30a9d17b7e04381d245",
      "transactionType": "CALL",
      "contractName": null,
      "contractAddress": "0x917cee801a67f933f2e6b33fc0cd1ed2d5909d88",
      "function": "approve(address,uint256)",
      "arguments": [
        "0x7B6A67F1031c1d8c7bAb1cF001BDAf83271241fB",
        "5600000000000"
      ],
      "transaction": {
        "from": "0x8f7714ddfecbeff5f3400a012eba53dab3bf0000",
        "to": "0x917cee801a67f933f2e6b33fc0cd1ed2d5909d88",
        "gas": "0xf917",
        "value": "0x0",
        "input": "0x095ea7b30000000000000000000000007b6a67f1031c1d8c7bab1cf001bdaf83271241fb00000000000000000000000000000000000000000000000000000517da02c000",
        "nonce": "0x2d",
        "chainId": "0x1"
      },
      "additionalContracts": [],
      "isFixedGasLimit": false
    },
    {
      "hash": null,
      "transactionType": "CALL",
      "contractName": null,
      "contractAddress": "0x7b6a67f1031c1d8c7bab1cf001bdaf83271241fb",
      "function": "send((uint32,bytes32,uint256,uint256,bytes,bytes,bytes),(uint256,uint256),address)",
      "arguments": [
        "(30214, 0x0000000000000000000000008f7714ddfecbeff5f3400a012eba53dab3bf0000, 5600000000000, 5000000000000, 0x, 0x, 0x)",
        "(279131079314917, 0)",
        "0x8F7714ddFeCBEfF5F3400a012eBA53dab3Bf0000"
      ],
      "transaction": {
        "from": "0x8f7714ddfecbeff5f3400a012eba53dab3bf0000",
        "to": "0x7b6a67f1031c1d8c7bab1cf001bdaf83271241fb",
        "gas": "0x6e118",
        "value": "0xfdde44d40de5",
        "input": "0xc7c7f5b300000000000000000000000000000000000000000000000000000000000000800000000000000000000000000000000000000000000000000000fdde44d40de500000000000000000000000000000000000000000000000000000000000000000000000000000000000000008f7714ddfecbeff5f3400a012eba53dab3bf000000000000000000000000000000000000000000000000000000000000000076060000000000000000000000008f7714ddfecbeff5f3400a012eba53dab3bf000000000000000000000000000000000000000000000000000000000517da02c0000000000000000000000000000000000000000000000000000000048c2739500000000000000000000000000000000000000000000000000000000000000000e000000000000000000000000000000000000000000000000000000000000001000000000000000000000000000000000000000000000000000000000000000120000000000000000000000000000000000000000000000000000000000000000000000000000000000000000000000000000000000000000000000000000000000000000000000000000000000000000000000000000000000000000000000000",
        "nonce": "0x2e",
        "chainId": "0x1"
      },
      "additionalContracts": [],
      "isFixedGasLimit": false
    }
  ],
  "receipts": [],
  "libraries": [],
  "pending": [
    "0x6342a3f65980f5a3f470a10b2b8fe7061f63f39dcea6a30a9d17b7e04381d245"
  ],
  "returns": {},
  "timestamp": 1727305381,
  "chain": 1,
  "commit": "ed557c4"
}