{
  "transactions": [
    {
      "hash": "0xfb027209f54cd40a10a846517d8f8bd7b590dbd67a00b0422cd072b5a60072b9",
      "transactionType": "CALL",
      "contractName": null,
      "contractAddress": "0xcd5fe23c85820f7b72d0926fc9b05b43e359b7ee",
      "function": "approve(address,uint256)",
      "arguments": [
        "0xcd2eb13D6831d4602D80E5db9230A57596CDCA63",
        "5600000000000"
      ],
      "transaction": {
        "from": "0x8f7714ddfecbeff5f3400a012eba53dab3bf0000",
        "to": "0xcd5fe23c85820f7b72d0926fc9b05b43e359b7ee",
        "gas": "0x12460",
        "value": "0x0",
        "input": "0x095ea7b3000000000000000000000000cd2eb13d6831d4602d80e5db9230a57596cdca6300000000000000000000000000000000000000000000000000000517da02c000",
        "nonce": "0x50",
        "chainId": "0x1"
      },
      "additionalContracts": [],
      "isFixedGasLimit": false
    },
    {
      "hash": "0xecbfe3dcd5c53f2e4e05f9984534d49faade8aca436c0eb52b8780a7280d2924",
      "transactionType": "CALL",
      "contractName": null,
      "contractAddress": "0xcd2eb13d6831d4602d80e5db9230a57596cdca63",
      "function": "send((uint32,bytes32,uint256,uint256,bytes,bytes,bytes),(uint256,uint256),address)",
      "arguments": [
        "(30111, 0x0000000000000000000000008f7714ddfecbeff5f3400a012eba53dab3bf0000, 5600000000000, 5000000000000, 0x, 0x, 0x)",
        "(33835671872395, 0)",
        "0x8F7714ddFeCBEfF5F3400a012eBA53dab3Bf0000"
      ],
      "transaction": {
        "from": "0x8f7714ddfecbeff5f3400a012eba53dab3bf0000",
        "to": "0xcd2eb13d6831d4602d80e5db9230a57596cdca63",
        "gas": "0x68d5b",
        "value": "0x1ec5fb33e38b",
        "input": "0xc7c7f5b3000000000000000000000000000000000000000000000000000000000000008000000000000000000000000000000000000000000000000000001ec5fb33e38b00000000000000000000000000000000000000000000000000000000000000000000000000000000000000008f7714ddfecbeff5f3400a012eba53dab3bf0000000000000000000000000000000000000000000000000000000000000000759f0000000000000000000000008f7714ddfecbeff5f3400a012eba53dab3bf000000000000000000000000000000000000000000000000000000000517da02c0000000000000000000000000000000000000000000000000000000048c2739500000000000000000000000000000000000000000000000000000000000000000e000000000000000000000000000000000000000000000000000000000000001000000000000000000000000000000000000000000000000000000000000000120000000000000000000000000000000000000000000000000000000000000000000000000000000000000000000000000000000000000000000000000000000000000000000000000000000000000000000000000000000000000000000000000",
        "nonce": "0x51",
        "chainId": "0x1"
      },
      "additionalContracts": [],
      "isFixedGasLimit": false
    }
  ],
  "receipts": [
    {
      "status": "0x1",
      "cumulativeGasUsed": "0x9ede6d",
      "logs": [
        {
          "address": "0xcd5fe23c85820f7b72d0926fc9b05b43e359b7ee",
          "topics": [
            "0x8c5be1e5ebec7d5bd14f71427d1e84f3dd0314c0f7b2291e5b200ac8c7c3b925",
            "0x0000000000000000000000008f7714ddfecbeff5f3400a012eba53dab3bf0000",
            "0x000000000000000000000000cd2eb13d6831d4602d80e5db9230a57596cdca63"
          ],
          "data": "0x00000000000000000000000000000000000000000000000000000517da02c000",
          "blockHash": "0xd7d52ce2ef7e375db3d7627698d403e45bbeb13bcea96f27f04390e285bf6019",
          "blockNumber": "0x13f3f86",
          "transactionHash": "0xfb027209f54cd40a10a846517d8f8bd7b590dbd67a00b0422cd072b5a60072b9",
          "transactionIndex": "0x86",
          "logIndex": "0xfb",
          "removed": false
        }
      ],
      "logsBloom": "0x00000000000000000000000000000000000000000000000000000000000000000000000000000000000000008000000000000800000000000000000000200000000000000100000000000000000000000000000000000000000000000000000000000000000008000000000000000000000000000000000000000000000000000008000000000000000000000000000000010000000000000000000000000000020000000000000000000000000000000000000000000000000000000000000000000000000000000000000000000000000000000200000000000000020000000010000000000000000000000000010000000000000000000000000000000000",
      "type": "0x2",
      "transactionHash": "0xfb027209f54cd40a10a846517d8f8bd7b590dbd67a00b0422cd072b5a60072b9",
      "transactionIndex": "0x86",
      "blockHash": "0xd7d52ce2ef7e375db3d7627698d403e45bbeb13bcea96f27f04390e285bf6019",
      "blockNumber": "0x13f3f86",
      "gasUsed": "0xc7eb",
      "effectiveGasPrice": "0x82ca4aecd",
      "from": "0x8f7714ddfecbeff5f3400a012eba53dab3bf0000",
      "to": "0xcd5fe23c85820f7b72d0926fc9b05b43e359b7ee",
      "contractAddress": null
    },
    {
      "status": "0x1",
      "cumulativeGasUsed": "0xa39ccd",
      "logs": [
        {
          "address": "0xcd5fe23c85820f7b72d0926fc9b05b43e359b7ee",
          "topics": [
            "0x8c5be1e5ebec7d5bd14f71427d1e84f3dd0314c0f7b2291e5b200ac8c7c3b925",
            "0x0000000000000000000000008f7714ddfecbeff5f3400a012eba53dab3bf0000",
            "0x000000000000000000000000cd2eb13d6831d4602d80e5db9230a57596cdca63"
          ],
          "data": "0x0000000000000000000000000000000000000000000000000000008bb2c97000",
          "blockHash": "0xd7d52ce2ef7e375db3d7627698d403e45bbeb13bcea96f27f04390e285bf6019",
          "blockNumber": "0x13f3f86",
          "transactionHash": "0xecbfe3dcd5c53f2e4e05f9984534d49faade8aca436c0eb52b8780a7280d2924",
          "transactionIndex": "0x87",
          "logIndex": "0xfc",
          "removed": false
        },
        {
          "address": "0xcd5fe23c85820f7b72d0926fc9b05b43e359b7ee",
          "topics": [
            "0xddf252ad1be2c89b69c2b068fc378daa952ba7f163c4a11628f55a4df523b3ef",
            "0x0000000000000000000000008f7714ddfecbeff5f3400a012eba53dab3bf0000",
            "0x000000000000000000000000cd2eb13d6831d4602d80e5db9230a57596cdca63"
          ],
          "data": "0x0000000000000000000000000000000000000000000000000000048c27395000",
          "blockHash": "0xd7d52ce2ef7e375db3d7627698d403e45bbeb13bcea96f27f04390e285bf6019",
          "blockNumber": "0x13f3f86",
          "transactionHash": "0xecbfe3dcd5c53f2e4e05f9984534d49faade8aca436c0eb52b8780a7280d2924",
          "transactionIndex": "0x87",
          "logIndex": "0xfd",
          "removed": false
        },
        {
          "address": "0xbb2ea70c9e858123480642cf96acbcce1372dce1",
          "topics": [
            "0x61ed099e74a97a1d7f8bb0952a88ca8b7b8ebd00c126ea04671f92a81213318a"
          ],
          "data": "0x000000000000000000000000173272739bd7aa6e4e214714048a9fe69945305900000000000000000000000000000000000000000000000000001dc92b3556bf",
          "blockHash": "0xd7d52ce2ef7e375db3d7627698d403e45bbeb13bcea96f27f04390e285bf6019",
          "blockNumber": "0x13f3f86",
          "transactionHash": "0xecbfe3dcd5c53f2e4e05f9984534d49faade8aca436c0eb52b8780a7280d2924",
          "transactionIndex": "0x87",
          "logIndex": "0xfe",
          "removed": false
        },
        {
          "address": "0xbb2ea70c9e858123480642cf96acbcce1372dce1",
          "topics": [
            "0x07ea52d82345d6e838192107d8fd7123d9c2ec8e916cd0aad13fd2b60db24644"
          ],
          "data": "0x000000000000000000000000000000000000000000000000000000000000006000000000000000000000000000000000000000000000000000000000000000c000000000000000000000000000000000000000000000000000000000000000e00000000000000000000000000000000000000000000000000000000000000002000000000000000000000000589dedbd617e0cbcb916a9223f4d1300c294236b000000000000000000000000a59ba433ac34d2927232918ef5b2eaafcf130ba500000000000000000000000000000000000000000000000000000000000000000000000000000000000000000000000000000000000000000000000000000002000000000000000000000000000000000000000000000000000000801ef679990000000000000000000000000000000000000000000000000000007cb1081333",
          "blockHash": "0xd7d52ce2ef7e375db3d7627698d403e45bbeb13bcea96f27f04390e285bf6019",
          "blockNumber": "0x13f3f86",
          "transactionHash": "0xecbfe3dcd5c53f2e4e05f9984534d49faade8aca436c0eb52b8780a7280d2924",
          "transactionIndex": "0x87",
          "logIndex": "0xff",
          "removed": false
        },
        {
          "address": "0x1a44076050125825900e736c501f859c50fe728c",
          "topics": [
            "0x1ab700d4ced0c005b164c0f789fd09fcbb0156d4c2041b8a3bfbcd961cd1567f"
          ],
          "data": "0x00000000000000000000000000000000000000000000000000000000000000600000000000000000000000000000000000000000000000000000000000000120000000000000000000000000bb2ea70c9e858123480642cf96acbcce1372dce1000000000000000000000000000000000000000000000000000000000000009901000000000000000100007595000000000000000000000000cd2eb13d6831d4602d80e5db9230a57596cdca630000759f0000000000000000000000005a7facb970d094b6c7ff1df0ea68d99e6e73cbff401248f3c2a2f697175a02dc5dfa41d077b005e6767cc33985448eec9abc7f000000000000000000000000008f7714ddfecbeff5f3400a012eba53dab3bf00000000000000000005000000000000000000000000000000000000000000000000000000000000000000000000000016000301001101000000000000000000000000000f424000000000000000000000",
          "blockHash": "0xd7d52ce2ef7e375db3d7627698d403e45bbeb13bcea96f27f04390e285bf6019",
          "blockNumber": "0x13f3f86",
          "transactionHash": "0xecbfe3dcd5c53f2e4e05f9984534d49faade8aca436c0eb52b8780a7280d2924",
          "transactionIndex": "0x87",
          "logIndex": "0x100",
          "removed": false
        },
        {
          "address": "0xcd2eb13d6831d4602d80e5db9230a57596cdca63",
          "topics": [
            "0x85496b760a4b7f8d66384b9df21b381f5d1b1e79f229a47aaf4c232edc2fe59a",
            "0x401248f3c2a2f697175a02dc5dfa41d077b005e6767cc33985448eec9abc7f00",
            "0x0000000000000000000000008f7714ddfecbeff5f3400a012eba53dab3bf0000"
          ],
          "data": "0x000000000000000000000000000000000000000000000000000000000000759f0000000000000000000000000000000000000000000000000000048c273950000000000000000000000000000000000000000000000000000000048c27395000",
          "blockHash": "0xd7d52ce2ef7e375db3d7627698d403e45bbeb13bcea96f27f04390e285bf6019",
          "blockNumber": "0x13f3f86",
          "transactionHash": "0xecbfe3dcd5c53f2e4e05f9984534d49faade8aca436c0eb52b8780a7280d2924",
          "transactionIndex": "0x87",
          "logIndex": "0x101",
          "removed": false
        }
      ],
      "logsBloom": "0x00000000000000000000000000000000000000000000000000000000001000000400000000400000000000008000000000000800000000000000004000200000000002000100000000000008000000000000200000000000000000000000000000000000000008008000000000000000000000000010000000000010000000000008000000000000001000080000000000010000000000000000000000000000020000008000000000100000000000000000000000400000000440000000000000000002000000000000100080000000000000000200000000000000020000000010040000000000000002000000012000000000018000000000000000020000",
      "type": "0x2",
      "transactionHash": "0xecbfe3dcd5c53f2e4e05f9984534d49faade8aca436c0eb52b8780a7280d2924",
      "transactionIndex": "0x87",
      "blockHash": "0xd7d52ce2ef7e375db3d7627698d403e45bbeb13bcea96f27f04390e285bf6019",
      "blockNumber": "0x13f3f86",
      "gasUsed": "0x4be60",
      "effectiveGasPrice": "0x82ca4aecd",
      "from": "0x8f7714ddfecbeff5f3400a012eba53dab3bf0000",
      "to": "0xcd2eb13d6831d4602d80e5db9230a57596cdca63",
      "contractAddress": null
    }
  ],
  "libraries": [],
  "pending": [],
  "returns": {},
  "timestamp": 1728407175,
  "chain": 1,
  "commit": "bc04ada"
}