{
  "transactions": [
    {
      "hash": "0xf0e862b3c6da0587ea8f5717e6a1ea78345dd2985a2120f8cc1e6d73cea56a45",
      "transactionType": "CALL",
      "contractName": null,
      "contractAddress": "0x917cee801a67f933f2e6b33fc0cd1ed2d5909d88",
      "function": "approve(address,uint256)",
      "arguments": [
        "0xbDb93AeAd85Fe52C6976Da17ac3F3b3859EA3aA1",
        "900000000000000"
      ],
      "transaction": {
        "from": "0x8f7714ddfecbeff5f3400a012eba53dab3bf0000",
        "to": "0x917cee801a67f933f2e6b33fc0cd1ed2d5909d88",
        "gas": "0x107d0",
        "value": "0x0",
        "input": "0x095ea7b3000000000000000000000000bdb93aead85fe52c6976da17ac3f3b3859ea3aa10000000000000000000000000000000000000000000000000003328b944c4000",
        "nonce": "0x41",
        "chainId": "0x1"
      },
      "additionalContracts": [],
      "isFixedGasLimit": false
    },
    {
      "hash": "0x17fc5ceb2d02b3eb8ad63a3ff417af61346d48d89b7aaa2bd24ab775a19ed469",
      "transactionType": "CALL",
      "contractName": null,
      "contractAddress": "0xbdb93aead85fe52c6976da17ac3f3b3859ea3aa1",
      "function": "send((uint32,bytes32,uint256,uint256,bytes,bytes,bytes),(uint256,uint256),address)",
      "arguments": [
        "(30214, 0x0000000000000000000000008f7714ddfecbeff5f3400a012eba53dab3bf0000, 900000000000000, 850000000000000, 0x, 0x, 0x)",
        "(279131079314917, 0)",
        "0x8F7714ddFeCBEfF5F3400a012eBA53dab3Bf0000"
      ],
      "transaction": {
        "from": "0x8f7714ddfecbeff5f3400a012eba53dab3bf0000",
        "to": "0xbdb93aead85fe52c6976da17ac3f3b3859ea3aa1",
        "gas": "0x6c752",
        "value": "0xfdde44d40de5",
        "input": "0xc7c7f5b300000000000000000000000000000000000000000000000000000000000000800000000000000000000000000000000000000000000000000000fdde44d40de500000000000000000000000000000000000000000000000000000000000000000000000000000000000000008f7714ddfecbeff5f3400a012eba53dab3bf000000000000000000000000000000000000000000000000000000000000000076060000000000000000000000008f7714ddfecbeff5f3400a012eba53dab3bf00000000000000000000000000000000000000000000000000000003328b944c4000000000000000000000000000000000000000000000000000000305120c0f200000000000000000000000000000000000000000000000000000000000000000e000000000000000000000000000000000000000000000000000000000000001000000000000000000000000000000000000000000000000000000000000000120000000000000000000000000000000000000000000000000000000000000000000000000000000000000000000000000000000000000000000000000000000000000000000000000000000000000000000000000000000000000000000000000",
        "nonce": "0x42",
        "chainId": "0x1"
      },
      "additionalContracts": [],
      "isFixedGasLimit": false
    }
  ],
  "receipts": [
    {
      "status": "0x1",
      "cumulativeGasUsed": "0xfa35df",
      "logs": [
        {
          "address": "0x917cee801a67f933f2e6b33fc0cd1ed2d5909d88",
          "topics": [
            "0x8c5be1e5ebec7d5bd14f71427d1e84f3dd0314c0f7b2291e5b200ac8c7c3b925",
            "0x0000000000000000000000008f7714ddfecbeff5f3400a012eba53dab3bf0000",
            "0x000000000000000000000000bdb93aead85fe52c6976da17ac3f3b3859ea3aa1"
          ],
          "data": "0x0000000000000000000000000000000000000000000000000003328b944c4000",
          "blockHash": "0x10012227bcb7924e6a365c17fc2b92bf8e741d19a7f252e891b67c3c6fc84ed0",
          "blockNumber": "0x13df8e6",
          "transactionHash": "0xf0e862b3c6da0587ea8f5717e6a1ea78345dd2985a2120f8cc1e6d73cea56a45",
          "transactionIndex": "0x99",
          "logIndex": "0x1c7",
          "removed": false
        }
      ],
      "logsBloom": "0x00000000000000000000010000000000000000000000000000000000000000000000000000000000000000000000000001000800000000000000000000200000000000000000000000000000008000000000000000010000000000000000000000000000000008000000000000000000000000000000000000000000000000000000000000000000080000000000000000010000000000000000000000000010020000000000000000000000000000000000000000000000000000000000000000000000000000000000000000000000000000000000000000000000000000000010000000000000000000000000000000000000000000000000000000000000",
      "type": "0x2",
      "transactionHash": "0xf0e862b3c6da0587ea8f5717e6a1ea78345dd2985a2120f8cc1e6d73cea56a45",
      "transactionIndex": "0x99",
      "blockHash": "0x10012227bcb7924e6a365c17fc2b92bf8e741d19a7f252e891b67c3c6fc84ed0",
      "blockNumber": "0x13df8e6",
      "gasUsed": "0xb463",
      "effectiveGasPrice": "0x28926339b",
      "from": "0x8f7714ddfecbeff5f3400a012eba53dab3bf0000",
      "to": "0x917cee801a67f933f2e6b33fc0cd1ed2d5909d88",
      "contractAddress": null
    },
    {
      "status": "0x1",
      "cumulativeGasUsed": "0xff1e37",
      "logs": [
        {
          "address": "0x917cee801a67f933f2e6b33fc0cd1ed2d5909d88",
          "topics": [
            "0xddf252ad1be2c89b69c2b068fc378daa952ba7f163c4a11628f55a4df523b3ef",
            "0x0000000000000000000000008f7714ddfecbeff5f3400a012eba53dab3bf0000",
            "0x000000000000000000000000bdb93aead85fe52c6976da17ac3f3b3859ea3aa1"
          ],
          "data": "0x0000000000000000000000000000000000000000000000000003328b944c4000",
          "blockHash": "0x10012227bcb7924e6a365c17fc2b92bf8e741d19a7f252e891b67c3c6fc84ed0",
          "blockNumber": "0x13df8e6",
          "transactionHash": "0x17fc5ceb2d02b3eb8ad63a3ff417af61346d48d89b7aaa2bd24ab775a19ed469",
          "transactionIndex": "0x9a",
          "logIndex": "0x1c8",
          "removed": false
        },
        {
          "address": "0xbb2ea70c9e858123480642cf96acbcce1372dce1",
          "topics": [
            "0x61ed099e74a97a1d7f8bb0952a88ca8b7b8ebd00c126ea04671f92a81213318a"
          ],
          "data": "0x000000000000000000000000173272739bd7aa6e4e214714048a9fe6994530590000000000000000000000000000000000000000000000000000ea4d3a86a145",
          "blockHash": "0x10012227bcb7924e6a365c17fc2b92bf8e741d19a7f252e891b67c3c6fc84ed0",
          "blockNumber": "0x13df8e6",
          "transactionHash": "0x17fc5ceb2d02b3eb8ad63a3ff417af61346d48d89b7aaa2bd24ab775a19ed469",
          "transactionIndex": "0x9a",
          "logIndex": "0x1c9",
          "removed": false
        },
        {
          "address": "0xbb2ea70c9e858123480642cf96acbcce1372dce1",
          "topics": [
            "0x07ea52d82345d6e838192107d8fd7123d9c2ec8e916cd0aad13fd2b60db24644"
          ],
          "data": "0x000000000000000000000000000000000000000000000000000000000000006000000000000000000000000000000000000000000000000000000000000000c000000000000000000000000000000000000000000000000000000000000000e00000000000000000000000000000000000000000000000000000000000000002000000000000000000000000589dedbd617e0cbcb916a9223f4d1300c294236b000000000000000000000000a59ba433ac34d2927232918ef5b2eaafcf130ba500000000000000000000000000000000000000000000000000000000000000000000000000000000000000000000000000000000000000000000000000000002000000000000000000000000000000000000000000000000000009d7a6d8ca50000000000000000000000000000000000000000000000000000009b96374a250",
          "blockHash": "0x10012227bcb7924e6a365c17fc2b92bf8e741d19a7f252e891b67c3c6fc84ed0",
          "blockNumber": "0x13df8e6",
          "transactionHash": "0x17fc5ceb2d02b3eb8ad63a3ff417af61346d48d89b7aaa2bd24ab775a19ed469",
          "transactionIndex": "0x9a",
          "logIndex": "0x1ca",
          "removed": false
        },
        {
          "address": "0x1a44076050125825900e736c501f859c50fe728c",
          "topics": [
            "0x1ab700d4ced0c005b164c0f789fd09fcbb0156d4c2041b8a3bfbcd961cd1567f"
          ],
          "data": "0x00000000000000000000000000000000000000000000000000000000000000600000000000000000000000000000000000000000000000000000000000000120000000000000000000000000bb2ea70c9e858123480642cf96acbcce1372dce1000000000000000000000000000000000000000000000000000000000000009901000000000000000100007595000000000000000000000000bdb93aead85fe52c6976da17ac3f3b3859ea3aa100007606000000000000000000000000c135e57681bc7506c568288b5f116e2abd683847305ba29e3e11897de8bf69d9084c837f765e1dfba42ffd8a9689fd57abb45a360000000000000000000000008f7714ddfecbeff5f3400a012eba53dab3bf00000000000000000384000000000000000000000000000000000000000000000000000000000000000000000000000016000301001101000000000000000000000000000f424000000000000000000000",
          "blockHash": "0x10012227bcb7924e6a365c17fc2b92bf8e741d19a7f252e891b67c3c6fc84ed0",
          "blockNumber": "0x13df8e6",
          "transactionHash": "0x17fc5ceb2d02b3eb8ad63a3ff417af61346d48d89b7aaa2bd24ab775a19ed469",
          "transactionIndex": "0x9a",
          "logIndex": "0x1cb",
          "removed": false
        },
        {
          "address": "0xbdb93aead85fe52c6976da17ac3f3b3859ea3aa1",
          "topics": [
            "0x85496b760a4b7f8d66384b9df21b381f5d1b1e79f229a47aaf4c232edc2fe59a",
            "0x305ba29e3e11897de8bf69d9084c837f765e1dfba42ffd8a9689fd57abb45a36",
            "0x0000000000000000000000008f7714ddfecbeff5f3400a012eba53dab3bf0000"
          ],
          "data": "0x00000000000000000000000000000000000000000000000000000000000076060000000000000000000000000000000000000000000000000003328b944c40000000000000000000000000000000000000000000000000000003328b944c4000",
          "blockHash": "0x10012227bcb7924e6a365c17fc2b92bf8e741d19a7f252e891b67c3c6fc84ed0",
          "blockNumber": "0x13df8e6",
          "transactionHash": "0x17fc5ceb2d02b3eb8ad63a3ff417af61346d48d89b7aaa2bd24ab775a19ed469",
          "transactionIndex": "0x9a",
          "logIndex": "0x1cc",
          "removed": false
        }
      ],
      "logsBloom": "0x00000000000000000000010000000000000000000000000000000000001000000400000000000000000000000000000001000800000000000000000000000000000002000000000000000008008000000000200000010000000000000400000000000000000008028000000000000000000000200010000000000010000000000000000000000000081000080008000000010000000000000000000000000010000000008000000000100400000000000000000000400000000440000000000000000002000000000000000080000000000000000000000000000000000000000000040000000000000000000000002000000000018001000000000000000000",
      "type": "0x2",
      "transactionHash": "0x17fc5ceb2d02b3eb8ad63a3ff417af61346d48d89b7aaa2bd24ab775a19ed469",
      "transactionIndex": "0x9a",
      "blockHash": "0x10012227bcb7924e6a365c17fc2b92bf8e741d19a7f252e891b67c3c6fc84ed0",
      "blockNumber": "0x13df8e6",
      "gasUsed": "0x4e858",
      "effectiveGasPrice": "0x28926339b",
      "from": "0x8f7714ddfecbeff5f3400a012eba53dab3bf0000",
      "to": "0xbdb93aead85fe52c6976da17ac3f3b3859ea3aa1",
      "contractAddress": null
    }
  ],
  "libraries": [],
  "pending": [],
  "returns": {},
  "timestamp": 1727400006,
  "chain": 1,
  "commit": "9807dfb"
}