{
  "transactions": [
    {
      "hash": "0xd3484d63d69112f4ba8f53f72ac9131c2a6b8958c44f19b12464e6a84c2384c4",
      "transactionType": "CALL",
      "contractName": null,
      "contractAddress": "0xcd5fe23c85820f7b72d0926fc9b05b43e359b7ee",
      "function": "approve(address,uint256)",
      "arguments": [
        "0xcd2eb13D6831d4602D80E5db9230A57596CDCA63",
        "5600000000000"
      ],
      "transaction": {
        "from": "0x8f7714ddfecbeff5f3400a012eba53dab3bf0000",
        "to": "0xcd5fe23c85820f7b72d0926fc9b05b43e359b7ee",
        "gas": "0xb7de",
        "value": "0x0",
        "input": "0x095ea7b3000000000000000000000000cd2eb13d6831d4602d80e5db9230a57596cdca6300000000000000000000000000000000000000000000000000000517da02c000",
        "nonce": "0x53",
        "chainId": "0x1"
      },
      "additionalContracts": [],
      "isFixedGasLimit": false
    },
    {
      "hash": "0xa70a0a1eaf4760594ecc358bd9b82c7f36382bf72e935a8b02145d863b038e5d",
      "transactionType": "CALL",
      "contractName": null,
      "contractAddress": "0xcd2eb13d6831d4602d80e5db9230a57596cdca63",
      "function": "send((uint32,bytes32,uint256,uint256,bytes,bytes,bytes),(uint256,uint256),address)",
      "arguments": [
        "(30184, 0x0000000000000000000000008f7714ddfecbeff5f3400a012eba53dab3bf0000, 5600000000000, 5000000000000, 0x, 0x, 0x)",
        "(25592434638865, 0)",
        "0x8F7714ddFeCBEfF5F3400a012eBA53dab3Bf0000"
      ],
      "transaction": {
        "from": "0x8f7714ddfecbeff5f3400a012eba53dab3bf0000",
        "to": "0xcd2eb13d6831d4602d80e5db9230a57596cdca63",
        "gas": "0x65b4f",
        "value": "0x1746b3f9c011",
        "input": "0xc7c7f5b3000000000000000000000000000000000000000000000000000000000000008000000000000000000000000000000000000000000000000000001746b3f9c01100000000000000000000000000000000000000000000000000000000000000000000000000000000000000008f7714ddfecbeff5f3400a012eba53dab3bf000000000000000000000000000000000000000000000000000000000000000075e80000000000000000000000008f7714ddfecbeff5f3400a012eba53dab3bf000000000000000000000000000000000000000000000000000000000517da02c0000000000000000000000000000000000000000000000000000000048c2739500000000000000000000000000000000000000000000000000000000000000000e000000000000000000000000000000000000000000000000000000000000001000000000000000000000000000000000000000000000000000000000000000120000000000000000000000000000000000000000000000000000000000000000000000000000000000000000000000000000000000000000000000000000000000000000000000000000000000000000000000000000000000000000000000000",
        "nonce": "0x54",
        "chainId": "0x1"
      },
      "additionalContracts": [],
      "isFixedGasLimit": false
    }
  ],
  "receipts": [
    {
      "status": "0x1",
      "cumulativeGasUsed": "0x8eb13c",
      "logs": [
        {
          "address": "0xcd5fe23c85820f7b72d0926fc9b05b43e359b7ee",
          "topics": [
            "0x8c5be1e5ebec7d5bd14f71427d1e84f3dd0314c0f7b2291e5b200ac8c7c3b925",
            "0x0000000000000000000000008f7714ddfecbeff5f3400a012eba53dab3bf0000",
            "0x000000000000000000000000cd2eb13d6831d4602d80e5db9230a57596cdca63"
          ],
          "data": "0x00000000000000000000000000000000000000000000000000000517da02c000",
          "blockHash": "0x83422bf507c29e14fcc4b4b3ef17fdb9dcae8bfcc3424290bdcb63bae06f2dbc",
          "blockNumber": "0x13f3fde",
          "transactionHash": "0xd3484d63d69112f4ba8f53f72ac9131c2a6b8958c44f19b12464e6a84c2384c4",
          "transactionIndex": "0x6b",
          "logIndex": "0x141",
          "removed": false
        }
      ],
      "logsBloom": "0x00000000000000000000000000000000000000000000000000000000000000000000000000000000000000008000000000000800000000000000000000200000000000000100000000000000000000000000000000000000000000000000000000000000000008000000000000000000000000000000000000000000000000000008000000000000000000000000000000010000000000000000000000000000020000000000000000000000000000000000000000000000000000000000000000000000000000000000000000000000000000000200000000000000020000000010000000000000000000000000010000000000000000000000000000000000",
      "type": "0x2",
      "transactionHash": "0xd3484d63d69112f4ba8f53f72ac9131c2a6b8958c44f19b12464e6a84c2384c4",
      "transactionIndex": "0x6b",
      "blockHash": "0x83422bf507c29e14fcc4b4b3ef17fdb9dcae8bfcc3424290bdcb63bae06f2dbc",
      "blockNumber": "0x13f3fde",
      "gasUsed": "0x851f",
      "effectiveGasPrice": "0x7b4a3a60a",
      "from": "0x8f7714ddfecbeff5f3400a012eba53dab3bf0000",
      "to": "0xcd5fe23c85820f7b72d0926fc9b05b43e359b7ee",
      "contractAddress": null
    },
    {
      "status": "0x1",
      "cumulativeGasUsed": "0xa17e94",
      "logs": [
        {
          "address": "0xcd5fe23c85820f7b72d0926fc9b05b43e359b7ee",
          "topics": [
            "0x8c5be1e5ebec7d5bd14f71427d1e84f3dd0314c0f7b2291e5b200ac8c7c3b925",
            "0x0000000000000000000000008f7714ddfecbeff5f3400a012eba53dab3bf0000",
            "0x000000000000000000000000cd2eb13d6831d4602d80e5db9230a57596cdca63"
          ],
          "data": "0x0000000000000000000000000000000000000000000000000000008bb2c97000",
          "blockHash": "0x83422bf507c29e14fcc4b4b3ef17fdb9dcae8bfcc3424290bdcb63bae06f2dbc",
          "blockNumber": "0x13f3fde",
          "transactionHash": "0xa70a0a1eaf4760594ecc358bd9b82c7f36382bf72e935a8b02145d863b038e5d",
          "transactionIndex": "0x7d",
          "logIndex": "0x155",
          "removed": false
        },
        {
          "address": "0xcd5fe23c85820f7b72d0926fc9b05b43e359b7ee",
          "topics": [
            "0xddf252ad1be2c89b69c2b068fc378daa952ba7f163c4a11628f55a4df523b3ef",
            "0x0000000000000000000000008f7714ddfecbeff5f3400a012eba53dab3bf0000",
            "0x000000000000000000000000cd2eb13d6831d4602d80e5db9230a57596cdca63"
          ],
          "data": "0x0000000000000000000000000000000000000000000000000000048c27395000",
          "blockHash": "0x83422bf507c29e14fcc4b4b3ef17fdb9dcae8bfcc3424290bdcb63bae06f2dbc",
          "blockNumber": "0x13f3fde",
          "transactionHash": "0xa70a0a1eaf4760594ecc358bd9b82c7f36382bf72e935a8b02145d863b038e5d",
          "transactionIndex": "0x7d",
          "logIndex": "0x156",
          "removed": false
        },
        {
          "address": "0xbb2ea70c9e858123480642cf96acbcce1372dce1",
          "topics": [
            "0x61ed099e74a97a1d7f8bb0952a88ca8b7b8ebd00c126ea04671f92a81213318a"
          ],
          "data": "0x000000000000000000000000173272739bd7aa6e4e214714048a9fe69945305900000000000000000000000000000000000000000000000000001686eb45df5f",
          "blockHash": "0x83422bf507c29e14fcc4b4b3ef17fdb9dcae8bfcc3424290bdcb63bae06f2dbc",
          "blockNumber": "0x13f3fde",
          "transactionHash": "0xa70a0a1eaf4760594ecc358bd9b82c7f36382bf72e935a8b02145d863b038e5d",
          "transactionIndex": "0x7d",
          "logIndex": "0x157",
          "removed": false
        },
        {
          "address": "0xbb2ea70c9e858123480642cf96acbcce1372dce1",
          "topics": [
            "0x07ea52d82345d6e838192107d8fd7123d9c2ec8e916cd0aad13fd2b60db24644"
          ],
          "data": "0x000000000000000000000000000000000000000000000000000000000000006000000000000000000000000000000000000000000000000000000000000000c000000000000000000000000000000000000000000000000000000000000000e00000000000000000000000000000000000000000000000000000000000000002000000000000000000000000589dedbd617e0cbcb916a9223f4d1300c294236b000000000000000000000000a59ba433ac34d2927232918ef5b2eaafcf130ba5000000000000000000000000000000000000000000000000000000000000000000000000000000000000000000000000000000000000000000000000000000020000000000000000000000000000000000000000000000000000006078aa6d260000000000000000000000000000000000000000000000000000005f5009738c",
          "blockHash": "0x83422bf507c29e14fcc4b4b3ef17fdb9dcae8bfcc3424290bdcb63bae06f2dbc",
          "blockNumber": "0x13f3fde",
          "transactionHash": "0xa70a0a1eaf4760594ecc358bd9b82c7f36382bf72e935a8b02145d863b038e5d",
          "transactionIndex": "0x7d",
          "logIndex": "0x158",
          "removed": false
        },
        {
          "address": "0x1a44076050125825900e736c501f859c50fe728c",
          "topics": [
            "0x1ab700d4ced0c005b164c0f789fd09fcbb0156d4c2041b8a3bfbcd961cd1567f"
          ],
          "data": "0x00000000000000000000000000000000000000000000000000000000000000600000000000000000000000000000000000000000000000000000000000000120000000000000000000000000bb2ea70c9e858123480642cf96acbcce1372dce1000000000000000000000000000000000000000000000000000000000000009901000000000000000100007595000000000000000000000000cd2eb13d6831d4602d80e5db9230a57596cdca63000075e800000000000000000000000004c0599ae5a44757c0af6f9ec3b93da8976c150a9edaa7afecff07e35e4cd0ba132687c608e65f9bb747e59e81b40dd16c31fb860000000000000000000000008f7714ddfecbeff5f3400a012eba53dab3bf00000000000000000005000000000000000000000000000000000000000000000000000000000000000000000000000016000301001101000000000000000000000000000f424000000000000000000000",
          "blockHash": "0x83422bf507c29e14fcc4b4b3ef17fdb9dcae8bfcc3424290bdcb63bae06f2dbc",
          "blockNumber": "0x13f3fde",
          "transactionHash": "0xa70a0a1eaf4760594ecc358bd9b82c7f36382bf72e935a8b02145d863b038e5d",
          "transactionIndex": "0x7d",
          "logIndex": "0x159",
          "removed": false
        },
        {
          "address": "0xcd2eb13d6831d4602d80e5db9230a57596cdca63",
          "topics": [
            "0x85496b760a4b7f8d66384b9df21b381f5d1b1e79f229a47aaf4c232edc2fe59a",
            "0x9edaa7afecff07e35e4cd0ba132687c608e65f9bb747e59e81b40dd16c31fb86",
            "0x0000000000000000000000008f7714ddfecbeff5f3400a012eba53dab3bf0000"
          ],
          "data": "0x00000000000000000000000000000000000000000000000000000000000075e80000000000000000000000000000000000000000000000000000048c273950000000000000000000000000000000000000000000000000000000048c27395000",
          "blockHash": "0x83422bf507c29e14fcc4b4b3ef17fdb9dcae8bfcc3424290bdcb63bae06f2dbc",
          "blockNumber": "0x13f3fde",
          "transactionHash": "0xa70a0a1eaf4760594ecc358bd9b82c7f36382bf72e935a8b02145d863b038e5d",
          "transactionIndex": "0x7d",
          "logIndex": "0x15a",
          "removed": false
        }
      ],
      "logsBloom": "0x00000000000000000000000000000000000000000000000000000000001000000400000000400000000000008000000000000800000000000000000000200000000002000100000000000008000000000000200000000000000000000000000000000000000008008000000000000000000001000010000000000010000000000008000000000000001000080000000000010000000000000000000000000000020000008000000000100000000000000000000000400000000440000000002000000002000000000000000080000000000000000200020000000000020000000010040000000000000002000000012000000000018000000000000000000000",
      "type": "0x2",
      "transactionHash": "0xa70a0a1eaf4760594ecc358bd9b82c7f36382bf72e935a8b02145d863b038e5d",
      "transactionIndex": "0x7d",
      "blockHash": "0x83422bf507c29e14fcc4b4b3ef17fdb9dcae8bfcc3424290bdcb63bae06f2dbc",
      "blockNumber": "0x13f3fde",
      "gasUsed": "0x49a25",
      "effectiveGasPrice": "0x7b4a3a60a",
      "from": "0x8f7714ddfecbeff5f3400a012eba53dab3bf0000",
      "to": "0xcd2eb13d6831d4602d80e5db9230a57596cdca63",
      "contractAddress": null
    }
  ],
  "libraries": [],
  "pending": [],
  "returns": {},
  "timestamp": 1728408233,
  "chain": 1,
  "commit": "bc04ada"
}