{
  "transactions": [
    {
      "hash": "0xd4f9a51318004b19c1cb01a25bea54e9422a497bf5366ce4268d3eaab99effe5",
      "transactionType": "CALL",
      "contractName": null,
      "contractAddress": "0x657e8c867d8b37dcc18fa4caead9c45eb088c642",
      "function": "approve(address,uint256)",
      "arguments": [
        "0x8fc7248d57f50900b0865A6316270417445A745b",
        "6900"
      ],
      "transaction": {
        "from": "0x8f7714ddfecbeff5f3400a012eba53dab3bf0000",
        "to": "0x657e8c867d8b37dcc18fa4caead9c45eb088c642",
        "gas": "0xf8d5",
        "value": "0x0",
        "input": "0x095ea7b30000000000000000000000008fc7248d57f50900b0865a6316270417445a745b0000000000000000000000000000000000000000000000000000000000001af4",
        "nonce": "0x38",
        "chainId": "0x1"
      },
      "additionalContracts": [],
      "isFixedGasLimit": false
    },
    {
      "hash": "0xba1bd7058cf6cb535655dd3435b4fb61eef54d64d597c638c6b7cc9a19d60272",
      "transactionType": "CALL",
      "contractName": null,
      "contractAddress": "0x8fc7248d57f50900b0865a6316270417445a745b",
      "function": "send((uint32,bytes32,uint256,uint256,bytes,bytes,bytes),(uint256,uint256),address)",
      "arguments": [
        "(30214, 0x0000000000000000000000008f7714ddfecbeff5f3400a012eba53dab3bf0000, 6900, 6000, 0x, 0x, 0x)",
        "(279131079314917, 0)",
        "0x8F7714ddFeCBEfF5F3400a012eBA53dab3Bf0000"
      ],
      "transaction": {
        "from": "0x8f7714ddfecbeff5f3400a012eba53dab3bf0000",
        "to": "0x8fc7248d57f50900b0865a6316270417445a745b",
        "gas": "0x66a8a",
        "value": "0xfdde44d40de5",
        "input": "0xc7c7f5b300000000000000000000000000000000000000000000000000000000000000800000000000000000000000000000000000000000000000000000fdde44d40de500000000000000000000000000000000000000000000000000000000000000000000000000000000000000008f7714ddfecbeff5f3400a012eba53dab3bf000000000000000000000000000000000000000000000000000000000000000076060000000000000000000000008f7714ddfecbeff5f3400a012eba53dab3bf00000000000000000000000000000000000000000000000000000000000000001af4000000000000000000000000000000000000000000000000000000000000177000000000000000000000000000000000000000000000000000000000000000e000000000000000000000000000000000000000000000000000000000000001000000000000000000000000000000000000000000000000000000000000000120000000000000000000000000000000000000000000000000000000000000000000000000000000000000000000000000000000000000000000000000000000000000000000000000000000000000000000000000000000000000000000000000",
        "nonce": "0x39",
        "chainId": "0x1"
      },
      "additionalContracts": [],
      "isFixedGasLimit": false
    }
  ],
  "receipts": [
    {
      "status": "0x1",
      "cumulativeGasUsed": "0x8ca6a4",
      "logs": [
        {
          "address": "0x657e8c867d8b37dcc18fa4caead9c45eb088c642",
          "topics": [
            "0x8c5be1e5ebec7d5bd14f71427d1e84f3dd0314c0f7b2291e5b200ac8c7c3b925",
            "0x0000000000000000000000008f7714ddfecbeff5f3400a012eba53dab3bf0000",
            "0x0000000000000000000000008fc7248d57f50900b0865a6316270417445a745b"
          ],
          "data": "0x0000000000000000000000000000000000000000000000000000000000001af4",
          "blockHash": "0x57a63493acc0bd4ad73332e5b222dbd3dd1fbbd0b6f3aed5334a567c69552e54",
          "blockNumber": "0x13ddd86",
          "transactionHash": "0xd4f9a51318004b19c1cb01a25bea54e9422a497bf5366ce4268d3eaab99effe5",
          "transactionIndex": "0x5a",
          "logIndex": "0x102",
          "removed": false
        }
      ],
      "logsBloom": "0x00000000000000000000000004000000000000000000000000000000000000000000000000000000000000000000000000000810000000000000000000200000000000000000000200000000000000000000000000000000000000000000000000000000000008000000000000000000000000000000000000000000000000000000000000010000000000000000000000010000000000000000000000000000020000000000000000000000000000000000000000000000008000000000000000000000000000000000000000000000000000000000000000000000000000000010000000000000000000000000000000000000000000000000000000100000",
      "type": "0x2",
      "transactionHash": "0xd4f9a51318004b19c1cb01a25bea54e9422a497bf5366ce4268d3eaab99effe5",
      "transactionIndex": "0x5a",
      "blockHash": "0x57a63493acc0bd4ad73332e5b222dbd3dd1fbbd0b6f3aed5334a567c69552e54",
      "blockNumber": "0x13ddd86",
      "gasUsed": "0xb427",
      "effectiveGasPrice": "0x28519f0df",
      "from": "0x8f7714ddfecbeff5f3400a012eba53dab3bf0000",
      "to": "0x657e8c867d8b37dcc18fa4caead9c45eb088c642",
      "contractAddress": null
    },
    {
      "status": "0x1",
      "cumulativeGasUsed": "0xb429a8",
      "logs": [
        {
          "address": "0x657e8c867d8b37dcc18fa4caead9c45eb088c642",
          "topics": [
            "0xddf252ad1be2c89b69c2b068fc378daa952ba7f163c4a11628f55a4df523b3ef",
            "0x0000000000000000000000008f7714ddfecbeff5f3400a012eba53dab3bf0000",
            "0x0000000000000000000000008fc7248d57f50900b0865a6316270417445a745b"
          ],
          "data": "0x0000000000000000000000000000000000000000000000000000000000001af4",
          "blockHash": "0x57a63493acc0bd4ad73332e5b222dbd3dd1fbbd0b6f3aed5334a567c69552e54",
          "blockNumber": "0x13ddd86",
          "transactionHash": "0xba1bd7058cf6cb535655dd3435b4fb61eef54d64d597c638c6b7cc9a19d60272",
          "transactionIndex": "0x77",
          "logIndex": "0x141",
          "removed": false
        },
        {
          "address": "0xbb2ea70c9e858123480642cf96acbcce1372dce1",
          "topics": [
            "0x61ed099e74a97a1d7f8bb0952a88ca8b7b8ebd00c126ea04671f92a81213318a"
          ],
          "data": "0x000000000000000000000000173272739bd7aa6e4e214714048a9fe6994530590000000000000000000000000000000000000000000000000000ea4d3a86a145",
          "blockHash": "0x57a63493acc0bd4ad73332e5b222dbd3dd1fbbd0b6f3aed5334a567c69552e54",
          "blockNumber": "0x13ddd86",
          "transactionHash": "0xba1bd7058cf6cb535655dd3435b4fb61eef54d64d597c638c6b7cc9a19d60272",
          "transactionIndex": "0x77",
          "logIndex": "0x142",
          "removed": false
        },
        {
          "address": "0xbb2ea70c9e858123480642cf96acbcce1372dce1",
          "topics": [
            "0x07ea52d82345d6e838192107d8fd7123d9c2ec8e916cd0aad13fd2b60db24644"
          ],
          "data": "0x000000000000000000000000000000000000000000000000000000000000006000000000000000000000000000000000000000000000000000000000000000c000000000000000000000000000000000000000000000000000000000000000e00000000000000000000000000000000000000000000000000000000000000002000000000000000000000000589dedbd617e0cbcb916a9223f4d1300c294236b000000000000000000000000a59ba433ac34d2927232918ef5b2eaafcf130ba500000000000000000000000000000000000000000000000000000000000000000000000000000000000000000000000000000000000000000000000000000002000000000000000000000000000000000000000000000000000009d7a6d8ca50000000000000000000000000000000000000000000000000000009b96374a250",
          "blockHash": "0x57a63493acc0bd4ad73332e5b222dbd3dd1fbbd0b6f3aed5334a567c69552e54",
          "blockNumber": "0x13ddd86",
          "transactionHash": "0xba1bd7058cf6cb535655dd3435b4fb61eef54d64d597c638c6b7cc9a19d60272",
          "transactionIndex": "0x77",
          "logIndex": "0x143",
          "removed": false
        },
        {
          "address": "0x1a44076050125825900e736c501f859c50fe728c",
          "topics": [
            "0x1ab700d4ced0c005b164c0f789fd09fcbb0156d4c2041b8a3bfbcd961cd1567f"
          ],
          "data": "0x00000000000000000000000000000000000000000000000000000000000000600000000000000000000000000000000000000000000000000000000000000120000000000000000000000000bb2ea70c9e858123480642cf96acbcce1372dce10000000000000000000000000000000000000000000000000000000000000099010000000000000001000075950000000000000000000000008fc7248d57f50900b0865a6316270417445a745b0000760600000000000000000000000087dbe7b424e170b2b8289b19a3cd7d42c79e2116e705c6fbf53673f988266b95d1ee681747a6401c25204bb83c4e3f96b5a31e510000000000000000000000008f7714ddfecbeff5f3400a012eba53dab3bf00000000000000000045000000000000000000000000000000000000000000000000000000000000000000000000000016000301001101000000000000000000000000000f424000000000000000000000",
          "blockHash": "0x57a63493acc0bd4ad73332e5b222dbd3dd1fbbd0b6f3aed5334a567c69552e54",
          "blockNumber": "0x13ddd86",
          "transactionHash": "0xba1bd7058cf6cb535655dd3435b4fb61eef54d64d597c638c6b7cc9a19d60272",
          "transactionIndex": "0x77",
          "logIndex": "0x144",
          "removed": false
        },
        {
          "address": "0x8fc7248d57f50900b0865a6316270417445a745b",
          "topics": [
            "0x85496b760a4b7f8d66384b9df21b381f5d1b1e79f229a47aaf4c232edc2fe59a",
            "0xe705c6fbf53673f988266b95d1ee681747a6401c25204bb83c4e3f96b5a31e51",
            "0x0000000000000000000000008f7714ddfecbeff5f3400a012eba53dab3bf0000"
          ],
          "data": "0x00000000000000000000000000000000000000000000000000000000000076060000000000000000000000000000000000000000000000000000000000001af40000000000000000000000000000000000000000000000000000000000001af4",
          "blockHash": "0x57a63493acc0bd4ad73332e5b222dbd3dd1fbbd0b6f3aed5334a567c69552e54",
          "blockNumber": "0x13ddd86",
          "transactionHash": "0xba1bd7058cf6cb535655dd3435b4fb61eef54d64d597c638c6b7cc9a19d60272",
          "transactionIndex": "0x77",
          "logIndex": "0x145",
          "removed": false
        }
      ],
      "logsBloom": "0x00000002000000000000000004000000000000000000000000000000001000000400400000000000000000000000000000000810000000000000000000000000020002000000000200000008000000000000200000000000000000000000000000000000000008008000000000000000000000000010000000000010000000000000000000010000001000080000000000010000000000000000000000000000000000008000000000100000000000000000000000400000009440000000000000000002000000000000000080000000000000000000000010004000000000000000040000000000000000000000002000000000018000000000000000100000",
      "type": "0x2",
      "transactionHash": "0xba1bd7058cf6cb535655dd3435b4fb61eef54d64d597c638c6b7cc9a19d60272",
      "transactionIndex": "0x77",
      "blockHash": "0x57a63493acc0bd4ad73332e5b222dbd3dd1fbbd0b6f3aed5334a567c69552e54",
      "blockNumber": "0x13ddd86",
      "gasUsed": "0x4a52c",
      "effectiveGasPrice": "0x28519f0df",
      "from": "0x8f7714ddfecbeff5f3400a012eba53dab3bf0000",
      "to": "0x8fc7248d57f50900b0865a6316270417445a745b",
      "contractAddress": null
    }
  ],
  "libraries": [],
  "pending": [],
  "returns": {},
  "timestamp": 1727315570,
  "chain": 1,
  "commit": "ed557c4"
}