{
  "transactions": [
    {
      "hash": "0xa80bb4f6b416c1b39a5b222a16dcf43b18eb34bca15a5adbc695c82f9ce16df6",
      "transactionType": "CALL",
      "contractName": null,
      "contractAddress": "0xcd5fe23c85820f7b72d0926fc9b05b43e359b7ee",
      "function": "approve(address,uint256)",
      "arguments": [
        "0xFE7fe01F8B9A76803aF3750144C2715D9bcf7D0D",
        "5600000000000"
      ],
      "transaction": {
        "from": "0x8f7714ddfecbeff5f3400a012eba53dab3bf0000",
        "to": "0xcd5fe23c85820f7b72d0926fc9b05b43e359b7ee",
        "gas": "0xb7de",
        "value": "0x0",
        "input": "0x095ea7b3000000000000000000000000fe7fe01f8b9a76803af3750144c2715d9bcf7d0d00000000000000000000000000000000000000000000000000000517da02c000",
        "nonce": "0x4d",
        "chainId": "0x1"
      },
      "additionalContracts": [],
      "isFixedGasLimit": false
    },
    {
      "hash": "0xb86f9d472501655a8ca206e43798f5946f48077db20cde9b96900db87b8d40eb",
      "transactionType": "CALL",
      "contractName": null,
      "contractAddress": "0xfe7fe01f8b9a76803af3750144c2715d9bcf7d0d",
      "function": "send((uint32,bytes32,uint256,uint256,bytes,bytes,bytes),(uint256,uint256),address)",
      "arguments": [
        "(30111, 0x0000000000000000000000008f7714ddfecbeff5f3400a012eba53dab3bf0000, 5600000000000, 5000000000000, 0x, 0x, 0x)",
        "(24879806650763, 0)",
        "0x8F7714ddFeCBEfF5F3400a012eBA53dab3Bf0000"
      ],
      "transaction": {
        "from": "0x8f7714ddfecbeff5f3400a012eba53dab3bf0000",
        "to": "0xfe7fe01f8b9a76803af3750144c2715d9bcf7d0d",
        "gas": "0x61601",
        "value": "0x16a0c809998b",
        "input": "0xc7c7f5b30000000000000000000000000000000000000000000000000000000000000080000000000000000000000000000000000000000000000000000016a0c809998b00000000000000000000000000000000000000000000000000000000000000000000000000000000000000008f7714ddfecbeff5f3400a012eba53dab3bf0000000000000000000000000000000000000000000000000000000000000000759f0000000000000000000000008f7714ddfecbeff5f3400a012eba53dab3bf000000000000000000000000000000000000000000000000000000000517da02c0000000000000000000000000000000000000000000000000000000048c2739500000000000000000000000000000000000000000000000000000000000000000e000000000000000000000000000000000000000000000000000000000000001000000000000000000000000000000000000000000000000000000000000000120000000000000000000000000000000000000000000000000000000000000000000000000000000000000000000000000000000000000000000000000000000000000000000000000000000000000000000000000000000000000000000000000",
        "nonce": "0x4e",
        "chainId": "0x1"
      },
      "additionalContracts": [],
      "isFixedGasLimit": false
    }
  ],
  "receipts": [
    {
      "status": "0x1",
      "cumulativeGasUsed": "0x181bee",
      "logs": [
        {
          "address": "0xcd5fe23c85820f7b72d0926fc9b05b43e359b7ee",
          "topics": [
            "0x8c5be1e5ebec7d5bd14f71427d1e84f3dd0314c0f7b2291e5b200ac8c7c3b925",
            "0x0000000000000000000000008f7714ddfecbeff5f3400a012eba53dab3bf0000",
            "0x000000000000000000000000fe7fe01f8b9a76803af3750144c2715d9bcf7d0d"
          ],
          "data": "0x00000000000000000000000000000000000000000000000000000517da02c000",
          "blockHash": "0xf98b046ba53303b21bdf0d99834a2a088a722eecbca446e36933cedc7ba5fd22",
          "blockNumber": "0x13f2dcb",
          "transactionHash": "0xa80bb4f6b416c1b39a5b222a16dcf43b18eb34bca15a5adbc695c82f9ce16df6",
          "transactionIndex": "0xe",
          "logIndex": "0x2f",
          "removed": false
        }
      ],
      "logsBloom": "0x00000000000000000000000000000000000000000000000000000000000000000000000000000000000000008000000000000800000000000000000000200000000000000000000000000000000000000000000000001000000000000000000000000000000008000000000000000000000000000000000000000000000000000008000000000000000000000000000000010000000000000000000000000000020000000000000000000000000000000000000000000000000000000000000000000000000000000000000000000000000000000000000000000000000000000010000000000000000000000000010000000008000000200000000000000000",
      "type": "0x2",
      "transactionHash": "0xa80bb4f6b416c1b39a5b222a16dcf43b18eb34bca15a5adbc695c82f9ce16df6",
      "transactionIndex": "0xe",
      "blockHash": "0xf98b046ba53303b21bdf0d99834a2a088a722eecbca446e36933cedc7ba5fd22",
      "blockNumber": "0x13f2dcb",
      "gasUsed": "0x851f",
      "effectiveGasPrice": "0x1a3678ed5",
      "from": "0x8f7714ddfecbeff5f3400a012eba53dab3bf0000",
      "to": "0xcd5fe23c85820f7b72d0926fc9b05b43e359b7ee",
      "contractAddress": null
    },
    {
      "status": "0x1",
      "cumulativeGasUsed": "0x1230c15",
      "logs": [
        {
          "address": "0xcd5fe23c85820f7b72d0926fc9b05b43e359b7ee",
          "topics": [
            "0x8c5be1e5ebec7d5bd14f71427d1e84f3dd0314c0f7b2291e5b200ac8c7c3b925",
            "0x0000000000000000000000008f7714ddfecbeff5f3400a012eba53dab3bf0000",
            "0x000000000000000000000000fe7fe01f8b9a76803af3750144c2715d9bcf7d0d"
          ],
          "data": "0x0000000000000000000000000000000000000000000000000000008bb2c97000",
          "blockHash": "0xf98b046ba53303b21bdf0d99834a2a088a722eecbca446e36933cedc7ba5fd22",
          "blockNumber": "0x13f2dcb",
          "transactionHash": "0xb86f9d472501655a8ca206e43798f5946f48077db20cde9b96900db87b8d40eb",
          "transactionIndex": "0xb9",
          "logIndex": "0x233",
          "removed": false
        },
        {
          "address": "0xcd5fe23c85820f7b72d0926fc9b05b43e359b7ee",
          "topics": [
            "0xddf252ad1be2c89b69c2b068fc378daa952ba7f163c4a11628f55a4df523b3ef",
            "0x0000000000000000000000008f7714ddfecbeff5f3400a012eba53dab3bf0000",
            "0x000000000000000000000000fe7fe01f8b9a76803af3750144c2715d9bcf7d0d"
          ],
          "data": "0x0000000000000000000000000000000000000000000000000000048c27395000",
          "blockHash": "0xf98b046ba53303b21bdf0d99834a2a088a722eecbca446e36933cedc7ba5fd22",
          "blockNumber": "0x13f2dcb",
          "transactionHash": "0xb86f9d472501655a8ca206e43798f5946f48077db20cde9b96900db87b8d40eb",
          "transactionIndex": "0xb9",
          "logIndex": "0x234",
          "removed": false
        },
        {
          "address": "0xbb2ea70c9e858123480642cf96acbcce1372dce1",
          "topics": [
            "0x61ed099e74a97a1d7f8bb0952a88ca8b7b8ebd00c126ea04671f92a81213318a"
          ],
          "data": "0x000000000000000000000000173272739bd7aa6e4e214714048a9fe6994530590000000000000000000000000000000000000000000000000000164c22b44cff",
          "blockHash": "0xf98b046ba53303b21bdf0d99834a2a088a722eecbca446e36933cedc7ba5fd22",
          "blockNumber": "0x13f2dcb",
          "transactionHash": "0xb86f9d472501655a8ca206e43798f5946f48077db20cde9b96900db87b8d40eb",
          "transactionIndex": "0xb9",
          "logIndex": "0x235",
          "removed": false
        },
        {
          "address": "0xbb2ea70c9e858123480642cf96acbcce1372dce1",
          "topics": [
            "0x07ea52d82345d6e838192107d8fd7123d9c2ec8e916cd0aad13fd2b60db24644"
          ],
          "data": "0x000000000000000000000000000000000000000000000000000000000000006000000000000000000000000000000000000000000000000000000000000000c000000000000000000000000000000000000000000000000000000000000000e00000000000000000000000000000000000000000000000000000000000000002000000000000000000000000589dedbd617e0cbcb916a9223f4d1300c294236b000000000000000000000000a59ba433ac34d2927232918ef5b2eaafcf130ba5000000000000000000000000000000000000000000000000000000000000000000000000000000000000000000000000000000000000000000000000000000020000000000000000000000000000000000000000000000000000002ae5a3bd7900000000000000000000000000000000000000000000000000000029bfb18f13",
          "blockHash": "0xf98b046ba53303b21bdf0d99834a2a088a722eecbca446e36933cedc7ba5fd22",
          "blockNumber": "0x13f2dcb",
          "transactionHash": "0xb86f9d472501655a8ca206e43798f5946f48077db20cde9b96900db87b8d40eb",
          "transactionIndex": "0xb9",
          "logIndex": "0x236",
          "removed": false
        },
        {
          "address": "0x1a44076050125825900e736c501f859c50fe728c",
          "topics": [
            "0x1ab700d4ced0c005b164c0f789fd09fcbb0156d4c2041b8a3bfbcd961cd1567f"
          ],
          "data": "0x00000000000000000000000000000000000000000000000000000000000000600000000000000000000000000000000000000000000000000000000000000120000000000000000000000000bb2ea70c9e858123480642cf96acbcce1372dce1000000000000000000000000000000000000000000000000000000000000009901000000000000004700007595000000000000000000000000fe7fe01f8b9a76803af3750144c2715d9bcf7d0d0000759f0000000000000000000000005a7facb970d094b6c7ff1df0ea68d99e6e73cbffb480884ce5af2b60f7738f036264b01c49f47ae51542d33a9500e25d5c4621f50000000000000000000000008f7714ddfecbeff5f3400a012eba53dab3bf00000000000000000005000000000000000000000000000000000000000000000000000000000000000000000000000016000301001101000000000000000000000000000f424000000000000000000000",
          "blockHash": "0xf98b046ba53303b21bdf0d99834a2a088a722eecbca446e36933cedc7ba5fd22",
          "blockNumber": "0x13f2dcb",
          "transactionHash": "0xb86f9d472501655a8ca206e43798f5946f48077db20cde9b96900db87b8d40eb",
          "transactionIndex": "0xb9",
          "logIndex": "0x237",
          "removed": false
        },
        {
          "address": "0xfe7fe01f8b9a76803af3750144c2715d9bcf7d0d",
          "topics": [
            "0x85496b760a4b7f8d66384b9df21b381f5d1b1e79f229a47aaf4c232edc2fe59a",
            "0xb480884ce5af2b60f7738f036264b01c49f47ae51542d33a9500e25d5c4621f5",
            "0x0000000000000000000000008f7714ddfecbeff5f3400a012eba53dab3bf0000"
          ],
          "data": "0x000000000000000000000000000000000000000000000000000000000000759f0000000000000000000000000000000000000000000000000000048c273950000000000000000000000000000000000000000000000000000000048c27395000",
          "blockHash": "0xf98b046ba53303b21bdf0d99834a2a088a722eecbca446e36933cedc7ba5fd22",
          "blockNumber": "0x13f2dcb",
          "transactionHash": "0xb86f9d472501655a8ca206e43798f5946f48077db20cde9b96900db87b8d40eb",
          "transactionIndex": "0xb9",
          "logIndex": "0x238",
          "removed": false
        }
      ],
      "logsBloom": "0x00000000000000000000000000000000000000000000000000000000001000000400000000000000000000008000000000000800000000000000000000200000000002000800000000000008000000000000200000001000000000000000000000000000000008008000000000000080000080000010000000000010000000000008000000000000001000080000000000210000000000000000000000000000020000008000000000100002000000000000000000400000000440000000000000000002000000010000000080000000000000000000000000000000000000000010040000000000000000000000012000000008018000200000000000000000",
      "type": "0x2",
      "transactionHash": "0xb86f9d472501655a8ca206e43798f5946f48077db20cde9b96900db87b8d40eb",
      "transactionIndex": "0xb9",
      "blockHash": "0xf98b046ba53303b21bdf0d99834a2a088a722eecbca446e36933cedc7ba5fd22",
      "blockNumber": "0x13f2dcb",
      "gasUsed": "0x467f8",
      "effectiveGasPrice": "0x1a3678ed5",
      "from": "0x8f7714ddfecbeff5f3400a012eba53dab3bf0000",
      "to": "0xfe7fe01f8b9a76803af3750144c2715d9bcf7d0d",
      "contractAddress": null
    }
  ],
  "libraries": [],
  "pending": [],
  "returns": {},
  "timestamp": 1728352567,
  "chain": 1,
  "commit": "bc04ada"
}