{
  "transactions": [
    {
      "hash": "0xa0016ddeb2e73621856478ba686006915570b6e593eade06a56360c1c2c68880",
      "transactionType": "CALL",
      "contractName": null,
      "contractAddress": "0x917cee801a67f933f2e6b33fc0cd1ed2d5909d88",
      "function": "approve(address,uint256)",
      "arguments": [
        "0x7B6A67F1031c1d8c7bAb1cF001BDAf83271241fB",
        "5600000000000"
      ],
      "transaction": {
        "from": "0x8f7714ddfecbeff5f3400a012eba53dab3bf0000",
        "to": "0x917cee801a67f933f2e6b33fc0cd1ed2d5909d88",
        "gas": "0x960f",
        "value": "0x0",
        "input": "0x095ea7b30000000000000000000000007b6a67f1031c1d8c7bab1cf001bdaf83271241fb00000000000000000000000000000000000000000000000000000517da02c000",
        "nonce": "0x2e",
        "chainId": "0x1"
      },
      "additionalContracts": [],
      "isFixedGasLimit": false
    },
    {
      "hash": "0x9c4639cdbcedfb560df13745c739899bf19f3d95c060589c98bce252dc985dea",
      "transactionType": "CALL",
      "contractName": null,
      "contractAddress": "0x7b6a67f1031c1d8c7bab1cf001bdaf83271241fb",
      "function": "send((uint32,bytes32,uint256,uint256,bytes,bytes,bytes),(uint256,uint256),address)",
      "arguments": [
        "(30214, 0x0000000000000000000000008f7714ddfecbeff5f3400a012eba53dab3bf0000, 5600000000000, 5000000000000, 0x, 0x, 0x)",
        "(279131079314917, 0)",
        "0x8F7714ddFeCBEfF5F3400a012eBA53dab3Bf0000"
      ],
      "transaction": {
        "from": "0x8f7714ddfecbeff5f3400a012eba53dab3bf0000",
        "to": "0x7b6a67f1031c1d8c7bab1cf001bdaf83271241fb",
        "gas": "0x6e118",
        "value": "0xfdde44d40de5",
        "input": "0xc7c7f5b300000000000000000000000000000000000000000000000000000000000000800000000000000000000000000000000000000000000000000000fdde44d40de500000000000000000000000000000000000000000000000000000000000000000000000000000000000000008f7714ddfecbeff5f3400a012eba53dab3bf000000000000000000000000000000000000000000000000000000000000000076060000000000000000000000008f7714ddfecbeff5f3400a012eba53dab3bf000000000000000000000000000000000000000000000000000000000517da02c0000000000000000000000000000000000000000000000000000000048c2739500000000000000000000000000000000000000000000000000000000000000000e000000000000000000000000000000000000000000000000000000000000001000000000000000000000000000000000000000000000000000000000000000120000000000000000000000000000000000000000000000000000000000000000000000000000000000000000000000000000000000000000000000000000000000000000000000000000000000000000000000000000000000000000000000000",
        "nonce": "0x2f",
        "chainId": "0x1"
      },
      "additionalContracts": [],
      "isFixedGasLimit": false
    }
  ],
  "receipts": [
    {
      "status": "0x1",
      "cumulativeGasUsed": "0xde56f6",
      "logs": [
        {
          "address": "0x917cee801a67f933f2e6b33fc0cd1ed2d5909d88",
          "topics": [
            "0x8c5be1e5ebec7d5bd14f71427d1e84f3dd0314c0f7b2291e5b200ac8c7c3b925",
            "0x0000000000000000000000008f7714ddfecbeff5f3400a012eba53dab3bf0000",
            "0x0000000000000000000000007b6a67f1031c1d8c7bab1cf001bdaf83271241fb"
          ],
          "data": "0x00000000000000000000000000000000000000000000000000000517da02c000",
          "blockHash": "0x9f0f38507c33295b177e7abe5d5b780801f14750337e8913d93c5063060c7dcc",
          "blockNumber": "0x13dda55",
          "transactionHash": "0xa0016ddeb2e73621856478ba686006915570b6e593eade06a56360c1c2c68880",
          "transactionIndex": "0x66",
          "logIndex": "0x13c",
          "removed": false
        }
      ],
      "logsBloom": "0x00000000000000000000000000000800000000000000000000000000000000000000000000000000000000000000000041000800000000000000000000200000000000000000000000000000008000000000000000000000000000000000000000000000000008000000000000000000000000000000000000000000000000000000000000000000080000800000000000010000000000000000000000000000020000000000000000000000000000000000000000000000000000000000000000000000000000000000000000000000000000000000000000000000000000000010000000000000000000000000000000000000000000000000000000000000",
      "type": "0x2",
      "transactionHash": "0xa0016ddeb2e73621856478ba686006915570b6e593eade06a56360c1c2c68880",
      "transactionIndex": "0x66",
      "blockHash": "0x9f0f38507c33295b177e7abe5d5b780801f14750337e8913d93c5063060c7dcc",
      "blockNumber": "0x13dda55",
      "gasUsed": "0x669b",
      "effectiveGasPrice": "0x4843af99a",
      "from": "0x8f7714ddfecbeff5f3400a012eba53dab3bf0000",
      "to": "0x917cee801a67f933f2e6b33fc0cd1ed2d5909d88",
      "contractAddress": null
    },
    {
      "status": "0x1",
      "cumulativeGasUsed": "0xe351f6",
      "logs": [
        {
          "address": "0x917cee801a67f933f2e6b33fc0cd1ed2d5909d88",
          "topics": [
            "0xddf252ad1be2c89b69c2b068fc378daa952ba7f163c4a11628f55a4df523b3ef",
            "0x0000000000000000000000008f7714ddfecbeff5f3400a012eba53dab3bf0000",
            "0x0000000000000000000000007b6a67f1031c1d8c7bab1cf001bdaf83271241fb"
          ],
          "data": "0x0000000000000000000000000000000000000000000000000000048c27395000",
          "blockHash": "0x9f0f38507c33295b177e7abe5d5b780801f14750337e8913d93c5063060c7dcc",
          "blockNumber": "0x13dda55",
          "transactionHash": "0x9c4639cdbcedfb560df13745c739899bf19f3d95c060589c98bce252dc985dea",
          "transactionIndex": "0x67",
          "logIndex": "0x13d",
          "removed": false
        },
        {
          "address": "0xbb2ea70c9e858123480642cf96acbcce1372dce1",
          "topics": [
            "0x61ed099e74a97a1d7f8bb0952a88ca8b7b8ebd00c126ea04671f92a81213318a"
          ],
          "data": "0x000000000000000000000000173272739bd7aa6e4e214714048a9fe6994530590000000000000000000000000000000000000000000000000000ea4d3a86a145",
          "blockHash": "0x9f0f38507c33295b177e7abe5d5b780801f14750337e8913d93c5063060c7dcc",
          "blockNumber": "0x13dda55",
          "transactionHash": "0x9c4639cdbcedfb560df13745c739899bf19f3d95c060589c98bce252dc985dea",
          "transactionIndex": "0x67",
          "logIndex": "0x13e",
          "removed": false
        },
        {
          "address": "0xbb2ea70c9e858123480642cf96acbcce1372dce1",
          "topics": [
            "0x07ea52d82345d6e838192107d8fd7123d9c2ec8e916cd0aad13fd2b60db24644"
          ],
          "data": "0x000000000000000000000000000000000000000000000000000000000000006000000000000000000000000000000000000000000000000000000000000000c000000000000000000000000000000000000000000000000000000000000000e00000000000000000000000000000000000000000000000000000000000000002000000000000000000000000589dedbd617e0cbcb916a9223f4d1300c294236b000000000000000000000000a59ba433ac34d2927232918ef5b2eaafcf130ba500000000000000000000000000000000000000000000000000000000000000000000000000000000000000000000000000000000000000000000000000000002000000000000000000000000000000000000000000000000000009d7a6d8ca50000000000000000000000000000000000000000000000000000009b96374a250",
          "blockHash": "0x9f0f38507c33295b177e7abe5d5b780801f14750337e8913d93c5063060c7dcc",
          "blockNumber": "0x13dda55",
          "transactionHash": "0x9c4639cdbcedfb560df13745c739899bf19f3d95c060589c98bce252dc985dea",
          "transactionIndex": "0x67",
          "logIndex": "0x13f",
          "removed": false
        },
        {
          "address": "0x1a44076050125825900e736c501f859c50fe728c",
          "topics": [
            "0x1ab700d4ced0c005b164c0f789fd09fcbb0156d4c2041b8a3bfbcd961cd1567f"
          ],
          "data": "0x00000000000000000000000000000000000000000000000000000000000000600000000000000000000000000000000000000000000000000000000000000120000000000000000000000000bb2ea70c9e858123480642cf96acbcce1372dce10000000000000000000000000000000000000000000000000000000000000099010000000000000001000075950000000000000000000000007b6a67f1031c1d8c7bab1cf001bdaf83271241fb00007606000000000000000000000000422c24157ab1fedc919b30dd3418a9042f883049b188ff39e13d95559cd6727c2741492c0b978d5fe484fd43a33b0a551fda99480000000000000000000000008f7714ddfecbeff5f3400a012eba53dab3bf00000000000000000005000000000000000000000000000000000000000000000000000000000000000000000000000016000301001101000000000000000000000000000f424000000000000000000000",
          "blockHash": "0x9f0f38507c33295b177e7abe5d5b780801f14750337e8913d93c5063060c7dcc",
          "blockNumber": "0x13dda55",
          "transactionHash": "0x9c4639cdbcedfb560df13745c739899bf19f3d95c060589c98bce252dc985dea",
          "transactionIndex": "0x67",
          "logIndex": "0x140",
          "removed": false
        },
        {
          "address": "0x7b6a67f1031c1d8c7bab1cf001bdaf83271241fb",
          "topics": [
            "0x85496b760a4b7f8d66384b9df21b381f5d1b1e79f229a47aaf4c232edc2fe59a",
            "0xb188ff39e13d95559cd6727c2741492c0b978d5fe484fd43a33b0a551fda9948",
            "0x0000000000000000000000008f7714ddfecbeff5f3400a012eba53dab3bf0000"
          ],
          "data": "0x00000000000000000000000000000000000000000000000000000000000076060000000000000000000000000000000000000000000000000000048c273950000000000000000000000000000000000000000000000000000000048c27395000",
          "blockHash": "0x9f0f38507c33295b177e7abe5d5b780801f14750337e8913d93c5063060c7dcc",
          "blockNumber": "0x13dda55",
          "transactionHash": "0x9c4639cdbcedfb560df13745c739899bf19f3d95c060589c98bce252dc985dea",
          "transactionIndex": "0x67",
          "logIndex": "0x141",
          "removed": false
        }
      ],
      "logsBloom": "0x00000000000000000800000000000800000000000000000000000000001000000400000000000000000000000000000041000800000020000000000000000000000002000000000000000008008000000000200000000000000000000000000000000000000008008000000000000000000000000010000000000010000000000000000000000000081000880010000000010000000000000000000000000000000000008000000000100000000000000000000000400000000440100001000000000002000000000000000880000000000000000000000000000000000000000000040000000000000000000000002000000000018000000000000000000000",
      "type": "0x2",
      "transactionHash": "0x9c4639cdbcedfb560df13745c739899bf19f3d95c060589c98bce252dc985dea",
      "transactionIndex": "0x67",
      "blockHash": "0x9f0f38507c33295b177e7abe5d5b780801f14750337e8913d93c5063060c7dcc",
      "blockNumber": "0x13dda55",
      "gasUsed": "0x4fb00",
      "effectiveGasPrice": "0x4843af99a",
      "from": "0x8f7714ddfecbeff5f3400a012eba53dab3bf0000",
      "to": "0x7b6a67f1031c1d8c7bab1cf001bdaf83271241fb",
      "contractAddress": null
    }
  ],
  "libraries": [],
  "pending": [],
  "returns": {},
  "timestamp": 1727305733,
  "chain": 1,
  "commit": "ed557c4"
}