{
  "transactions": [
    {
      "hash": "0x3cc96623d00d8299dd6eeb54e909ab0f5fe44148f839c5da1a232e0b7aeb5ef2",
      "transactionType": "CALL",
      "contractName": null,
      "contractAddress": "0x657e8c867d8b37dcc18fa4caead9c45eb088c642",
      "function": "approve(address,uint256)",
      "arguments": [
        "0xEa95431608E72058E4e06742DDacd789c76543c8",
        "5300"
      ],
      "transaction": {
        "from": "0x8f7714ddfecbeff5f3400a012eba53dab3bf0000",
        "to": "0x657e8c867d8b37dcc18fa4caead9c45eb088c642",
        "gas": "0x1078a",
        "value": "0x0",
        "input": "0x095ea7b3000000000000000000000000ea95431608e72058e4e06742ddacd789c76543c800000000000000000000000000000000000000000000000000000000000014b4",
        "nonce": "0x3f",
        "chainId": "0x1"
      },
      "additionalContracts": [],
      "isFixedGasLimit": false
    },
    {
      "hash": "0xd67f387b5ed364f1357fcab3ef0906cb755e402fb8c43c09dc9a5bc933bbf7e0",
      "transactionType": "CALL",
      "contractName": null,
      "contractAddress": "0xea95431608e72058e4e06742ddacd789c76543c8",
      "function": "send((uint32,bytes32,uint256,uint256,bytes,bytes,bytes),(uint256,uint256),address)",
      "arguments": [
        "(30214, 0x0000000000000000000000008f7714ddfecbeff5f3400a012eba53dab3bf0000, 5300, 5000, 0x, 0x, 0x)",
        "(279131079314917, 0)",
        "0x8F7714ddFeCBEfF5F3400a012eBA53dab3Bf0000"
      ],
      "transaction": {
        "from": "0x8f7714ddfecbeff5f3400a012eba53dab3bf0000",
        "to": "0xea95431608e72058e4e06742ddacd789c76543c8",
        "gas": "0x6c6cd",
        "value": "0xfdde44d40de5",
        "input": "0xc7c7f5b300000000000000000000000000000000000000000000000000000000000000800000000000000000000000000000000000000000000000000000fdde44d40de500000000000000000000000000000000000000000000000000000000000000000000000000000000000000008f7714ddfecbeff5f3400a012eba53dab3bf000000000000000000000000000000000000000000000000000000000000000076060000000000000000000000008f7714ddfecbeff5f3400a012eba53dab3bf000000000000000000000000000000000000000000000000000000000000000014b4000000000000000000000000000000000000000000000000000000000000138800000000000000000000000000000000000000000000000000000000000000e000000000000000000000000000000000000000000000000000000000000001000000000000000000000000000000000000000000000000000000000000000120000000000000000000000000000000000000000000000000000000000000000000000000000000000000000000000000000000000000000000000000000000000000000000000000000000000000000000000000000000000000000000000000",
        "nonce": "0x40",
        "chainId": "0x1"
      },
      "additionalContracts": [],
      "isFixedGasLimit": false
    }
  ],
  "receipts": [
    {
      "status": "0x1",
      "cumulativeGasUsed": "0xa6f7a4",
      "logs": [
        {
          "address": "0x657e8c867d8b37dcc18fa4caead9c45eb088c642",
          "topics": [
            "0x8c5be1e5ebec7d5bd14f71427d1e84f3dd0314c0f7b2291e5b200ac8c7c3b925",
            "0x0000000000000000000000008f7714ddfecbeff5f3400a012eba53dab3bf0000",
            "0x000000000000000000000000ea95431608e72058e4e06742ddacd789c76543c8"
          ],
          "data": "0x00000000000000000000000000000000000000000000000000000000000014b4",
          "blockHash": "0x68809e3f224d865f23622c28023a901178aa163cfa314bffc9ea27db85b9a9dc",
          "blockNumber": "0x13df70f",
          "transactionHash": "0x3cc96623d00d8299dd6eeb54e909ab0f5fe44148f839c5da1a232e0b7aeb5ef2",
          "transactionIndex": "0x7e",
          "logIndex": "0x146",
          "removed": false
        }
      ],
      "logsBloom": "0x00000000000000000000000004000000000000000000000000000000000000000000000000000000000000000000000000000810000000000000000000200000000000000000000000000000000000000000000000000000000000000000000080000000000008000000000000000000000000000000000000000002000000000000000000010000000000000000000000010000000000000000000000000000020000000000000000000000000000000000000000000000000000000000000000000000000000000000000000000000000000000000000000000000000000000010000000000000000000000000000000000000000000000000000000008000",
      "type": "0x2",
      "transactionHash": "0x3cc96623d00d8299dd6eeb54e909ab0f5fe44148f839c5da1a232e0b7aeb5ef2",
      "transactionIndex": "0x7e",
      "blockHash": "0x68809e3f224d865f23622c28023a901178aa163cfa314bffc9ea27db85b9a9dc",
      "blockNumber": "0x13df70f",
      "gasUsed": "0xb433",
      "effectiveGasPrice": "0x358dfadd5",
      "from": "0x8f7714ddfecbeff5f3400a012eba53dab3bf0000",
      "to": "0x657e8c867d8b37dcc18fa4caead9c45eb088c642",
      "contractAddress": null
    },
    {
      "status": "0x1",
      "cumulativeGasUsed": "0xabdf9c",
      "logs": [
        {
          "address": "0x657e8c867d8b37dcc18fa4caead9c45eb088c642",
          "topics": [
            "0xddf252ad1be2c89b69c2b068fc378daa952ba7f163c4a11628f55a4df523b3ef",
            "0x0000000000000000000000008f7714ddfecbeff5f3400a012eba53dab3bf0000",
            "0x000000000000000000000000ea95431608e72058e4e06742ddacd789c76543c8"
          ],
          "data": "0x00000000000000000000000000000000000000000000000000000000000014b4",
          "blockHash": "0x68809e3f224d865f23622c28023a901178aa163cfa314bffc9ea27db85b9a9dc",
          "blockNumber": "0x13df70f",
          "transactionHash": "0xd67f387b5ed364f1357fcab3ef0906cb755e402fb8c43c09dc9a5bc933bbf7e0",
          "transactionIndex": "0x7f",
          "logIndex": "0x147",
          "removed": false
        },
        {
          "address": "0xbb2ea70c9e858123480642cf96acbcce1372dce1",
          "topics": [
            "0x61ed099e74a97a1d7f8bb0952a88ca8b7b8ebd00c126ea04671f92a81213318a"
          ],
          "data": "0x000000000000000000000000173272739bd7aa6e4e214714048a9fe6994530590000000000000000000000000000000000000000000000000000ea4d3a86a145",
          "blockHash": "0x68809e3f224d865f23622c28023a901178aa163cfa314bffc9ea27db85b9a9dc",
          "blockNumber": "0x13df70f",
          "transactionHash": "0xd67f387b5ed364f1357fcab3ef0906cb755e402fb8c43c09dc9a5bc933bbf7e0",
          "transactionIndex": "0x7f",
          "logIndex": "0x148",
          "removed": false
        },
        {
          "address": "0xbb2ea70c9e858123480642cf96acbcce1372dce1",
          "topics": [
            "0x07ea52d82345d6e838192107d8fd7123d9c2ec8e916cd0aad13fd2b60db24644"
          ],
          "data": "0x000000000000000000000000000000000000000000000000000000000000006000000000000000000000000000000000000000000000000000000000000000c000000000000000000000000000000000000000000000000000000000000000e00000000000000000000000000000000000000000000000000000000000000002000000000000000000000000589dedbd617e0cbcb916a9223f4d1300c294236b000000000000000000000000a59ba433ac34d2927232918ef5b2eaafcf130ba500000000000000000000000000000000000000000000000000000000000000000000000000000000000000000000000000000000000000000000000000000002000000000000000000000000000000000000000000000000000009d7a6d8ca50000000000000000000000000000000000000000000000000000009b96374a250",
          "blockHash": "0x68809e3f224d865f23622c28023a901178aa163cfa314bffc9ea27db85b9a9dc",
          "blockNumber": "0x13df70f",
          "transactionHash": "0xd67f387b5ed364f1357fcab3ef0906cb755e402fb8c43c09dc9a5bc933bbf7e0",
          "transactionIndex": "0x7f",
          "logIndex": "0x149",
          "removed": false
        },
        {
          "address": "0x1a44076050125825900e736c501f859c50fe728c",
          "topics": [
            "0x1ab700d4ced0c005b164c0f789fd09fcbb0156d4c2041b8a3bfbcd961cd1567f"
          ],
          "data": "0x00000000000000000000000000000000000000000000000000000000000000600000000000000000000000000000000000000000000000000000000000000120000000000000000000000000bb2ea70c9e858123480642cf96acbcce1372dce1000000000000000000000000000000000000000000000000000000000000009901000000000000000100007595000000000000000000000000ea95431608e72058e4e06742ddacd789c76543c800007606000000000000000000000000ca8df0b6bd5588f3fd651f85f6e5ace325ba9dfd16c51069aea317e4e4771305ac6ff70e67f192fa3e62a762dd318f872c12c1220000000000000000000000008f7714ddfecbeff5f3400a012eba53dab3bf00000000000000000035000000000000000000000000000000000000000000000000000000000000000000000000000016000301001101000000000000000000000000000f424000000000000000000000",
          "blockHash": "0x68809e3f224d865f23622c28023a901178aa163cfa314bffc9ea27db85b9a9dc",
          "blockNumber": "0x13df70f",
          "transactionHash": "0xd67f387b5ed364f1357fcab3ef0906cb755e402fb8c43c09dc9a5bc933bbf7e0",
          "transactionIndex": "0x7f",
          "logIndex": "0x14a",
          "removed": false
        },
        {
          "address": "0xea95431608e72058e4e06742ddacd789c76543c8",
          "topics": [
            "0x85496b760a4b7f8d66384b9df21b381f5d1b1e79f229a47aaf4c232edc2fe59a",
            "0x16c51069aea317e4e4771305ac6ff70e67f192fa3e62a762dd318f872c12c122",
            "0x0000000000000000000000008f7714ddfecbeff5f3400a012eba53dab3bf0000"
          ],
          "data": "0x000000000000000000000000000000000000000000000000000000000000760600000000000000000000000000000000000000000000000000000000000014b400000000000000000000000000000000000000000000000000000000000014b4",
          "blockHash": "0x68809e3f224d865f23622c28023a901178aa163cfa314bffc9ea27db85b9a9dc",
          "blockNumber": "0x13df70f",
          "transactionHash": "0xd67f387b5ed364f1357fcab3ef0906cb755e402fb8c43c09dc9a5bc933bbf7e0",
          "transactionIndex": "0x7f",
          "logIndex": "0x14b",
          "removed": false
        }
      ],
      "logsBloom": "0x08000000000000000000000004000000000000000000000000020000001000000400000000000000000000000000000000000810000000000000000000000000000002000800000000000008000000000000200000000000000000000000000080000000800008008000000000000000000000000010000000000012000000000000000000010000001000080000000000010000000000000000000000000000000000008000000000100000000000000000000000400000000440000000000000000202000000000000000080000000000000000800000000000000000000000000040000000000000000000000002000000000018000000000000000008000",
      "type": "0x2",
      "transactionHash": "0xd67f387b5ed364f1357fcab3ef0906cb755e402fb8c43c09dc9a5bc933bbf7e0",
      "transactionIndex": "0x7f",
      "blockHash": "0x68809e3f224d865f23622c28023a901178aa163cfa314bffc9ea27db85b9a9dc",
      "blockNumber": "0x13df70f",
      "gasUsed": "0x4e7f8",
      "effectiveGasPrice": "0x358dfadd5",
      "from": "0x8f7714ddfecbeff5f3400a012eba53dab3bf0000",
      "to": "0xea95431608e72058e4e06742ddacd789c76543c8",
      "contractAddress": null
    }
  ],
  "libraries": [],
  "pending": [],
  "returns": {},
  "timestamp": 1727394337,
  "chain": 1,
  "commit": "ed557c4"
}