{
  "transactions": [
    {
      "hash": "0xc3645db87a125435f8dde41d49369c2380ba260f09d2c092c9d8b2bb2a712901",
      "transactionType": "CALL",
      "contractName": null,
      "contractAddress": "0x657e8c867d8b37dcc18fa4caead9c45eb088c642",
      "function": "approve(address,uint256)",
      "arguments": [
        "0x8fc7248d57f50900b0865A6316270417445A745b",
        "6900"
      ],
      "transaction": {
        "from": "0x8f7714ddfecbeff5f3400a012eba53dab3bf0000",
        "to": "0x657e8c867d8b37dcc18fa4caead9c45eb088c642",
        "gas": "0xf8d5",
        "value": "0x0",
        "input": "0x095ea7b30000000000000000000000008fc7248d57f50900b0865a6316270417445a745b0000000000000000000000000000000000000000000000000000000000001af4",
        "nonce": "0x33",
        "chainId": "0x1"
      },
      "additionalContracts": [],
      "isFixedGasLimit": false
    },
    {
      "hash": "0xa5c83fc528a5e9c1cfbcca2d92427ba75be3f986eb8400359dd1f0913130c87f",
      "transactionType": "CALL",
      "contractName": null,
      "contractAddress": "0x8fc7248d57f50900b0865a6316270417445a745b",
      "function": "send((uint32,bytes32,uint256,uint256,bytes,bytes,bytes),(uint256,uint256),address)",
      "arguments": [
        "(30214, 0x0000000000000000000000008f7714ddfecbeff5f3400a012eba53dab3bf0000, 6900, 6000, 0x, 0x, 0x)",
        "(279131079314917, 0)",
        "0x8F7714ddFeCBEfF5F3400a012eBA53dab3Bf0000"
      ],
      "transaction": {
        "from": "0x8f7714ddfecbeff5f3400a012eba53dab3bf0000",
        "to": "0x8fc7248d57f50900b0865a6316270417445a745b",
        "gas": "0x6c6cd",
        "value": "0xfdde44d40de5",
        "input": "0xc7c7f5b300000000000000000000000000000000000000000000000000000000000000800000000000000000000000000000000000000000000000000000fdde44d40de500000000000000000000000000000000000000000000000000000000000000000000000000000000000000008f7714ddfecbeff5f3400a012eba53dab3bf000000000000000000000000000000000000000000000000000000000000000076060000000000000000000000008f7714ddfecbeff5f3400a012eba53dab3bf00000000000000000000000000000000000000000000000000000000000000001af4000000000000000000000000000000000000000000000000000000000000177000000000000000000000000000000000000000000000000000000000000000e000000000000000000000000000000000000000000000000000000000000001000000000000000000000000000000000000000000000000000000000000000120000000000000000000000000000000000000000000000000000000000000000000000000000000000000000000000000000000000000000000000000000000000000000000000000000000000000000000000000000000000000000000000000",
        "nonce": "0x34",
        "chainId": "0x1"
      },
      "additionalContracts": [],
      "isFixedGasLimit": false
    }
  ],
  "receipts": [
    {
      "status": "0x1",
      "cumulativeGasUsed": "0x855e25",
      "logs": [
        {
          "address": "0x657e8c867d8b37dcc18fa4caead9c45eb088c642",
          "topics": [
            "0x8c5be1e5ebec7d5bd14f71427d1e84f3dd0314c0f7b2291e5b200ac8c7c3b925",
            "0x0000000000000000000000008f7714ddfecbeff5f3400a012eba53dab3bf0000",
            "0x0000000000000000000000008fc7248d57f50900b0865a6316270417445a745b"
          ],
          "data": "0x0000000000000000000000000000000000000000000000000000000000001af4",
          "blockHash": "0x35025869d5928104839312873490e257d0fd82d86754c34a870b035e9723ef98",
          "blockNumber": "0x13ddced",
          "transactionHash": "0xc3645db87a125435f8dde41d49369c2380ba260f09d2c092c9d8b2bb2a712901",
          "transactionIndex": "0x59",
          "logIndex": "0xf6",
          "removed": false
        }
      ],
      "logsBloom": "0x00000000000000000000000004000000000000000000000000000000000000000000000000000000000000000000000000000810000000000000000000200000000000000000000200000000000000000000000000000000000000000000000000000000000008000000000000000000000000000000000000000000000000000000000000010000000000000000000000010000000000000000000000000000020000000000000000000000000000000000000000000000008000000000000000000000000000000000000000000000000000000000000000000000000000000010000000000000000000000000000000000000000000000000000000100000",
      "type": "0x2",
      "transactionHash": "0xc3645db87a125435f8dde41d49369c2380ba260f09d2c092c9d8b2bb2a712901",
      "transactionIndex": "0x59",
      "blockHash": "0x35025869d5928104839312873490e257d0fd82d86754c34a870b035e9723ef98",
      "blockNumber": "0x13ddced",
      "gasUsed": "0xb427",
      "effectiveGasPrice": "0x2d154b1a3",
      "from": "0x8f7714ddfecbeff5f3400a012eba53dab3bf0000",
      "to": "0x657e8c867d8b37dcc18fa4caead9c45eb088c642",
      "contractAddress": null
    },
    {
      "status": "0x1",
      "cumulativeGasUsed": "0x8a461d",
      "logs": [
        {
          "address": "0x657e8c867d8b37dcc18fa4caead9c45eb088c642",
          "topics": [
            "0xddf252ad1be2c89b69c2b068fc378daa952ba7f163c4a11628f55a4df523b3ef",
            "0x0000000000000000000000008f7714ddfecbeff5f3400a012eba53dab3bf0000",
            "0x0000000000000000000000008fc7248d57f50900b0865a6316270417445a745b"
          ],
          "data": "0x0000000000000000000000000000000000000000000000000000000000001af4",
          "blockHash": "0x35025869d5928104839312873490e257d0fd82d86754c34a870b035e9723ef98",
          "blockNumber": "0x13ddced",
          "transactionHash": "0xa5c83fc528a5e9c1cfbcca2d92427ba75be3f986eb8400359dd1f0913130c87f",
          "transactionIndex": "0x5a",
          "logIndex": "0xf7",
          "removed": false
        },
        {
          "address": "0xbb2ea70c9e858123480642cf96acbcce1372dce1",
          "topics": [
            "0x61ed099e74a97a1d7f8bb0952a88ca8b7b8ebd00c126ea04671f92a81213318a"
          ],
          "data": "0x000000000000000000000000173272739bd7aa6e4e214714048a9fe6994530590000000000000000000000000000000000000000000000000000ea4d3a86a145",
          "blockHash": "0x35025869d5928104839312873490e257d0fd82d86754c34a870b035e9723ef98",
          "blockNumber": "0x13ddced",
          "transactionHash": "0xa5c83fc528a5e9c1cfbcca2d92427ba75be3f986eb8400359dd1f0913130c87f",
          "transactionIndex": "0x5a",
          "logIndex": "0xf8",
          "removed": false
        },
        {
          "address": "0xbb2ea70c9e858123480642cf96acbcce1372dce1",
          "topics": [
            "0x07ea52d82345d6e838192107d8fd7123d9c2ec8e916cd0aad13fd2b60db24644"
          ],
          "data": "0x000000000000000000000000000000000000000000000000000000000000006000000000000000000000000000000000000000000000000000000000000000c000000000000000000000000000000000000000000000000000000000000000e00000000000000000000000000000000000000000000000000000000000000002000000000000000000000000589dedbd617e0cbcb916a9223f4d1300c294236b000000000000000000000000a59ba433ac34d2927232918ef5b2eaafcf130ba500000000000000000000000000000000000000000000000000000000000000000000000000000000000000000000000000000000000000000000000000000002000000000000000000000000000000000000000000000000000009d7a6d8ca50000000000000000000000000000000000000000000000000000009b96374a250",
          "blockHash": "0x35025869d5928104839312873490e257d0fd82d86754c34a870b035e9723ef98",
          "blockNumber": "0x13ddced",
          "transactionHash": "0xa5c83fc528a5e9c1cfbcca2d92427ba75be3f986eb8400359dd1f0913130c87f",
          "transactionIndex": "0x5a",
          "logIndex": "0xf9",
          "removed": false
        },
        {
          "address": "0x1a44076050125825900e736c501f859c50fe728c",
          "topics": [
            "0x1ab700d4ced0c005b164c0f789fd09fcbb0156d4c2041b8a3bfbcd961cd1567f"
          ],
          "data": "0x00000000000000000000000000000000000000000000000000000000000000600000000000000000000000000000000000000000000000000000000000000120000000000000000000000000bb2ea70c9e858123480642cf96acbcce1372dce10000000000000000000000000000000000000000000000000000000000000099010000000000000001000075950000000000000000000000008fc7248d57f50900b0865a6316270417445a745b000076060000000000000000000000008fc7248d57f50900b0865a6316270417445a745ba739edb3cc1471f53c5203f13fad2055ba3f50381eb13d82c444aba7085e89480000000000000000000000008f7714ddfecbeff5f3400a012eba53dab3bf00000000000000000045000000000000000000000000000000000000000000000000000000000000000000000000000016000301001101000000000000000000000000000f424000000000000000000000",
          "blockHash": "0x35025869d5928104839312873490e257d0fd82d86754c34a870b035e9723ef98",
          "blockNumber": "0x13ddced",
          "transactionHash": "0xa5c83fc528a5e9c1cfbcca2d92427ba75be3f986eb8400359dd1f0913130c87f",
          "transactionIndex": "0x5a",
          "logIndex": "0xfa",
          "removed": false
        },
        {
          "address": "0x8fc7248d57f50900b0865a6316270417445a745b",
          "topics": [
            "0x85496b760a4b7f8d66384b9df21b381f5d1b1e79f229a47aaf4c232edc2fe59a",
            "0xa739edb3cc1471f53c5203f13fad2055ba3f50381eb13d82c444aba7085e8948",
            "0x0000000000000000000000008f7714ddfecbeff5f3400a012eba53dab3bf0000"
          ],
          "data": "0x00000000000000000000000000000000000000000000000000000000000076060000000000000000000000000000000000000000000000000000000000001af40000000000000000000000000000000000000000000000000000000000001af4",
          "blockHash": "0x35025869d5928104839312873490e257d0fd82d86754c34a870b035e9723ef98",
          "blockNumber": "0x13ddced",
          "transactionHash": "0xa5c83fc528a5e9c1cfbcca2d92427ba75be3f986eb8400359dd1f0913130c87f",
          "transactionIndex": "0x5a",
          "logIndex": "0xfb",
          "removed": false
        }
      ],
      "logsBloom": "0x00000000000000000000000004000000000000000000000000000000001000000400000000000000000000000000000000040810000000000000000000000000020002000000000200000008000000000000200000000000000000000000000000000000000008008000000000000000000000000010000000000010000000000000000000010000001000080000000000010000000000000000000000000000000000008000000000100000000000000000000000400000009440000001000000000002000000000000000080000000000000000000000000004000000000000000041000000000000000000000002000000000018000000000000000100000",
      "type": "0x2",
      "transactionHash": "0xa5c83fc528a5e9c1cfbcca2d92427ba75be3f986eb8400359dd1f0913130c87f",
      "transactionIndex": "0x5a",
      "blockHash": "0x35025869d5928104839312873490e257d0fd82d86754c34a870b035e9723ef98",
      "blockNumber": "0x13ddced",
      "gasUsed": "0x4e7f8",
      "effectiveGasPrice": "0x2d154b1a3",
      "from": "0x8f7714ddfecbeff5f3400a012eba53dab3bf0000",
      "to": "0x8fc7248d57f50900b0865a6316270417445a745b",
      "contractAddress": null
    }
  ],
  "libraries": [],
  "pending": [],
  "returns": {},
  "timestamp": 1727313722,
  "chain": 1,
  "commit": "ed557c4"
}