{
  "transactions": [
    {
      "hash": "0xe9bf8dfd4f3283f9e469d1aaea1e932197e02872ca58e44cba1d2fb71a3ba27e",
      "transactionType": "CALL",
      "contractName": null,
      "contractAddress": "0xca8df0b6bd5588f3fd651f85f6e5ace325ba9dfd",
      "function": "approve(address,uint256)",
      "arguments": [
        "0xCA8dF0B6bD5588f3FD651F85f6E5aCe325bA9Dfd",
        "4000"
      ],
      "transaction": {
        "from": "0x8f7714ddfecbeff5f3400a012eba53dab3bf0000",
        "to": "0xca8df0b6bd5588f3fd651f85f6e5ace325ba9dfd",
        "gas": "0x114f6",
        "value": "0x0",
        "input": "0x095ea7b3000000000000000000000000ca8df0b6bd5588f3fd651f85f6e5ace325ba9dfd0000000000000000000000000000000000000000000000000000000000000fa0",
        "nonce": "0x2",
        "chainId": "0x82750"
      },
      "additionalContracts": [],
      "isFixedGasLimit": false
    },
    {
      "hash": "0xb339b6c6fb26e124bd26257eff57242ac12d12b775bde8a6a61e36fe6ad59c7d",
      "transactionType": "CALL",
      "contractName": null,
      "contractAddress": "0xca8df0b6bd5588f3fd651f85f6e5ace325ba9dfd",
      "function": "send((uint32,bytes32,uint256,uint256,bytes,bytes,bytes),(uint256,uint256),address)",
      "arguments": [
        "(30101, 0x0000000000000000000000008f7714ddfecbeff5f3400a012eba53dab3bf0000, 4000, 3500, 0x, 0x, 0x)",
        "(19480573477180998, 0)",
        "0x8F7714ddFeCBEfF5F3400a012eBA53dab3Bf0000"
      ],
      "transaction": {
        "from": "0x8f7714ddfecbeff5f3400a012eba53dab3bf0000",
        "to": "0xca8df0b6bd5588f3fd651f85f6e5ace325ba9dfd",
        "gas": "0x679bd",
        "value": "0x45357a7620d646",
        "input": "0xc7c7f5b300000000000000000000000000000000000000000000000000000000000000800000000000000000000000000000000000000000000000000045357a7620d64600000000000000000000000000000000000000000000000000000000000000000000000000000000000000008f7714ddfecbeff5f3400a012eba53dab3bf000000000000000000000000000000000000000000000000000000000000000075950000000000000000000000008f7714ddfecbeff5f3400a012eba53dab3bf00000000000000000000000000000000000000000000000000000000000000000fa00000000000000000000000000000000000000000000000000000000000000dac00000000000000000000000000000000000000000000000000000000000000e000000000000000000000000000000000000000000000000000000000000001000000000000000000000000000000000000000000000000000000000000000120000000000000000000000000000000000000000000000000000000000000000000000000000000000000000000000000000000000000000000000000000000000000000000000000000000000000000000000000000000000000000000000000",
        "nonce": "0x3",
        "chainId": "0x82750"
      },
      "additionalContracts": [],
      "isFixedGasLimit": false
    }
  ],
  "receipts": [
    {
      "status": "0x1",
      "cumulativeGasUsed": "0x12b434",
      "logs": [
        {
          "address": "0xca8df0b6bd5588f3fd651f85f6e5ace325ba9dfd",
          "topics": [
            "0x8c5be1e5ebec7d5bd14f71427d1e84f3dd0314c0f7b2291e5b200ac8c7c3b925",
            "0x0000000000000000000000008f7714ddfecbeff5f3400a012eba53dab3bf0000",
            "0x000000000000000000000000ca8df0b6bd5588f3fd651f85f6e5ace325ba9dfd"
          ],
          "data": "0x0000000000000000000000000000000000000000000000000000000000000fa0",
          "blockHash": "0xacba0ea755e3d31b7214c07ae905b67f41a0b33681250fd89689effa212dc19e",
          "blockNumber": "0x92c3b0",
          "transactionHash": "0xe9bf8dfd4f3283f9e469d1aaea1e932197e02872ca58e44cba1d2fb71a3ba27e",
          "transactionIndex": "0x7",
          "logIndex": "0x27",
          "removed": false
        }
      ],
      "logsBloom": "0x00000000000000000000000000008000000000000000000000000000000000000000000000000000000000000000000000000800000000000000000000200000000000000000000000000000000000000000000000000000000000000000000000000000000008000000000000000000000080000000000000000000000000000000000000000000000000000000000000010000000000000000000000000000020000000000000000000000000000000000020000000000000000000000000040000000000000000000000000000000000000000020001000000000000000000010000000000000000000000000000000000000000000000000000000000000",
      "type": "0x2",
      "transactionHash": "0xe9bf8dfd4f3283f9e469d1aaea1e932197e02872ca58e44cba1d2fb71a3ba27e",
      "transactionIndex": "0x7",
      "blockHash": "0xacba0ea755e3d31b7214c07ae905b67f41a0b33681250fd89689effa212dc19e",
      "blockNumber": "0x92c3b0",
      "gasUsed": "0xc884",
      "effectiveGasPrice": "0x4f06555",
      "from": "0x8f7714ddfecbeff5f3400a012eba53dab3bf0000",
      "to": "0xca8df0b6bd5588f3fd651f85f6e5ace325ba9dfd",
      "contractAddress": null,
      "l1Fee": "0x2ef6628bc22"
    },
    {
      "status": "0x1",
      "cumulativeGasUsed": "0x176461",
      "logs": [
        {
          "address": "0xca8df0b6bd5588f3fd651f85f6e5ace325ba9dfd",
          "topics": [
            "0xddf252ad1be2c89b69c2b068fc378daa952ba7f163c4a11628f55a4df523b3ef",
            "0x0000000000000000000000008f7714ddfecbeff5f3400a012eba53dab3bf0000",
            "0x0000000000000000000000000000000000000000000000000000000000000000"
          ],
          "data": "0x0000000000000000000000000000000000000000000000000000000000000fa0",
          "blockHash": "0xacba0ea755e3d31b7214c07ae905b67f41a0b33681250fd89689effa212dc19e",
          "blockNumber": "0x92c3b0",
          "transactionHash": "0xb339b6c6fb26e124bd26257eff57242ac12d12b775bde8a6a61e36fe6ad59c7d",
          "transactionIndex": "0x8",
          "logIndex": "0x28",
          "removed": false
        },
        {
          "address": "0x9bbeb2b2184b9313cf5ed4a4ddfea2ef62a2a03b",
          "topics": [
            "0x61ed099e74a97a1d7f8bb0952a88ca8b7b8ebd00c126ea04671f92a81213318a"
          ],
          "data": "0x000000000000000000000000581b26f362ad383f7b51ef8a165efa13dde398a4000000000000000000000000000000000000000000000000003c3b8636d05032",
          "blockHash": "0xacba0ea755e3d31b7214c07ae905b67f41a0b33681250fd89689effa212dc19e",
          "blockNumber": "0x92c3b0",
          "transactionHash": "0xb339b6c6fb26e124bd26257eff57242ac12d12b775bde8a6a61e36fe6ad59c7d",
          "transactionIndex": "0x8",
          "logIndex": "0x29",
          "removed": false
        },
        {
          "address": "0x9bbeb2b2184b9313cf5ed4a4ddfea2ef62a2a03b",
          "topics": [
            "0x07ea52d82345d6e838192107d8fd7123d9c2ec8e916cd0aad13fd2b60db24644"
          ],
          "data": "0x000000000000000000000000000000000000000000000000000000000000006000000000000000000000000000000000000000000000000000000000000000c000000000000000000000000000000000000000000000000000000000000000e00000000000000000000000000000000000000000000000000000000000000002000000000000000000000000446755349101cb20c582c224462c3912d3584dce000000000000000000000000be0d08a85eebfcc6eda0a843521f7cbb1180d2e2000000000000000000000000000000000000000000000000000000000000000000000000000000000000000000000000000000000000000000000000000000020000000000000000000000000000000000000000000000000004795707d418ca0000000000000000000000000000000000000000000000000004809d377c6d4a",
          "blockHash": "0xacba0ea755e3d31b7214c07ae905b67f41a0b33681250fd89689effa212dc19e",
          "blockNumber": "0x92c3b0",
          "transactionHash": "0xb339b6c6fb26e124bd26257eff57242ac12d12b775bde8a6a61e36fe6ad59c7d",
          "transactionIndex": "0x8",
          "logIndex": "0x2a",
          "removed": false
        },
        {
          "address": "0x1a44076050125825900e736c501f859c50fe728c",
          "topics": [
            "0x1ab700d4ced0c005b164c0f789fd09fcbb0156d4c2041b8a3bfbcd961cd1567f"
          ],
          "data": "0x000000000000000000000000000000000000000000000000000000000000006000000000000000000000000000000000000000000000000000000000000001200000000000000000000000009bbeb2b2184b9313cf5ed4a4ddfea2ef62a2a03b000000000000000000000000000000000000000000000000000000000000009901000000000000000100007606000000000000000000000000ca8df0b6bd5588f3fd651f85f6e5ace325ba9dfd000075950000000000000000000000008fc7248d57f50900b0865a6316270417445a745b791345f7ff665c59d800272d007e271e64aedb4dd97eb1237a795b35721eb5ae0000000000000000000000008f7714ddfecbeff5f3400a012eba53dab3bf00000000000000000028000000000000000000000000000000000000000000000000000000000000000000000000000016000301001101000000000000000000000000000f424000000000000000000000",
          "blockHash": "0xacba0ea755e3d31b7214c07ae905b67f41a0b33681250fd89689effa212dc19e",
          "blockNumber": "0x92c3b0",
          "transactionHash": "0xb339b6c6fb26e124bd26257eff57242ac12d12b775bde8a6a61e36fe6ad59c7d",
          "transactionIndex": "0x8",
          "logIndex": "0x2b",
          "removed": false
        },
        {
          "address": "0xca8df0b6bd5588f3fd651f85f6e5ace325ba9dfd",
          "topics": [
            "0x85496b760a4b7f8d66384b9df21b381f5d1b1e79f229a47aaf4c232edc2fe59a",
            "0x791345f7ff665c59d800272d007e271e64aedb4dd97eb1237a795b35721eb5ae",
            "0x0000000000000000000000008f7714ddfecbeff5f3400a012eba53dab3bf0000"
          ],
          "data": "0x00000000000000000000000000000000000000000000000000000000000075950000000000000000000000000000000000000000000000000000000000000fa00000000000000000000000000000000000000000000000000000000000000fa0",
          "blockHash": "0xacba0ea755e3d31b7214c07ae905b67f41a0b33681250fd89689effa212dc19e",
          "blockNumber": "0x92c3b0",
          "transactionHash": "0xb339b6c6fb26e124bd26257eff57242ac12d12b775bde8a6a61e36fe6ad59c7d",
          "transactionIndex": "0x8",
          "logIndex": "0x2c",
          "removed": false
        }
      ],
      "logsBloom": "0x00000000000000000000000000000000000000000000000000000000001000000000000000000000000000000000000000000800000000000000000000000000000002000000000000000008000000000000000000000000000080000000000000000000020008008000000000000800000080000010001000000010000000000000000000000000000000080000000000010000800000000008000000000000000000008000000000100000000000000000000002400000000440000000000000000402000000000000000080000000000000000020001000000000000020000000040000000000000000000000002000000000018000000000000000000000",
      "type": "0x2",
      "transactionHash": "0xb339b6c6fb26e124bd26257eff57242ac12d12b775bde8a6a61e36fe6ad59c7d",
      "transactionIndex": "0x8",
      "blockHash": "0xacba0ea755e3d31b7214c07ae905b67f41a0b33681250fd89689effa212dc19e",
      "blockNumber": "0x92c3b0",
      "gasUsed": "0x4b02d",
      "effectiveGasPrice": "0x4f06555",
      "from": "0x8f7714ddfecbeff5f3400a012eba53dab3bf0000",
      "to": "0xca8df0b6bd5588f3fd651f85f6e5ace325ba9dfd",
      "contractAddress": null,
      "l1Fee": "0x2ef6628bcc6"
    }
  ],
  "libraries": [],
  "pending": [],
  "returns": {},
  "timestamp": 1727319794,
  "chain": 534352,
  "commit": "ed557c4"
}