{
  "transactions": [
    {
      "hash": "0x20eaa9155cef4c998ec43827b7a07cfb3286455a286c2a62fdac2bff08016075",
      "transactionType": "CALL",
      "contractName": null,
      "contractAddress": "0xca8df0b6bd5588f3fd651f85f6e5ace325ba9dfd",
      "function": "approve(address,uint256)",
      "arguments": [
        "0xCA8dF0B6bD5588f3FD651F85f6E5aCe325bA9Dfd",
        "5300"
      ],
      "transaction": {
        "from": "0x8f7714ddfecbeff5f3400a012eba53dab3bf0000",
        "to": "0xca8df0b6bd5588f3fd651f85f6e5ace325ba9dfd",
        "gas": "0xb8b2",
        "value": "0x0",
        "input": "0x095ea7b3000000000000000000000000ca8df0b6bd5588f3fd651f85f6e5ace325ba9dfd00000000000000000000000000000000000000000000000000000000000014b4",
        "nonce": "0x5",
        "chainId": "0x82750"
      },
      "additionalContracts": [],
      "isFixedGasLimit": false
    },
    {
      "hash": "0x2e63c5c9026f4ec0784d9444da7a600f81ff2c24a999e622408bc302c3ef79a5",
      "transactionType": "CALL",
      "contractName": null,
      "contractAddress": "0xca8df0b6bd5588f3fd651f85f6e5ace325ba9dfd",
      "function": "send((uint32,bytes32,uint256,uint256,bytes,bytes,bytes),(uint256,uint256),address)",
      "arguments": [
        "(30101, 0x0000000000000000000000008f7714ddfecbeff5f3400a012eba53dab3bf0000, 5300, 5000, 0x, 0x, 0x)",
        "(18486836623955044, 0)",
        "0x8F7714ddFeCBEfF5F3400a012eBA53dab3Bf0000"
      ],
      "transaction": {
        "from": "0x8f7714ddfecbeff5f3400a012eba53dab3bf0000",
        "to": "0xca8df0b6bd5588f3fd651f85f6e5ace325ba9dfd",
        "gas": "0x677eb",
        "value": "0x41adae11fdd464",
        "input": "0xc7c7f5b300000000000000000000000000000000000000000000000000000000000000800000000000000000000000000000000000000000000000000041adae11fdd46400000000000000000000000000000000000000000000000000000000000000000000000000000000000000008f7714ddfecbeff5f3400a012eba53dab3bf000000000000000000000000000000000000000000000000000000000000000075950000000000000000000000008f7714ddfecbeff5f3400a012eba53dab3bf000000000000000000000000000000000000000000000000000000000000000014b4000000000000000000000000000000000000000000000000000000000000138800000000000000000000000000000000000000000000000000000000000000e000000000000000000000000000000000000000000000000000000000000001000000000000000000000000000000000000000000000000000000000000000120000000000000000000000000000000000000000000000000000000000000000000000000000000000000000000000000000000000000000000000000000000000000000000000000000000000000000000000000000000000000000000000000",
        "nonce": "0x6",
        "chainId": "0x82750"
      },
      "additionalContracts": [],
      "isFixedGasLimit": false
    }
  ],
  "receipts": [
    {
      "status": "0x1",
      "cumulativeGasUsed": "0x1f816",
      "logs": [
        {
          "address": "0xca8df0b6bd5588f3fd651f85f6e5ace325ba9dfd",
          "topics": [
            "0x8c5be1e5ebec7d5bd14f71427d1e84f3dd0314c0f7b2291e5b200ac8c7c3b925",
            "0x0000000000000000000000008f7714ddfecbeff5f3400a012eba53dab3bf0000",
            "0x000000000000000000000000ca8df0b6bd5588f3fd651f85f6e5ace325ba9dfd"
          ],
          "data": "0x00000000000000000000000000000000000000000000000000000000000014b4",
          "blockHash": "0x6b28391394371f80dc69fd87d3e9aa82770954326fc8e4627ee9ca54810f6d22",
          "blockNumber": "0x93293b",
          "transactionHash": "0x20eaa9155cef4c998ec43827b7a07cfb3286455a286c2a62fdac2bff08016075",
          "transactionIndex": "0x1",
          "logIndex": "0x1",
          "removed": false
        }
      ],
      "logsBloom": "0x00000000000000000000000000008000000000000000000000000000000000000000000000000000000000000000000000000800000000000000000000200000000000000000000000000000000000000000000000000000000000000000000000000000000008000000000000000000000080000000000000000000000000000000000000000000000000000000000000010000000000000000000000000000020000000000000000000000000000000000020000000000000000000000000040000000000000000000000000000000000000000020001000000000000000000010000000000000000000000000000000000000000000000000000000000000",
      "type": "0x2",
      "transactionHash": "0x20eaa9155cef4c998ec43827b7a07cfb3286455a286c2a62fdac2bff08016075",
      "transactionIndex": "0x1",
      "blockHash": "0x6b28391394371f80dc69fd87d3e9aa82770954326fc8e4627ee9ca54810f6d22",
      "blockNumber": "0x93293b",
      "gasUsed": "0x85b8",
      "effectiveGasPrice": "0x4fe3a00",
      "from": "0x8f7714ddfecbeff5f3400a012eba53dab3bf0000",
      "to": "0xca8df0b6bd5588f3fd651f85f6e5ace325ba9dfd",
      "contractAddress": null,
      "l1Fee": "0x2c983a4caaa"
    },
    {
      "status": "0x1",
      "cumulativeGasUsed": "0x6de20",
      "logs": [
        {
          "address": "0xca8df0b6bd5588f3fd651f85f6e5ace325ba9dfd",
          "topics": [
            "0xddf252ad1be2c89b69c2b068fc378daa952ba7f163c4a11628f55a4df523b3ef",
            "0x0000000000000000000000008f7714ddfecbeff5f3400a012eba53dab3bf0000",
            "0x0000000000000000000000000000000000000000000000000000000000000000"
          ],
          "data": "0x00000000000000000000000000000000000000000000000000000000000014b4",
          "blockHash": "0x6b28391394371f80dc69fd87d3e9aa82770954326fc8e4627ee9ca54810f6d22",
          "blockNumber": "0x93293b",
          "transactionHash": "0x2e63c5c9026f4ec0784d9444da7a600f81ff2c24a999e622408bc302c3ef79a5",
          "transactionIndex": "0x3",
          "logIndex": "0x3",
          "removed": false
        },
        {
          "address": "0x9bbeb2b2184b9313cf5ed4a4ddfea2ef62a2a03b",
          "topics": [
            "0x61ed099e74a97a1d7f8bb0952a88ca8b7b8ebd00c126ea04671f92a81213318a"
          ],
          "data": "0x000000000000000000000000581b26f362ad383f7b51ef8a165efa13dde398a4000000000000000000000000000000000000000000000000003928f2c8eaf448",
          "blockHash": "0x6b28391394371f80dc69fd87d3e9aa82770954326fc8e4627ee9ca54810f6d22",
          "blockNumber": "0x93293b",
          "transactionHash": "0x2e63c5c9026f4ec0784d9444da7a600f81ff2c24a999e622408bc302c3ef79a5",
          "transactionIndex": "0x3",
          "logIndex": "0x4",
          "removed": false
        },
        {
          "address": "0x9bbeb2b2184b9313cf5ed4a4ddfea2ef62a2a03b",
          "topics": [
            "0x07ea52d82345d6e838192107d8fd7123d9c2ec8e916cd0aad13fd2b60db24644"
          ],
          "data": "0x000000000000000000000000000000000000000000000000000000000000006000000000000000000000000000000000000000000000000000000000000000c000000000000000000000000000000000000000000000000000000000000000e00000000000000000000000000000000000000000000000000000000000000002000000000000000000000000446755349101cb20c582c224462c3912d3584dce000000000000000000000000be0d08a85eebfcc6eda0a843521f7cbb1180d2e20000000000000000000000000000000000000000000000000000000000000000000000000000000000000000000000000000000000000000000000000000000200000000000000000000000000000000000000000000000000043eea0bd823db000000000000000000000000000000000000000000000000000445d13d3abc41",
          "blockHash": "0x6b28391394371f80dc69fd87d3e9aa82770954326fc8e4627ee9ca54810f6d22",
          "blockNumber": "0x93293b",
          "transactionHash": "0x2e63c5c9026f4ec0784d9444da7a600f81ff2c24a999e622408bc302c3ef79a5",
          "transactionIndex": "0x3",
          "logIndex": "0x5",
          "removed": false
        },
        {
          "address": "0x1a44076050125825900e736c501f859c50fe728c",
          "topics": [
            "0x1ab700d4ced0c005b164c0f789fd09fcbb0156d4c2041b8a3bfbcd961cd1567f"
          ],
          "data": "0x000000000000000000000000000000000000000000000000000000000000006000000000000000000000000000000000000000000000000000000000000001200000000000000000000000009bbeb2b2184b9313cf5ed4a4ddfea2ef62a2a03b000000000000000000000000000000000000000000000000000000000000009901000000000000000100007606000000000000000000000000ca8df0b6bd5588f3fd651f85f6e5ace325ba9dfd00007595000000000000000000000000ea95431608e72058e4e06742ddacd789c76543c86dfd58a79c31e5f823d7bb9eee9c00f2b26a81eb3e36d29cff3fd5dcfbb0a93e0000000000000000000000008f7714ddfecbeff5f3400a012eba53dab3bf00000000000000000035000000000000000000000000000000000000000000000000000000000000000000000000000016000301001101000000000000000000000000000f424000000000000000000000",
          "blockHash": "0x6b28391394371f80dc69fd87d3e9aa82770954326fc8e4627ee9ca54810f6d22",
          "blockNumber": "0x93293b",
          "transactionHash": "0x2e63c5c9026f4ec0784d9444da7a600f81ff2c24a999e622408bc302c3ef79a5",
          "transactionIndex": "0x3",
          "logIndex": "0x6",
          "removed": false
        },
        {
          "address": "0xca8df0b6bd5588f3fd651f85f6e5ace325ba9dfd",
          "topics": [
            "0x85496b760a4b7f8d66384b9df21b381f5d1b1e79f229a47aaf4c232edc2fe59a",
            "0x6dfd58a79c31e5f823d7bb9eee9c00f2b26a81eb3e36d29cff3fd5dcfbb0a93e",
            "0x0000000000000000000000008f7714ddfecbeff5f3400a012eba53dab3bf0000"
          ],
          "data": "0x000000000000000000000000000000000000000000000000000000000000759500000000000000000000000000000000000000000000000000000000000014b400000000000000000000000000000000000000000000000000000000000014b4",
          "blockHash": "0x6b28391394371f80dc69fd87d3e9aa82770954326fc8e4627ee9ca54810f6d22",
          "blockNumber": "0x93293b",
          "transactionHash": "0x2e63c5c9026f4ec0784d9444da7a600f81ff2c24a999e622408bc302c3ef79a5",
          "transactionIndex": "0x3",
          "logIndex": "0x7",
          "removed": false
        }
      ],
      "logsBloom": "0x00080000000000000000000000000000000000000000000000000000001000000000000000000000000000000000000000000800000000000000000000000000000002000000000000000008000000000000000000000000000000000000000000000000020008008000000000000800000080000010001000000010000000000000000010000000000000080000000000010000000000000008000000000000000000008000000000100000000000000000000000400000000440000000000000000402000000000000000080000000000000000020001000000000000020000000040000000000000000000000002000000020018000000000000000000000",
      "type": "0x2",
      "transactionHash": "0x2e63c5c9026f4ec0784d9444da7a600f81ff2c24a999e622408bc302c3ef79a5",
      "transactionIndex": "0x3",
      "blockHash": "0x6b28391394371f80dc69fd87d3e9aa82770954326fc8e4627ee9ca54810f6d22",
      "blockNumber": "0x93293b",
      "gasUsed": "0x46c41",
      "effectiveGasPrice": "0x4fe3a00",
      "from": "0x8f7714ddfecbeff5f3400a012eba53dab3bf0000",
      "to": "0xca8df0b6bd5588f3fd651f85f6e5ace325ba9dfd",
      "contractAddress": null,
      "l1Fee": "0x2c983a4cb4f"
    }
  ],
  "libraries": [],
  "pending": [],
  "returns": {},
  "timestamp": 1727397312,
  "chain": 534352,
  "commit": "9807dfb"
}