{
  "transactions": [
    {
      "hash": "0x1d5a2992db435cabcc9f4689ac703961c2c690b50860673f4dabbcb87e183576",
      "transactionType": "CALL",
      "contractName": null,
      "contractAddress": "0xc135e57681bc7506c568288b5f116e2abd683847",
      "function": "approve(address,uint256)",
      "arguments": [
        "0xC135E57681BC7506c568288b5f116e2abd683847",
        "900000000000000"
      ],
      "transaction": {
        "from": "0x8f7714ddfecbeff5f3400a012eba53dab3bf0000",
        "to": "0xc135e57681bc7506c568288b5f116e2abd683847",
        "gas": "0x11538",
        "value": "0x0",
        "input": "0x095ea7b3000000000000000000000000c135e57681bc7506c568288b5f116e2abd6838470000000000000000000000000000000000000000000000000003328b944c4000",
        "nonce": "0x8",
        "chainId": "0x82750"
      },
      "additionalContracts": [],
      "isFixedGasLimit": false
    },
    {
      "hash": "0xb4beb4723b3acd2a746080a3a66cdf89e559a925ec7166a000cac8ccfc75bfb2",
      "transactionType": "CALL",
      "contractName": null,
      "contractAddress": "0xc135e57681bc7506c568288b5f116e2abd683847",
      "function": "send((uint32,bytes32,uint256,uint256,bytes,bytes,bytes),(uint256,uint256),address)",
      "arguments": [
        "(30101, 0x0000000000000000000000008f7714ddfecbeff5f3400a012eba53dab3bf0000, 900000000000000, 850000000000000, 0x, 0x, 0x)",
        "(13368339209766667, 0)",
        "0x8F7714ddFeCBEfF5F3400a012eBA53dab3Bf0000"
      ],
      "transaction": {
        "from": "0x8f7714ddfecbeff5f3400a012eba53dab3bf0000",
        "to": "0xc135e57681bc7506c568288b5f116e2abd683847",
        "gas": "0x67a41",
        "value": "0x2f7e6f05d5c70b",
        "input": "0xc7c7f5b30000000000000000000000000000000000000000000000000000000000000080000000000000000000000000000000000000000000000000002f7e6f05d5c70b00000000000000000000000000000000000000000000000000000000000000000000000000000000000000008f7714ddfecbeff5f3400a012eba53dab3bf000000000000000000000000000000000000000000000000000000000000000075950000000000000000000000008f7714ddfecbeff5f3400a012eba53dab3bf00000000000000000000000000000000000000000000000000000003328b944c4000000000000000000000000000000000000000000000000000000305120c0f200000000000000000000000000000000000000000000000000000000000000000e000000000000000000000000000000000000000000000000000000000000001000000000000000000000000000000000000000000000000000000000000000120000000000000000000000000000000000000000000000000000000000000000000000000000000000000000000000000000000000000000000000000000000000000000000000000000000000000000000000000000000000000000000000000",
        "nonce": "0x9",
        "chainId": "0x82750"
      },
      "additionalContracts": [],
      "isFixedGasLimit": false
    }
  ],
  "receipts": [
    {
      "status": "0x1",
      "cumulativeGasUsed": "0x1fbcb8",
      "logs": [
        {
          "address": "0xc135e57681bc7506c568288b5f116e2abd683847",
          "topics": [
            "0x8c5be1e5ebec7d5bd14f71427d1e84f3dd0314c0f7b2291e5b200ac8c7c3b925",
            "0x0000000000000000000000008f7714ddfecbeff5f3400a012eba53dab3bf0000",
            "0x000000000000000000000000c135e57681bc7506c568288b5f116e2abd683847"
          ],
          "data": "0x0000000000000000000000000000000000000000000000000003328b944c4000",
          "blockHash": "0xe0d5a7ca91c15bfd892100e8366fb14a09d639b81b0b7e5a7d47e928a13af8b7",
          "blockNumber": "0x932ebe",
          "transactionHash": "0x1d5a2992db435cabcc9f4689ac703961c2c690b50860673f4dabbcb87e183576",
          "transactionIndex": "0x7",
          "logIndex": "0x38",
          "removed": false
        }
      ],
      "logsBloom": "0x00000000002000000000000000000000000000000000000000000000000000000000000000000800000000000000000000000800000000000000000000200000000000000000000000000000000000000000000080000000000000000000200000000000000008000000000000100000000000000000000000000000000000000000000000000000000000000000000000010000000000000000000000000000020000000000000000000000000000000000000000000000000000000000000000000000000000000000000040000000000000000000000000000000000000000010000000000000000000000000000000000000000000000000000000000000",
      "type": "0x2",
      "transactionHash": "0x1d5a2992db435cabcc9f4689ac703961c2c690b50860673f4dabbcb87e183576",
      "transactionIndex": "0x7",
      "blockHash": "0xe0d5a7ca91c15bfd892100e8366fb14a09d639b81b0b7e5a7d47e928a13af8b7",
      "blockNumber": "0x932ebe",
      "gasUsed": "0xc8b4",
      "effectiveGasPrice": "0x42ba4e0",
      "from": "0x8f7714ddfecbeff5f3400a012eba53dab3bf0000",
      "to": "0xc135e57681bc7506c568288b5f116e2abd683847",
      "contractAddress": null,
      "l1Fee": "0x22c5b746b24"
    },
    {
      "status": "0x1",
      "cumulativeGasUsed": "0x29c2f3",
      "logs": [
        {
          "address": "0xc135e57681bc7506c568288b5f116e2abd683847",
          "topics": [
            "0xddf252ad1be2c89b69c2b068fc378daa952ba7f163c4a11628f55a4df523b3ef",
            "0x0000000000000000000000008f7714ddfecbeff5f3400a012eba53dab3bf0000",
            "0x0000000000000000000000000000000000000000000000000000000000000000"
          ],
          "data": "0x0000000000000000000000000000000000000000000000000003328b944c4000",
          "blockHash": "0xe0d5a7ca91c15bfd892100e8366fb14a09d639b81b0b7e5a7d47e928a13af8b7",
          "blockNumber": "0x932ebe",
          "transactionHash": "0xb4beb4723b3acd2a746080a3a66cdf89e559a925ec7166a000cac8ccfc75bfb2",
          "transactionIndex": "0xa",
          "logIndex": "0x42",
          "removed": false
        },
        {
          "address": "0x9bbeb2b2184b9313cf5ed4a4ddfea2ef62a2a03b",
          "topics": [
            "0x61ed099e74a97a1d7f8bb0952a88ca8b7b8ebd00c126ea04671f92a81213318a"
          ],
          "data": "0x000000000000000000000000581b26f362ad383f7b51ef8a165efa13dde398a40000000000000000000000000000000000000000000000000029557c9e642552",
          "blockHash": "0xe0d5a7ca91c15bfd892100e8366fb14a09d639b81b0b7e5a7d47e928a13af8b7",
          "blockNumber": "0x932ebe",
          "transactionHash": "0xb4beb4723b3acd2a746080a3a66cdf89e559a925ec7166a000cac8ccfc75bfb2",
          "transactionIndex": "0xa",
          "logIndex": "0x43",
          "removed": false
        },
        {
          "address": "0x9bbeb2b2184b9313cf5ed4a4ddfea2ef62a2a03b",
          "topics": [
            "0x07ea52d82345d6e838192107d8fd7123d9c2ec8e916cd0aad13fd2b60db24644"
          ],
          "data": "0x000000000000000000000000000000000000000000000000000000000000006000000000000000000000000000000000000000000000000000000000000000c000000000000000000000000000000000000000000000000000000000000000e00000000000000000000000000000000000000000000000000000000000000002000000000000000000000000446755349101cb20c582c224462c3912d3584dce000000000000000000000000be0d08a85eebfcc6eda0a843521f7cbb1180d2e200000000000000000000000000000000000000000000000000000000000000000000000000000000000000000000000000000000000000000000000000000002000000000000000000000000000000000000000000000000000311fa3fca2903000000000000000000000000000000000000000000000000000316f827a778b6",
          "blockHash": "0xe0d5a7ca91c15bfd892100e8366fb14a09d639b81b0b7e5a7d47e928a13af8b7",
          "blockNumber": "0x932ebe",
          "transactionHash": "0xb4beb4723b3acd2a746080a3a66cdf89e559a925ec7166a000cac8ccfc75bfb2",
          "transactionIndex": "0xa",
          "logIndex": "0x44",
          "removed": false
        },
        {
          "address": "0x1a44076050125825900e736c501f859c50fe728c",
          "topics": [
            "0x1ab700d4ced0c005b164c0f789fd09fcbb0156d4c2041b8a3bfbcd961cd1567f"
          ],
          "data": "0x000000000000000000000000000000000000000000000000000000000000006000000000000000000000000000000000000000000000000000000000000001200000000000000000000000009bbeb2b2184b9313cf5ed4a4ddfea2ef62a2a03b000000000000000000000000000000000000000000000000000000000000009901000000000000000100007606000000000000000000000000c135e57681bc7506c568288b5f116e2abd68384700007595000000000000000000000000bdb93aead85fe52c6976da17ac3f3b3859ea3aa1691dc978e8f35d3dbb4d1e210a22575e2ac2b21a0f6f8d904da99cd7b31a76350000000000000000000000008f7714ddfecbeff5f3400a012eba53dab3bf00000000000000000384000000000000000000000000000000000000000000000000000000000000000000000000000016000301001101000000000000000000000000000f424000000000000000000000",
          "blockHash": "0xe0d5a7ca91c15bfd892100e8366fb14a09d639b81b0b7e5a7d47e928a13af8b7",
          "blockNumber": "0x932ebe",
          "transactionHash": "0xb4beb4723b3acd2a746080a3a66cdf89e559a925ec7166a000cac8ccfc75bfb2",
          "transactionIndex": "0xa",
          "logIndex": "0x45",
          "removed": false
        },
        {
          "address": "0xc135e57681bc7506c568288b5f116e2abd683847",
          "topics": [
            "0x85496b760a4b7f8d66384b9df21b381f5d1b1e79f229a47aaf4c232edc2fe59a",
            "0x691dc978e8f35d3dbb4d1e210a22575e2ac2b21a0f6f8d904da99cd7b31a7635",
            "0x0000000000000000000000008f7714ddfecbeff5f3400a012eba53dab3bf0000"
          ],
          "data": "0x00000000000000000000000000000000000000000000000000000000000075950000000000000000000000000000000000000000000000000003328b944c40000000000000000000000000000000000000000000000000000003328b944c4000",
          "blockHash": "0xe0d5a7ca91c15bfd892100e8366fb14a09d639b81b0b7e5a7d47e928a13af8b7",
          "blockNumber": "0x932ebe",
          "transactionHash": "0xb4beb4723b3acd2a746080a3a66cdf89e559a925ec7166a000cac8ccfc75bfb2",
          "transactionIndex": "0xa",
          "logIndex": "0x46",
          "removed": false
        }
      ],
      "logsBloom": "0x000000000000000000000000000000000000000000000000000000000010000000000000000008000000000000000000000008000000000000000000000000000000020000000000000000080000040000000000000000000000000000000000000000000200080080000000001008000000000000100010000000100000000000000000000000000000000800000000000100000000000000080000000000000000000080000000001001000000000000000000004000000004400000000000000004020000000000000000c0000000000000000000000000000000000020000000040000000002000000000000002000000000018000000000000000000000",
      "type": "0x2",
      "transactionHash": "0xb4beb4723b3acd2a746080a3a66cdf89e559a925ec7166a000cac8ccfc75bfb2",
      "transactionIndex": "0xa",
      "blockHash": "0xe0d5a7ca91c15bfd892100e8366fb14a09d639b81b0b7e5a7d47e928a13af8b7",
      "blockNumber": "0x932ebe",
      "gasUsed": "0x4b08d",
      "effectiveGasPrice": "0x42ba4e0",
      "from": "0x8f7714ddfecbeff5f3400a012eba53dab3bf0000",
      "to": "0xc135e57681bc7506c568288b5f116e2abd683847",
      "contractAddress": null,
      "l1Fee": "0x22c5b746bc8"
    }
  ],
  "libraries": [],
  "pending": [],
  "returns": {},
  "timestamp": 1727401542,
  "chain": 534352,
  "commit": "9807dfb"
}