{
  "transactions": [
    {
      "hash": "0x6457f0f5198eadcaf179ae7fc399c63a8427ac4253bf19622f3c0fb908f1d922",
      "transactionType": "CALL",
      "contractName": null,
      "contractAddress": "0x422c24157ab1fedc919b30dd3418a9042f883049",
      "function": "approve(address,uint256)",
      "arguments": [
        "0x422c24157Ab1FEdC919B30DD3418A9042F883049",
        "5600000000000"
      ],
      "transaction": {
        "from": "0x8f7714ddfecbeff5f3400a012eba53dab3bf0000",
        "to": "0x422c24157ab1fedc919b30dd3418a9042f883049",
        "gas": "0x11527",
        "value": "0x0",
        "input": "0x095ea7b3000000000000000000000000422c24157ab1fedc919b30dd3418a9042f88304900000000000000000000000000000000000000000000000000000517da02c000",
        "nonce": "0x0",
        "chainId": "0x82750"
      },
      "additionalContracts": [],
      "isFixedGasLimit": false
    },
    {
      "hash": "0xe1bef5ecfc370084eff0df7d2f9ddd95135d4f3483191efec7ad55c8b2534bed",
      "transactionType": "CALL",
      "contractName": null,
      "contractAddress": "0x422c24157ab1fedc919b30dd3418a9042f883049",
      "function": "send((uint32,bytes32,uint256,uint256,bytes,bytes,bytes),(uint256,uint256),address)",
      "arguments": [
        "(30101, 0x0000000000000000000000008f7714ddfecbeff5f3400a012eba53dab3bf0000, 5600000000000, 5000000000000, 0x, 0x, 0x)",
        "(17415159917352396, 0)",
        "0x8F7714ddFeCBEfF5F3400a012eBA53dab3Bf0000"
      ],
      "transaction": {
        "from": "0x8f7714ddfecbeff5f3400a012eba53dab3bf0000",
        "to": "0x422c24157ab1fedc919b30dd3418a9042f883049",
        "gas": "0x67a21",
        "value": "0x3ddefee49495cc",
        "input": "0xc7c7f5b30000000000000000000000000000000000000000000000000000000000000080000000000000000000000000000000000000000000000000003ddefee49495cc00000000000000000000000000000000000000000000000000000000000000000000000000000000000000008f7714ddfecbeff5f3400a012eba53dab3bf000000000000000000000000000000000000000000000000000000000000000075950000000000000000000000008f7714ddfecbeff5f3400a012eba53dab3bf000000000000000000000000000000000000000000000000000000000517da02c0000000000000000000000000000000000000000000000000000000048c2739500000000000000000000000000000000000000000000000000000000000000000e000000000000000000000000000000000000000000000000000000000000001000000000000000000000000000000000000000000000000000000000000000120000000000000000000000000000000000000000000000000000000000000000000000000000000000000000000000000000000000000000000000000000000000000000000000000000000000000000000000000000000000000000000000000",
        "nonce": "0x1",
        "chainId": "0x82750"
      },
      "additionalContracts": [],
      "isFixedGasLimit": false
    }
  ],
  "receipts": [
    {
      "status": "0x1",
      "cumulativeGasUsed": "0x28a1f3",
      "logs": [
        {
          "address": "0x422c24157ab1fedc919b30dd3418a9042f883049",
          "topics": [
            "0x8c5be1e5ebec7d5bd14f71427d1e84f3dd0314c0f7b2291e5b200ac8c7c3b925",
            "0x0000000000000000000000008f7714ddfecbeff5f3400a012eba53dab3bf0000",
            "0x000000000000000000000000422c24157ab1fedc919b30dd3418a9042f883049"
          ],
          "data": "0x00000000000000000000000000000000000000000000000000000517da02c000",
          "blockHash": "0x725f08b898739bc97966cb5738af08390892fe2bc4a82d7841bed21b2f99bd06",
          "blockNumber": "0x92b34d",
          "transactionHash": "0x6457f0f5198eadcaf179ae7fc399c63a8427ac4253bf19622f3c0fb908f1d922",
          "transactionIndex": "0x8",
          "logIndex": "0x15",
          "removed": false
        }
      ],
      "logsBloom": "0x00000000000000000000000000000000000000000000000000800000001000000000000000000000000000000200000000000800000000000000008000200000000000000000000000000000000000000000000000000000000000000000000000000000000008000000000000000000000000000000000000000000000000000000000000000000000000000000000000010000000000000000000000000000020000000000000000000000000000000000000000000000000000000000000000000000000000000000000000000000000000000000040000000000000010000010000000000000000000000000000000000000000000000000000000000000",
      "type": "0x2",
      "transactionHash": "0x6457f0f5198eadcaf179ae7fc399c63a8427ac4253bf19622f3c0fb908f1d922",
      "transactionIndex": "0x8",
      "blockHash": "0x725f08b898739bc97966cb5738af08390892fe2bc4a82d7841bed21b2f99bd06",
      "blockNumber": "0x92b34d",
      "gasUsed": "0xc8a8",
      "effectiveGasPrice": "0x519352b",
      "from": "0x8f7714ddfecbeff5f3400a012eba53dab3bf0000",
      "to": "0x422c24157ab1fedc919b30dd3418a9042f883049",
      "contractAddress": null,
      "l1Fee": "0x2e2fe95a174"
    },
    {
      "status": "0x1",
      "cumulativeGasUsed": "0x2d5268",
      "logs": [
        {
          "address": "0x422c24157ab1fedc919b30dd3418a9042f883049",
          "topics": [
            "0xddf252ad1be2c89b69c2b068fc378daa952ba7f163c4a11628f55a4df523b3ef",
            "0x0000000000000000000000008f7714ddfecbeff5f3400a012eba53dab3bf0000",
            "0x0000000000000000000000000000000000000000000000000000000000000000"
          ],
          "data": "0x0000000000000000000000000000000000000000000000000000048c27395000",
          "blockHash": "0x725f08b898739bc97966cb5738af08390892fe2bc4a82d7841bed21b2f99bd06",
          "blockNumber": "0x92b34d",
          "transactionHash": "0xe1bef5ecfc370084eff0df7d2f9ddd95135d4f3483191efec7ad55c8b2534bed",
          "transactionIndex": "0x9",
          "logIndex": "0x16",
          "removed": false
        },
        {
          "address": "0x9bbeb2b2184b9313cf5ed4a4ddfea2ef62a2a03b",
          "topics": [
            "0x61ed099e74a97a1d7f8bb0952a88ca8b7b8ebd00c126ea04671f92a81213318a"
          ],
          "data": "0x000000000000000000000000581b26f362ad383f7b51ef8a165efa13dde398a40000000000000000000000000000000000000000000000000035d8ae345f386e",
          "blockHash": "0x725f08b898739bc97966cb5738af08390892fe2bc4a82d7841bed21b2f99bd06",
          "blockNumber": "0x92b34d",
          "transactionHash": "0xe1bef5ecfc370084eff0df7d2f9ddd95135d4f3483191efec7ad55c8b2534bed",
          "transactionIndex": "0x9",
          "logIndex": "0x17",
          "removed": false
        },
        {
          "address": "0x9bbeb2b2184b9313cf5ed4a4ddfea2ef62a2a03b",
          "topics": [
            "0x07ea52d82345d6e838192107d8fd7123d9c2ec8e916cd0aad13fd2b60db24644"
          ],
          "data": "0x000000000000000000000000000000000000000000000000000000000000006000000000000000000000000000000000000000000000000000000000000000c000000000000000000000000000000000000000000000000000000000000000e00000000000000000000000000000000000000000000000000000000000000002000000000000000000000000446755349101cb20c582c224462c3912d3584dce000000000000000000000000be0d08a85eebfcc6eda0a843521f7cbb1180d2e2000000000000000000000000000000000000000000000000000000000000000000000000000000000000000000000000000000000000000000000000000000020000000000000000000000000000000000000000000000000003ffe7f833b82200000000000000000000000000000000000000000000000000040668b801a53c",
          "blockHash": "0x725f08b898739bc97966cb5738af08390892fe2bc4a82d7841bed21b2f99bd06",
          "blockNumber": "0x92b34d",
          "transactionHash": "0xe1bef5ecfc370084eff0df7d2f9ddd95135d4f3483191efec7ad55c8b2534bed",
          "transactionIndex": "0x9",
          "logIndex": "0x18",
          "removed": false
        },
        {
          "address": "0x1a44076050125825900e736c501f859c50fe728c",
          "topics": [
            "0x1ab700d4ced0c005b164c0f789fd09fcbb0156d4c2041b8a3bfbcd961cd1567f"
          ],
          "data": "0x000000000000000000000000000000000000000000000000000000000000006000000000000000000000000000000000000000000000000000000000000001200000000000000000000000009bbeb2b2184b9313cf5ed4a4ddfea2ef62a2a03b000000000000000000000000000000000000000000000000000000000000009901000000000000000100007606000000000000000000000000422c24157ab1fedc919b30dd3418a9042f883049000075950000000000000000000000007b6a67f1031c1d8c7bab1cf001bdaf83271241fb80906c132403c38fe55877665b94d4fc7704e200a23ebe36d004a60a269c43530000000000000000000000008f7714ddfecbeff5f3400a012eba53dab3bf00000000000000000005000000000000000000000000000000000000000000000000000000000000000000000000000016000301001101000000000000000000000000000f424000000000000000000000",
          "blockHash": "0x725f08b898739bc97966cb5738af08390892fe2bc4a82d7841bed21b2f99bd06",
          "blockNumber": "0x92b34d",
          "transactionHash": "0xe1bef5ecfc370084eff0df7d2f9ddd95135d4f3483191efec7ad55c8b2534bed",
          "transactionIndex": "0x9",
          "logIndex": "0x19",
          "removed": false
        },
        {
          "address": "0x422c24157ab1fedc919b30dd3418a9042f883049",
          "topics": [
            "0x85496b760a4b7f8d66384b9df21b381f5d1b1e79f229a47aaf4c232edc2fe59a",
            "0x80906c132403c38fe55877665b94d4fc7704e200a23ebe36d004a60a269c4353",
            "0x0000000000000000000000008f7714ddfecbeff5f3400a012eba53dab3bf0000"
          ],
          "data": "0x00000000000000000000000000000000000000000000000000000000000075950000000000000000000000000000000000000000000000000000048c273950000000000000000000000000000000000000000000000000000000048c27395000",
          "blockHash": "0x725f08b898739bc97966cb5738af08390892fe2bc4a82d7841bed21b2f99bd06",
          "blockNumber": "0x92b34d",
          "transactionHash": "0xe1bef5ecfc370084eff0df7d2f9ddd95135d4f3483191efec7ad55c8b2534bed",
          "transactionIndex": "0x9",
          "logIndex": "0x1a",
          "removed": false
        }
      ],
      "logsBloom": "0x00000000000000000000000000000000000000000000000000000000001000000000000000000000000000000000000000000800000000000000008000000000000002000000000000000008000000000000000000000000000000000000000002000000020008008000000000000800000000000010001000000010000000000000000010000000000000080000000000010000080000000008000000000000000000008000000000100000000000000000000000400000000440000000000000000402000000000000000080000000000000000000040000000000000030000000040000000000000000000000002000000000018000000000000000000000",
      "type": "0x2",
      "transactionHash": "0xe1bef5ecfc370084eff0df7d2f9ddd95135d4f3483191efec7ad55c8b2534bed",
      "transactionIndex": "0x9",
      "blockHash": "0x725f08b898739bc97966cb5738af08390892fe2bc4a82d7841bed21b2f99bd06",
      "blockNumber": "0x92b34d",
      "gasUsed": "0x4b075",
      "effectiveGasPrice": "0x519352b",
      "from": "0x8f7714ddfecbeff5f3400a012eba53dab3bf0000",
      "to": "0x422c24157ab1fedc919b30dd3418a9042f883049",
      "contractAddress": null,
      "l1Fee": "0x2e2fe95a218"
    }
  ],
  "libraries": [],
  "pending": [],
  "returns": {},
  "timestamp": 1727307266,
  "chain": 534352,
  "commit": "ed557c4"
}